:020000040800F2
:1000000008100020710100085D2600080122000888
:100010005D2600085D2600085D2600085D260008B4
:100020005D2600085D260008842800085D2600087B
:100030005D260008342800085D2600085D260008BB
:100040005D2600085D2600085D2600085D26000884
:100050005D2600085D2600085D2600085D26000874
:100060005D2600085D2600085D2600085D26000864
:100070005D2600085D2600085D2600085D26000854
:100080005D2600085D2600085D2600085D26000844
:100090005D2600085D2600085D2600085D26000834
:1000A0005D2600085D2600085D2600085D26000824
:1000B0005D2600085D2600085D2600085D26000814
:1000C0005D2600085D2600085D2600085D26000804
:1000D0005D2600085D2600085D2600085D260008F4
:1000E0005D2600085D2600085D2600085D260008E4
:1000F0005D2600085D2600085D2600085D260008D4
:100100005D2600085D2600085D2600085D260008C3
:100110005D2600085D2600085D2600085D260008B3
:100120005D2600085D2600085D2600085D260008A3
:100130005D2600085D2600085D2600085D26000893
:100140005D2600085D2600085D2600085D26000883
:100150005D2600085D2600085D2600085D26000873
:100160005D2600085D2600085D2600085D26000863
:1001700008B50D4B83F30A880C4B09A1D1E90001A6
:10018000C3E9000101F0DAFC00F05AFA01F0C8FC02
:1001900001F0A0FC01F0B2FC00F0E8F9AFF3008040
:1001A000A5EDF5FEA5EDF5FE0800002008100020E5
:1001B0000348044B834202D0034B03B118477047F6
:1001C000181000201810002000000000064B0749FE
:1001D000C91A891048BF0131491003D0044B0BB133
:1001E00001481847704700BF181000201810002061
:1001F0000000000010B5064C237843B9FFF7D8FF84
:10020000044B13B10448AFF300800123237010BDE9
:100210003010002000000000302A000808B5054B0F
:100220001BB105490548AFF30080BDE80840FFF762
:10023000CDBF00BF0000000018100020302A0008C9
:1002400037B500F1006303F500430193104B0D46F1
:10025000984214461AD8019A0E4B9A4216D2019A25
:100260009B1AA34212D348B94FF000639B6A0A4A13
:100270005969914202D9186900F0A8FA2246294624
:10028000019803B0BDE8304001F04FBF03B030BD6E
:10029000FF7FFFF700E01708008000087FB56FF0D0
:1002A000006200F178419142034619D26D460D4A31
:1002B00002F110062C4610685168083203C4B2429D
:1002C0002546F7D15A1E04A90F3311F8014D12F833
:1002D000010F844204D19A42F7D1012004B070BDCD
:1002E0000020FBE720280008F0B50368044603F16E
:1002F0006043B3F5802F9FB033D84FF000639B6A03
:1003000042681E6996422CD8344B9A4229D8456BD4
:1003100006F14002AA425ED89D425CD82846FFF70B
:10032000BDFF002857D0284601F032FF80B16B692D
:1003300073B1022B0ED1AB69C4F1040119444FF023
:10034000FF32204600F0BCFE254BC31A58425841EC
:100350001FB0F0BD40F2046328460293FFF79EFFF2
:1003600008B90020F4E74FF000635F6B3846FFF7F1
:1003700095FF0028F5D0A6F150039F42F1D82846FA
:1003800003A901F00CFF0028EBD0039DAE42E8D892
:10039000AC42E6D8114B9D42E3D804A800F054FFCC
:1003A00021462A1B04A802F050F804A802F04FF8D6
:1003B00000F05AFF044600F075FF234600902946DE
:1003C00005F1200204A800F0BFFE02900298B0FAE6
:1003D00080F04009BCE70120BAE700BF0000180820
:1003E000E320BBDE70B54FF0FF3290B005460C46FF
:1003F00000F066FE1C4B984232D14FF480621B4BDA
:1004000000219A6601A81C2202F0CBF9184B29465C
:100410006846043C009302F041F92146684602F028
:100420003DF9684602F043F901F076FE0646B8B998
:1004300040F2022000F076F91C22314609A802F0B1
:10044000B0F90C4B294608A8089302F027F908A830
:10045000214602F023F908A802F029F901F05CFE18
:10046000002010B070BD00BFE320BBDE0090004054
:1004700001000543010006434FF4806230B5044695
:10048000154B91B09A6600211C2201A802F089F94F
:10049000124B21466846009302F000F9684602F0CC
:1004A00006F901F039FE054698B940F2022000F045
:1004B00039F91C22294609A802F073F9084B08A84B
:1004C0002146089302F0EAF808A802F0F0F801F0DB
:1004D00023FE002011B030BD009000400000024318
:1004E000000003434FF4806210B50F4B8CB00446FC
:1004F0009A6600211C2205A802F053F90B4B0194C7
:100500000493012302930A4B01A904A8039302F068
:10051000BBF804A802F0CBF801F0FEFDB0FA80F0C1
:1005200040090CB010BD00BF00900040000008431F
:1005300004000020004870470080000838B50C46D1
:10054000054680B179B100230B60074B036002F0D0
:1005500063F801301EBF2B6843F4C0432B6023684F
:1005600043F40023236038BD0C12000813B501A822
:1005700001F034FC9DF80530012B14D19DF80430B6
:100580008BB94FF480122A4B2A49586E03F58053D9
:100590005A664B6BC00223F0E05343F040634B6359
:1005A0005CBF254B5A664FF04023D3F884201106D8
:1005B00006D44FF400621A67D3F88420D206FBD425
:1005C00001F010FE00F0A0F808B900F085F801F085
:1005D00091FF044658B900F097F808B100F08CF884
:1005E00040F2012000F0C8F84FF4017018E000F06C
:1005F0008BF808B900F078F800F0A0F8012802D9CB
:1006000000F06AF8FEE700F0A5F80C4B0193019B9F
:10061000002B0ADC40F205439C42E5D140F2032066
:1006200000F0AAF8002002B010BD019B013BEDE7ED
:10063000008000400040004A00A0004000350C004F
:10064000012307B58DF806308DF807304FF04023B1
:10065000D3F894305A060FD500F0A2F8A0F2022089
:1006600080B2072808D8C923C340DB0742BF002354
:100670008DF806308DF80730154B5B68013308D1D3
:100680004FF4027000F04EF800238DF806308DF81C
:1006900007309DF807305BB10D48FFF725FE8DF858
:1006A00006009DF806301BB94FF4027000F03AF8CE
:1006B0009DF806304BB100F027F808B100F01CF8A7
:1006C0000348044B986001F091FD03B05DF804FB12
:1006D0000060000800ED00E04CF23C32014B5A8013
:1006E000704700BF000000204AF6C032014B5A801C
:1006F000704700BF000000204FF20F02014B5A80EC
:10070000704700BF000000204AF6C030044B5B88F1
:1007100023F00F039BB21B1A58425841704700BF89
:1007200000000020044A08B51080FFF7EDFF10B963
:100730004FF20F03538008BD0000002008B5FFF7FB
:10074000E3FF18B1024B588800F00F0008BD00BF4E
:100750000000002008B5FFF7D7FF48B1054A5388CD
:1007600003F00F010F2914BF013323F00F0353804F
:1007700008BD00BF0000002008B5FFF7D3FFBFF39E
:100780004F8F0549054BCA6802F4E0621343CB6002
:10079000BFF34F8F00BFFDE700ED00E00400FA0556
:1007A0004FF20F01084B5A888A4201D118887047CE
:1007B0003AB91B8840F20220012B18BF4FF4007099
:1007C00070474FF400707047000000204FF48032F3
:1007D00008B5044B9A6601F02DFAB0FA80F0400992
:1007E00008BD00BF00900040072BF8B506460F4635
:1007F00014461D4601D90020F8BD0121202001F03A
:10080000ABF90121212001F0A7F98CB144EA0603DC
:100810009B07F0D14FF48032064B31469A6628464A
:1008200023463A4601F06AFAB0FA80F04009E3E75D
:100830000120E1E700900040134610B562B1034388
:100840009B070BD14FF48034054B9C6601F01AFADC
:10085000B0FA80F0400910BD0120FCE70020FAE763
:100860000090004030B5024600230C25054905FBE9
:1008700003F460180C59944203D001330C2BF6D1C9
:10088000002030BDCC280008F0B50023082787B031
:10089000CDE9013315463B46009704AA044601F012
:1008A00042FD41F203039842064623D194F84330B7
:1008B00053B13A46E06C04A901F0C7FD04AA3B46D7
:1008C0001146A06C01F0B0FD059A049B6A6094F893
:1008D00043202B6052B9094A934207D0084A9342F9
:1008E00004D00822E06C04A901F0AFFD6B68236519
:1008F00000236365304607B0F0BD00BFF70A0AF772
:10090000FC0404FC2DE9F04799465B6804460F4659
:100910009046002B3FD08B0740D14FF000639B6A7D
:10092000006E1B6981181D1DA9421BD31C33984200
:1009300018D2A842024638BF2A46994294BFC2EB59
:10094000010AC2EB030A101A3E18C5F168001044F0
:1009500031465246204401F02CFF5246FF213046DA
:1009600001F01FFF226E0F4B9A420BD80E4902EB8B
:100970000800884206D39B1AFA58C4F880204FF02A
:10098000FF32FA50D9E9003542463946206EA84771
:10099000236E434423660020BDE8F08741F2020045
:1009A000FAE700BF04800008088000082DE9F04144
:1009B00000254FF0FF3704468846164603F0200313
:1009C00080F842301822FF21C0E91855A0F84050A5
:1009D00080F84350A0F8445080F84650C0F8887022
:1009E000683001F0DEFE88222946C4E91286C4F888
:1009F0008070C4F8847004F1900001F0D2FE074BBF
:100A0000C4F82071C4E9463584F8245116B1304643
:100A100000F01AFC0020BDE8F08100BF00010101D8
:100A20002DE9F04FA5B09946CDE9112300230446E6
:100A30000E464FF001082E9D1393139978E094F819
:100A400046300C2B70D8062B4BD908FA03F212F45F
:100A5000286F40F00F8212F4885F40F0BA810A2BB1
:100A600066D1DFF8BCA3636D072B00F228814FF03D
:100A7000080B382316AA2046CDE90188CDF800B02E
:100A800011A901F050FC41F203030A900A9A9A421C
:100A900000F03F810A9B5BE0A3F10E02052A00F201
:100AA0009482DFE812F006030600F50036023602F3
:100AB00004030027636D0F2B00F28A80102314AA11
:100AC000009320464023CDE9018711A901F02BFCBA
:100AD00041F203030890089A9A4200F0CB80089BE9
:100AE00036E0013B052B27D8DFE813F074006E00D9
:100AF0000600C401DC007B010127636D072B00F2B7
:100B0000DE80082314AA009320464023CDE9017714
:100B100011A901F008FC41F203030B900B9A9A42D1
:100B200000F021810B9B13E0A3F10D02062AB3D93B
:100B3000494584D3002065E014AA204611A9FFF797
:100B4000A3FE41F203020590059B934208D0059B4A
:100B5000049341F20303049A9A423FF46EAF50E0CB
:100B6000159A1499226500226265AB4A914240F0C1
:100B70000781022284F84620EAE7082314AA00939A
:100B800020464023CDE9018711A901F0CCFB41F2B9
:100B900003030690069A9A4201D0069BD8E7149B5D
:100BA00003F07F43B3F1407F05D0132384F8463030
:100BB00041F20903CCE7159BD90706D594F84230DA
:100BC00043F0010384F842300027636D072BD4D92A
:100BD000012303E1204614AA11A9FFF755FE41F2B3
:100BE00003030790079F9F420FD0079F41F2030323
:100BF0000497049A9A423FF420AF049B0BB1002360
:100C0000F370049825B0BDE8F08F1498FFF72AFE22
:100C100028B9132341F2080784F84630E6E7437900
:100C200094F824219A4205D9132341F20E0784F83F
:100C30004630DBE7026879498A4205D00289D2074B
:100C400048BF013384F8243194F84230D9070DD5D8
:100C5000028994F84330920706D53BB1132341F241
:100C6000010784F84630C1E7002BF7D0037984F8F8
:100C70004630BBE7D4F848A000F032FB80230221C5
:100C8000CDE9000315AA0123504600F031FA11E71F
:100C9000226D0123A265002284F84330E26584F8C6
:100CA0004630CAE600213C2215A81491012701F024
:100CB00078FDD4E91432934204D884F8467041F2A6
:100CC000030345E7009314AA40232046CDE90177AA
:100CD00011A901F028FB41F203030990099A9A42F5
:100CE00001D0099B34E70DF1500C06F108030DF11A
:100CF000680E624603CA724518605960944603F153
:100D00000803F6D110681860337843F0010333709C
:100D1000CFE7337843F004033370179BB3627378E3
:100D20005F071CD50020236DCDF850A0C4F8843097
:100D300094F84530606643F0020384F84530EF686C
:100D40006FB104222B6814A9B847606E2B685A460D
:100D5000EF6816A90830B847636E103363660B233B
:100D600084F846307FE6337843F002033370149BF7
:100D70007360236D083B7362159BB3F1006F05D060
:100D8000132384F8463041F20103E1E6042384F89A
:100D9000463094F8453043F0010384F84530002391
:100DA0006366AAE6042314AA009320464023CDE9F3
:100DB000017711A901F0B7FA41F203030C900C9AE4
:100DC0009A4201D00C9BC3E6226D149B042A01D9E0
:100DD00023660127636D032BE4D9092384F8463089
:100DE0006DE700236366072359E79F4252D89F426D
:100DF00028BF1F46402314AA2046CDE9018800974A
:100E000011A901F090FA41F203030D900D9A9A4254
:100E100011D00D9B9CE600BFEB17A603F90707F95D
:100E2000EB17A65E402F28BF40279F4228BF1F46D2
:100E300027F00307DEE794F846B0BBF1070F2FD089
:100E4000042FC7F1040A88BF4FF0000A14AB5246C2
:100E5000FF21D81901F0A5FCBBF1090FBA442DD12F
:100E60002B465246204614A9FFF74CFD0D900D9BD2
:100E7000002BCED1D4E914739F427FF6A9AEFF1A9E
:100E8000DDE912329B1A94F84020032F1344ACD9A9
:100E9000032BC7D8204611A901F024FA002357E6F6
:100EA000D5F808A0BAF1000FCAD02B683A46606E98
:100EB00014A9D047636E3B446366DBE7BBF1040FC4
:100EC0001DD173789807D5D5EB68002BD2D0626E10
:100ED000042A0BD80AEB0203062B07D915AB9B1A81
:100EE0001A68C4F884204FF0FF321A60EF682B684C
:100EF0005246606E14A9B847636E5344DCE7BBF1F9
:100F00000B0FB7D173785907B4D5EF68002FEED126
:100F1000B0E74FF000618A6A496B1269503A91421A
:100F20003FF631AF112B0FD194F81831002B7FF41D
:100F30004FAE41F206030E930E9A9A4202D113234A
:100F400084F846300E9B03E694F84430002B7FF47F
:100F50003FAECDE90133402314AA0093204611A9E6
:100F600001F0E1F941F203030E900E9A9A42E9D1A1
:100F7000E06C01F06CFA94F81831A3B104F1B403F9
:100F80000093E06C04F194031CAA14A900F0DCF8AF
:100F90000E900E9BA3B10023F370132384F8463008
:100FA00041F20603D4E5D4F84CA000F05DF9074601
:100FB00000F078F93B4600901CAA504614A9E5E7DA
:100FC0000123F37084F8443002E600234FF0040854
:100FD000CDE9013314AA40232046CDF8008011A9A1
:100FE00001F0A1F941F203030F900F9A9A4202D047
:100FF0000F9B049305E6D4F888202F4B9A4205D026
:10100000132384F8463041F20503F2E70123F3701D
:1010100094F84530DA0707D5EF682FB142464046CD
:101020002B6804F18401B84794F845309B0707D535
:10103000EF682FB104222B68104604F18401B847F1
:10104000236E6BB36F685FB34FF0FF3304F180081A
:101050000422414610A8109301F093FB20B1042212
:1010600041462B681548B84704F1680904224946EF
:1010700010A801F086FB98B14FF000639B6A142220
:10108000D3F8108004F16C0108F10800D5E90037AD
:10109000B847D5E900370422494608EB0200B847B3
:1010A0000123B3700E2384F846300023A1E7002308
:1010B000F37041F20700A5E5E320BBDE04800008E1
:1010C00030B50824094B00255C66012403F5FE2396
:1010D0005C6001449D601A61DC60884201D1586AFD
:1010E00030BD10F8012B1A62F7E700BF00900040F6
:1010F0002DE9F04116464FF480621D46114B00F178
:10110000200804469A6640460F4601F01BFBDDE9C5
:101110000612404601F01AFB002384F858706364FD
:101120003368C4F859307368C4F85D30B368C4F8E4
:1011300061302B0C6DBA84F86530A4F86650BDE8B8
:10114000F08100BF009000402DE9F04315464FF4B8
:1011500080621C46364B99B0DDF880900E460746FB
:101160009A66002861D000295FD0002D5DD0002C48
:1011700058D0304B304AB9F1000F14BF9846904612
:101180001C22002111A801F00CFB2C4B414610A899
:10119000109301F083FA202110A801F07FFA0122B8
:1011A000274B019402920393CDF810900592069379
:1011B00054B1B9F1000F07D001A910A801F05AFAF3
:1011C00004A910A801F056FA079701271C4C07A99B
:1011D00010A80897099401F04DFA0AA910A80A96D8
:1011E0000B970C940D950E970F9401F043FA0DA9EF
:1011F00010A801F03FFA10A801F059FA114B009322
:101200004FF098435A6CD202FCD55B6D40F20460FB
:1012100003F470230093009B002B08BF002019B03B
:10122000BDE8F083DFF81080AAE740F20160F6E73E
:10123000009000401F2400801F24FC840000010651
:1012400020000020785634124FF4806210B5044616
:10125000044B9A6601F0FEF82046BDE810400021DC
:1012600001F0FCB8009000404FF4806200B50B4BD9
:1012700099B09A6600212022684601F092FA402334
:101280000021684608AA00F0EBFD20F010000128BC
:10129000034818BF002019B05DF804FB009000401F
:1012A0004CE317084FF4806200B50B4B99B09A6677
:1012B00000212022684601F074FA4023002168468C
:1012C00008AA00F0CDFD20F010000128034818BF47
:1012D000002019B05DF804FB009000406CE3170893
:1012E0000048704786E217082DE9F3471446DDE908
:1012F0000A920D461F4600284DD14CB313683F2B70
:101300002AD8516851B32549002F14BFB8468846E2
:1013100003F03F061B19136022BF5368013353606B
:10132000FEB93F2C0ED9A3092A46009341463B46FD
:10133000002000F083F824F03F031D4404F03F0434
:1013400034B100262246294609EB060001F031FAA5
:10135000002002B0BDE8F087B846D9E7DFF83C804E
:10136000D6E7C6F1400A5445ECD32946524609EB6C
:10137000060001F01EFA0123264400934A463B462C
:1013800041460020A6F1400400F058F83F2C554497
:10139000D6D9B846C7E70248DBE700BF9C2900085A
:1013A00080AFFFFF2DE9F0411746146886B01E4656
:1013B000E3008DF80F3063098DF80E30630B8DF864
:1013C0000D30630D8DF80C3053680546DA0002EBE2
:1013D00054728DF80B2004F03F045A09372C8DF815
:1013E0000A204FEA53324FEA53538DF809208846BA
:1013F00094BFC4F13802C4F17802CDE900178DF82A
:1014000008300D4903460020FFF76EFF08222B46E7
:101410000020CDE900870DEB0201FFF765FF2846AC
:1014200005F1200350F8042B984246F8042BF9D11B
:10143000002006B0BDE8F0815C290008F0B5174631
:101440004FF480621D46254B93B00E469A660446C3
:10145000202200210AA801F0A4F901204FF0005237
:1014600001970290039204960590069207950890C2
:101470000992002C2FD1189C194BA40121460AA8CF
:101480000A9301F00BF9039B04A91C430394069BE8
:101490000AA843F020030693099B43F02003099315
:1014A00001F0E8F801A90AA801F0E4F807A90AA8E0
:1014B00001F0EAF80AA801F0FAF84FF098435A6CE4
:1014C000D202FCD55B6D13F4702F14BF6FF06F0068
:1014D000002013B0F0BD6FF07100FAE700900040FB
:1014E000000401032DE9F041A2B0502204460D464C
:1014F0000EA8002101F055F93422002101A801F0C5
:1015000050F901A800F02AFA049B012B11D80023FE
:1015100020466A1E9D424FEA82024FF0FF0108BF3B
:101520001A4640F8043B01F03CF9002022B0BDE827
:10153000F081AB425DD300F01FF9059B0C220EA990
:101540000646DF6801F033F80028EFD1DFF8AC8001
:101550000E9B434515D1109A0EA9304601F027F88D
:101560004FF0FF3210990EA8FFF7AAFD224B9842C8
:101570002ED0FF212046AA0001F013F940F20650B8
:10158000D4E737440C2238460EA901F010F80028A1
:10159000CCD10E9B434507D0FF212046AA0001F085
:1015A00000F940F20550C1E70EA93846109A00F044
:1015B000FEFF059B3046D96801F030F80028B5D110
:1015C0003046109A0EA901F002F80028C3D0ADE70A
:1015D000109E11A9103EB608AE4228BF2E46B70095
:1015E0003A46204601F0E5F8AA1BFF219200E019D7
:1015F00099E740F2045099E7E320BBDE39528FE1CE
:1016000044222DE9F043A3B00C46814600210DEBA6
:10161000020001F0C6F8012350262E4A0021CDE930
:101620000E2301A83422109601F0BBF801A800F0A7
:1016300095F9049BA34249D3012B0AD8D9F800306D
:1016400040F204500133022B38BF002023B0BDE824
:10165000F08300F091F8102C28BF1024059B4FEA6E
:101660008408DF68424649460744054611A801F050
:10167000A0F8C4F110040EAB08F10C001844FF21CF
:10168000A20001F08EF84C214FF0FF320EA8FFF7B8
:1016900017FDC043059B2190D968384600F0BEFF76
:1016A0000028D3D1324638460EA900F090FF00281A
:1016B000CCD1059B2846D96800F0B0FF0028C5D1E1
:1016C000324628460EA900F082FFBFE740F20450E0
:1016D000BCE700BF39528FE110B5ADF50E7D4FF478
:1016E0000D72002001A900F033FF40F20124002117
:1016F00001A800F004FFA042F9D040F20323984271
:1017000004D040F205400DF50E7D10BD9DF804306B
:1017100059070DD49DF804309A0719D4DB07F0D58A
:1017200004998A9800F07EF90028EAD00020EAE7C0
:101730000B9800F047FD0028ECD08A9800F030F9B3
:101740000028E7D00B48FEF797FE0028E2D1D8E743
:101750004FF00062926A029992689142DED98A98AB
:1017600000F03CF90028CCD00A990248FEF73AFE76
:10177000C7E700BF00800008004870470040040829
:1017800031B10A4B5A68824205D80023C1E90033BF
:1017900040F201407047013053F8302003EBC003A2
:1017A0005B6800200A604B60704700BF202A000879
:1017B00070B40C4611461A460D4B5D68854210D92F
:1017C000013003EBC0056D68A618AE420DD8A542E6
:1017D0000BD3954209D353F83000204470BC00F07D
:1017E000E6BE40F2014070BC704740F20240FAE7AA
:1017F000202A000830B5CA681B4B04469A420D46A1
:10180000A3B019D1FEF796FED4F82432174A01335B
:1018100052F83330D4F82C221344984208D3803342
:10182000984209D241F20D03C4F8303223B030BDE2
:1018300000F5C0309842F5D88023D4F82C1202AAC3
:10184000D4F82402FFF7B4FF80232146009502AAB2
:1018500004F12C00FFF7E4F8D4F82C32C4F830027D
:101860008033C4F82C32E1E741020008202A000846
:1018700070B50D46002186B00DF1070302931C4B95
:1018800004461646116028461C22CDE903338DF824
:101890000710059300F085FF9DF8072032B9D4F8B2
:1018A00030321BB9D4E98A31994219D32378990788
:1018B00044BF61683160DB0709D504F1080304F116
:1018C000240153F8040B8B4245F8040BF9D162B99B
:1018D000237840F20640002B18BF002006B070BDF0
:1018E000204602A9FFF786FFD6E70020F6E700BFF3
:1018F000F924000870B40C4611461A460D4B5D6879
:10190000854210D9013003EBC0056D68A618AE42C0
:101910000DD8A5420BD3954209D353F8300020448B
:1019200070BC00F054BE40F2014070BC704740F201
:101930000240FAE7202A0008074B5A68824207D97A
:10194000013003EBC002516853F8300000F066BE6E
:1019500040F20140704700BF202A000870B50546DC
:1019600088B0C0B14FF4403200236C46C0E9002378
:101970000A4B05F114061A785B680272C360684668
:1019800000F082F80FCC0FC694E80F0086E80F0035
:1019900005F114032B6108B070BD00BF202A0008B8
:1019A00000B5ADF5137D4FF40D7205A900F0D0FD23
:1019B00078B904238DF81530074BCDE90100039069
:1019C00001A905A8049300F0D7FD0DF5137D5DF87E
:1019D00004FB0020F9E700BF410200084FF000635C
:1019E00000B59B6AADF5137D9B688B4204D3002044
:1019F0000DF5137D5DF804FB4FF40D7205A900F0A1
:101A0000A7FD0028F3D102238DF81530044BCDE952
:101A10000100039001A905A8049300F0ADFDE7E7DC
:101A20004102000800B5ADF5137D4FF40D7205A914
:101A300000F08EFD78B901238DF81530074B019029
:101A4000CDE90230049001A905A800F095FD0DF53F
:101A5000137D5DF804FB0020F9E700BF6F2100084B
:101A6000B1F5C01F0BD800F17843B3F5C01F06D8FD
:101A7000044B084498428CBF00200120704700208E
:101A8000704700BF0000180870B504460646044DB4
:101A90000FCD0FC495E80F0084E80F00304670BDED
:101AA000002A00084FF48032014B00209A667047EC
:101AB00000900040024BD86900F00100704700BF61
:101AC000000003404FF48032014B00209A667047BB
:101AD00000A00040064B0748DA1C121AC11E22F073
:101AE0000302994288BF0022034900F062BE00BF92
:101AF00018100020101000203C2A0008064B074850
:101B0000DA1C121AC11E22F00302994288BF002279
:101B1000002100F046BE00BF341000201810002045
:101B20000348044A0449121A921000F098BD00BFFD
:101B3000442A0008442A000834100020044B054AB7
:101B40009A60D3F8882042F47002C3F88820704766
:101B500000ED00E000000008430905D0012B0CD087
:101B6000022B084B18BF002300F01F0039B103F50A
:101B70008053012282401A607047034BF4E703F55B
:101B80000053F6E76880004064800040F0B5114AD9
:101B9000114C124E00F00105E3695F0713D40DB933
:101BA000334213D103EA00078F4207D10B4A1A4090
:101BB000002A0CBF00206FF00100F0BD013AEBD10C
:101BC0006FF00200F9E74FF0FF30F6E76FF0010029
:101BD000F3E700BF80969800000003400200010078
:101BE00070B5134C6061E3695B071ED40E4656F86E
:101BF000043B8D18A361AE420BD1042300212120A8
:101C00002361FFF7C3FF58B9BDE870402120FFF7FB
:101C1000BDBF08210846FFF7B9FF10B104232361B7
:101C200070BD56F8043BA361E5E74FF0FF30F7E7DE
:101C3000000003404FF4803238B50E4B0E4C9A66CC
:101C4000E56941F6713315400122E3630B4B002136
:101C5000DA600223606121202361FFF797FF10B94A
:101C60002120FFF793FF0122054BDA600DB100231D
:101C7000E36338BD009000400000034000100340C3
:101C8000002003402DE9F84315464FF48032184BED
:101C900089469A6603F51C33DF690646174041F60C
:101CA0007132DA63012203F58053DFF84C80DA6089
:101CB00055B9284601220F4BDA601FB10022A3F567
:101CC0000053DA63BDE8F88306F5005404EA08041B
:101CD000A41BAC4228BF2C46494622463046FFF79B
:101CE0007FFF0028E6D12644A1442D1BE0E700BF7A
:101CF000009000400020034000E0FFFF2DE9F04F7E
:101D000001274FF4302530268400DFF8C0C004F1ED
:101D1000402404F58024CCF80470656000244FF45E
:101D20008035DFF8ACE0DFF8AC9006FB00E6F46548
:101D300034663467234CDFF8A0A0A56641F6713500
:101D400004F51C34D4F81C80E563E56807FA00F05C
:101D50003D43E5604BB9E26818F4803F22F0010290
:101D6000E26029D10020BDE8F08F01F5005505EAB9
:101D700009056D1A9D4228BF1D466161D4F81CB04B
:101D8000AF081BF0040F19D1013F3F0147F0605726
:101D90007766B266C6F86CA0CCF82400DEF8347022
:101DA0003842FBD0084F294478630427CCF8280038
:101DB0002A4427615B1BCDE7E363D3E74FF0FF3095
:101DC000D1E700BF00900040002004400010044014
:101DD0000000044000E0FFFF180003404FF4803291
:101DE000064B5A6603F5E6239B69C3F3851282709E
:101DF00003F03F021B0B42700370704700900040DD
:101E00004FF48062014B00209A66704700900040BA
:101E10004FF48062014B00209A66704700A000409A
:101E200008B5B0B14FF480620B4B9A6600F03FFCEE
:101E30004FF098435A6CD202FCD54FF48062586D33
:101E4000064B10F470209A6604D0BDE8084000F0FC
:101E50004BBC212008BD00BF0090004000A0004006
:101E60001FB5044660B35AB3402B29D1930727D13D
:101E7000042925D8DFE801F0031A24221E004FF4BC
:101E8000807310490B4323600023C4E90133E361ED
:101E90000123019202930C4B204601A9039300F009
:101EA000F3FB2046FFF7BCFF04B010BD4FF40073F6
:101EB0000449E7E705494FF48063E3E70149FAE79E
:101EC0002120F1E7010008FF40000020000008FF8A
:101ED0002DE9F041012905460E4690461F4692B075
:101EE0004AD8046824F04003802B02D0B4F5807FE8
:101EF00045D11C2200210BA800F053FC234A244B9F
:101F00000121012E08BF13460A932B1D0193E408FB
:101F1000204B44F0005402910AA80394CDF810809D
:101F2000059106930797089101A9099300F0A2FB78
:101F300004A90AA800F09EFB07A90AA800F0A4FBC8
:101F400029680AA8C90800F0A9FB10210AA800F016
:101F5000A5FBFFF755FFA8B90AA800F0A8FB4FF0B2
:101F600098435A6CD202FCD55C6DFFF751FF04F424
:101F7000702012B0BDE8F0816FF02000F9E76FF03B
:101F80007100F6E74FF0FF30F3E700BF00010004F7
:101F900000010104100000202DE9F04F074689469A
:101FA0009846164699B082B115683B6823F0400206
:101FB000802A03D0B3F5807F40F0A68000244C45F2
:101FC00005D306B1356000207BE01546EDE75DB135
:101FD000239B229A1B5D525D01355340249A05F0E4
:101FE0000F0513550134EAE7A9EB040ABAF10F0F04
:101FF0000BD8239B03EB040A249B1C44239B03EB79
:10200000090BDA4560D14C46D9E71C22294611A8B4
:1020100000F0C7FB3E4B3A6810933B1D0193012330
:10202000D20842F00052029303923A4ACDF810804F
:1020300005930692CDF81C8008930992239A24995F
:1020400022442AF00F0A0A9221444AF000520B93CC
:1020500010A80C920D9101A90E930F9200F00AFBAB
:1020600004A910A800F006FB0AA910A800F002FBC2
:102070000DA910A800F008FB07A910A800F004FBA8
:10208000396810A8C90800F009FB514610A800F0F3
:1020900005FBFFF7B5FE90B910A800F008FB4FF064
:1020A00098435A6CD202FCD5586D544400F4702BFE
:1020B000FFF7AEFEBBF1000F9BD0584601E04FF09A
:1020C000FF3019B0BDE8F08F55B1229A1AF8013BE4
:1020D000525D0135534004F8013B05F00F0590E7D0
:1020E000424601213846229BFFF7F2FE0028E8D144
:1020F00008F1100212F8013D0133DBB21370002B1E
:10210000E3D19045F6D1E0E76FF01F00D9E700BFBB
:1021100003030004100000204FF098435A6CD202D1
:10212000FCD5586D00F470207047C0F30C032DE906
:10213000F04105460F4616460BB9FEF747FB05F57D
:10214000005424F4FF5424F01F0405EB0608A045B6
:1021500007D8324639462846BDE8F0410223FEF74B
:1021600043BB2046FEF732FB04F50054EFE770B4A2
:102170004FF00065AD6A03462E69864206D86C6949
:1021800013449C4202D370BCFFF7CFBF70BC7047B2
:10219000036913F0FE0F0CBF01200020704738B513
:1021A00004460D46FEF77AF838B16369012B07D172
:1021B0002046FFF7EDFF10B1A46901202C6038BD67
:1021C0000020FCE74FF0FF3313B5044601A801934C
:1021D000FEF788F920B1019BA3422CBF002001200B
:1021E00002B010BDFFF75EBCFFF76CBC034618469B
:1021F000016881F3088881F3098840688746FEE713
:102200004FF40170FEF7B8BAB1F50D7F10B5044672
:102210000FD34FF40D72002100F0C3FA04F5DE7203
:1022200004F5AA7104F12C000023BDE81040FEF76C
:10223000BDBB40F2052010BD13B504460091014618
:102240002C30FEF7EDFBC4F8300218B141F2070361
:10225000984204D1A37823B1E07800F2022002B0C2
:1022600010BD40F20120FAE72DE9F04387B00DF1EF
:10227000080904460E4617460021102248461D460E
:10228000DDF8388000F08DFA00211C22C8F800101B
:10229000284600F086FA32463B462146CDF80090AB
:1022A00004F12C00FEF7BCFB23789A0744BF626858
:1022B000C8F80020DB0709D504F1080304F1240263
:1022C00053F8041B934245F8041BF9D1237840F2DC
:1022D0000640002B18BF002007B0BDE8F0834FF484
:1022E0000D70704770B5D1E90152AA4205D290F83D
:1022F00040302B449B1A402B10D9002012E00A6872
:1023000090F84040D65C90F841200133224402F01E
:102310003F02013486548B6080F840408B689D42B8
:10232000EDD8012070BD2DE9F84390F840C0174664
:102330009E46D1E90123089DD21A62449542044683
:102340000E469DF824909DF828800AD9FFF7CAFF11
:10235000002867D1132341F2020084F84630BDE81B
:10236000F883754555D8002394F840200AB19D4262
:1023700035D1D6E90121914201D29D4241D89D42F9
:102380004DD129463846D4F88820FEF799FEC4F886
:102390008800B9F1000F04D02A463946E06C00F0FD
:1023A00054F894F84330B8F1000F06D08BB12B46A7
:1023B0003A463946A06C00F037F894F8433043B100
:1023C000E36DA26D2B449342E36524BF002384F8A0
:1023D0004330636D41F203002B446365BFE794F81B
:1023E0004120A25CFA5494F841200133013202F0FA
:1023F0003F0284F8412094F84020013A84F84020BC
:10240000B2E73268525CFA54B26801330132B2600A
:10241000AFE741F20100132384F846309FE741F211
:102420000200F8E700209AE71FB50C46194600F1B4
:102430004803CDE90142009300F1440200F1580342
:102440002030FFF7A9FD04B010BD00F00CB8014624
:1024500000F016B86822002100F0A3B9034600205E
:10246000C3E90000704707B500F12803019000930D
:1024700000F108030020FEF737FF03B05DF804FB0E
:1024800002460B4600F128010830FEF78BBF30B53D
:102490009FB034220021054601A800F082F901A86E
:1024A000FFF75CFA049C012C1ED921460EA8FFF709
:1024B00019F818B140F2055398420ED100230EAA24
:1024C00052F8041B481C0AD11EAA02EB83032146C2
:1024D0000EA843F8405CFFF793F81FB030BDA94247
:1024E00005D001339C42EBD140F20250F5E740F2B7
:1024F0000350F2E7FFF7F0B801221A7070471FB5DA
:102500000023CDE90033CDE90213D0F83032044680
:1025100093B9D0E98A329A420ED26946FFF76AF936
:10252000D4F8300270B141F2070240F20123904228
:1025300008BF184604B010BDA37833B1E07800F2AC
:102540000220F7E740F20120F4E740F20220F1E731
:1025500037B50C46054611462046FFF755FE48B9EB
:1025600069462846FFF70CF920B9019BC4F82452AC
:10257000C4F8283203B030BD38B500F5DE72044629
:102580000D46202300F5AA712C30FEF70FFAD4F87F
:1025900030321BB9D4E98A329A4203D3A07800B111
:1025A000E07838BD29462046FFF724F9EFE738B533
:1025B0000C4611460546FFF753FA28B12946204636
:1025C00000F0F7F8002038BD40F20240FBE738B5D4
:1025D0000D4611460446FFF743FA80B940F2024027
:1025E00038BDE158013114D104339A42F9D8AB0710
:1025F00007D1022329462046FEF7F6F805E000231E
:10260000F3E729462046FEF717F90028E6D0002018
:10261000E6E740F20340E3E70220704738B541EABD
:102620000003C3F30C0304460D46A3B9FFF718FAE1
:1026300010B940F2024038BD2544204604F500544C
:10264000FEF7C4F8A54202D00028F6D1F1E7002831
:10265000EFD00020EFE740F20440ECE7FEE710B5D2
:102660003AB1002350F8234041F8234001339A4205
:10267000F8D110BD436813B9416070475B685A6870
:10268000012AFBD159607047836813B98160704794
:102690005B685A68012AFBD159607047C369032BF4
:1026A0009FBF00EB83020133D160C3617047C369F0
:1026B000042B14D84FF09842116CC902FCD5043396
:1026C0009B0013650168103B11604168116050F870
:1026D000081F11604FF098420344984200D17047A0
:1026E00050F8041F1160F8E7B0F5802F22D010D801
:1026F000B0F5003F20D007D818B3B0F5803F08BF31
:10270000482018BF01207047B0F5403F08BF2C207B
:10271000F7E7B0F5302F11D007D8B0F5E02F0FD084
:10272000B0F5202F08BF1020EBE7B0F57F0F08BFF2
:102730000620E6E74B2070472A207047112070479B
:10274000212070472422002100F02BB870B51546D7
:102750000E4624220021044600F023F825F0400311
:10276000802B02D0B5F5807F08D12046314640F855
:10277000045BEA0800F01DF8002070BD6FF01F0038
:10278000FBE70139024410B5904201D1002005E079
:10279000037811F8014FA34201D0181B10BD01307E
:1027A000F2E702440346934200D1704703F8011B4D
:1027B000F9E70A44431E914200D1704710B511F861
:1027C000014B914203F8014FF9D110BD0000000008
:1027D00000000000000000000000000000000000F9
:1027E000F8B500BFF8BC08BC9E467047F8B500BFFE
:1027F000F8BC08BC9E4670470000000000000000C6
:1028000000000000000000000000000000000000C8
:1028100000000000000000000000000000000000B8
:10282000B814B6F1E0CFF3ADB7DD25C9FA79B71327
:102830000000000013B779FAC925DDB7ADF3CFE08A
:10284000F1B614B80102000000000000442A0000A4
:102850004000000000000402000000000000000032
:102860000000000000000000000000000000000068
:102870000000000000000000000000000000000058
:102880000000000007B0CD5E02000000000004025E
:10289000482A00000060000800001808F004010049
:1028A000E5210008E9210008E902000809220008E2
:1028B00039220008BC29000869220008DF2200082C
:1028C000000000003D05000835050008EB17A603D1
:1028D0000201000003000000FA0606FA0F040000DF
:1028E00003000000F40A0AF40505000001000000DE
:1028F000EB17A65E0A06000001000000F50909F5C5
:102900000307000001000000F60808F606080000B2
:1029100000000000FE0101FE0808000000000000A9
:10292000FD0303FD0C08000000000000F90707F993
:102930001009000002000000F30B0BF3110A000065
:1029400003000000F70A0AF7120B00000300000062
:10295000FC0404FC0D0C00000300000080000000DB
:102960000000000000000000000000000000000067
:102970000000000000000000000000000000000057
:102980000000000000000000000000000000000047
:102990000000000000000000000000006A09E66777
:1029A000BB67AE853C6EF372A54FF53A510E527F70
:1029B0009B05688C1F83D9AB5BE0CD19000100003B
:1029C0005D19000881170008B1170008F518000804
:1029D0003919000801160008E51400088F240008C2
:1029E00051250008FF24000871180008B51A0008D6
:1029F000AF250008CF2500081D260008192600086D
:102A00001002030028000000280000000020000041
:102A1000000018000000000004000000000000405A
:102A20000100000001000000004004080000030055
:102A30003C2A000810100020020000001D020008BF
:042A4000F501000894
:10600000C00A002005950008B9190308B91903084A
:106010000F370308B9190308B9190308B919030898
:10602000B9190308B9190308B9190308616200080E
:10603000B919030804FB0308F16100089539030846
:1060400011940008B9190308B9190308B91903080C
:10605000B9190308B9190308B9190308B9190308CC
:10606000B9190308C5440108B5580308B91903084C
:10607000B919030831440108B1580308B9190308D4
:10608000B9190308957E0008B9190308B91903085E
:10609000B9190308099F0008B9190308B9190308B9
:1060A000B919030809A00008E59F000859830008F2
:1060B000898300089DE6020821F1020849E70308E8
:1060C00045E70308C9E8020855E703084DE7030858
:1060D000F9F0020851E7030861F10208CDF1020866
:1060E000B9190308B9190308B9190308B91903083C
:1060F00035310308B9190308B9190308B919030898
:10610000B9190308B9190308B9190308B91903081B
:10611000B9190308B9190308B9190308B91903080B
:10612000B9190308B9190308B9190308B9190308FB
:10613000B9190308B9190308B9190308B9190308EB
:10614000B91903087DD40008B91903081D380308DC
:1061500095CF0208B9190308A9E30308AFE30308C0
:10616000B9190308B9190308B9190308B9190308BB
:10617000013800D0FCE7704700000000000000007C
:106180000B4A1168086806C881F30B88022181F365
:106190001488203080F30988BFF36F8F4FF0000020
:1061A00080F31188104700BFAFF30080AFF3008089
:1061B000105A002000000000000000000000000055
:1061C00007480068006880F3088862B661B6BFF3CC
:1061D0004F8FBFF36F8F02DF00BF00BFAFF30080B0
:1061E00008ED00E0000000000000000000000000DA
:1061F000EFF309801EF0100F08BF20ED108AEFF3B7
:106200000B82734620E9FC0F114A116808604FF0B9
:10621000300080F31188BFF34F8FBFF36F8F0CF006
:106220006BFB4FF0000080F31188094A1168086881
:10623000B0E8FC0F13F0100F08BFB0EC108A82F327
:106240000B8880F309881847AFF30080AFF3008014
:10625000105A0020000000000000000000000000B4
:106260001EF0040F0CBFEFF30880EFF30980044920
:10627000084700BFAFF30080AFF30080AFF30080AA
:106280006F3A03080000000038B52DED028B08EED0
:10629000101A008A40080EF085FCF8EEC87A044611
:1062A00017EE900A0D460EF08FFC0CA3D3E90023E5
:1062B0000EF0E2FC02460B46204629460EF0DCFCBE
:1062C0000022054B0EF002FE0EF0A6FFBDEC028B85
:1062D00000EE100A38BD00BF00408F4008AC1C5AC9
:1062E000643BAF3F000000002DE9F04FC76997B055
:1062F0008346209E08910C92129355EC104B8DED25
:10630000000B7FB9102010F0B5FC0246CBF81C0042
:1063100020B9A74BEF21A74811F0CEF8C0E90177CB
:106320000760C760DBF81C30196859B15A6801234F
:10633000584693404A608B6011F074F9DBF81C30CA
:1063400000221A602B1EB7BF23F000430023012256
:106350000193A8BF3360019F974BB8BF3260BB4326
:1063600019D142F20F73129A1360C7F31303234338
:1063700000F0DB85219B53B9904B21E0904B0393B8
:106380000833219A1360039817B0BDE8F08F8B4B48
:1063900003930333F5E79DED007B0022002351ECCE
:1063A000170B8DED0A7B0EF0CFFE804650B1012316
:1063B000129A1360219B13B1824B219A1360824B76
:1063C0000393E0E7C7F30A5614AA15A958469DEDB2
:1063D0000A0B11F0AFFB0290002E76D00B9BA6F2B9
:1063E000FF36CDF84C80C3F3130343F07F53DDE950
:1063F0000A0143F4401319460022744B0EF084FA4C
:1064000065A3D3E900230EF037FC65A3D3E900238D
:106410000EF07CFA04460D4630460EF0C3FB62A334
:10642000D3E900230EF028FC02460B4620462946FD
:106430000EF06CFA04460D4628F03EFF0022074697
:106440000023204629460EF089FE40B138460EF062
:10645000A9FB22462B460EF077FE00B9013F162F0E
:1064600052D85B4B03EBC703DDE90A01D3E90023F4
:106470000EF074FE002849D0013F00231193149BB5
:106480009B1B5A1E4CBFC3F101030023079245BF5B
:106490000693002306930793002F39DB079B109781
:1064A0003B44079300230993089B092B66D8052BCF
:1064B000C5BF043B002401240893089B023B032B27
:1064C00067D8DFE803F02D3A3859DDE914631E443C
:1064D00006F23243202BC9BFC3F14003C3F12003AE
:1064E0009F4006F21243D8BF04FA03F006F1FF36CC
:1064F000C4BF24FA03F347EA03000EF043FB012272
:10650000A1F1F873139276E70123B7E71190B6E78C
:10651000069BDB1B06937B42099300231093C3E782
:1065200000230D930C9B002B56DC012399461A4641
:1065300004930C920CE00123F3E700230D930C9BD2
:10654000FB1803F1010904934B46012BB8BF01234B
:10655000DBF81C000021042202F114059D423FD902
:106560004160584611F01EF8039000283BD1194BAA
:10657000024640F2AF11CEE60123DFE701240023FB
:106580000D9408934FF0FF33002299460493122391
:10659000CFE701230D93F5E761436F63A787D23FF0
:1065A000B3C8608B288AC63FFB799F501344D33F02
:1065B00011140408281404080000F07F0D140408C6
:1065C00004140408E1130408E01304080000F83F71
:1065D00078160408811404080C9B99460493B7E7C5
:1065E00001315200B8E7DBF81C30B9F10E0F039A05
:1065F0001A606FD8002C6DD0002F36DD07F00F0227
:10660000A04BF8054FEA271403EBC20393ED007B80
:106610008DED0E7B17D59C4B04F00F044FF0030853
:10662000D3E90823DDE90A010EF050FCCDE90001B1
:10663000954D5CB9DDE90E23DDE900010EF046FC65
:10664000CDE900012BE04FF00208F1E7E10709D5A1
:1066500008F10108DDE90E01D5E900230EF00CFB7D
:10666000CDE90E0164100835E3E700F007817C42B4
:10667000844B854D4FF0020804F00F02241103EB08
:10668000C203DDE90A01D3E900230EF0F5FA002385
:10669000CDE90001002C40F0E580002BD0D1119B0A
:1066A000DDE90045002B00F04C810022774B2046AD
:1066B00029460EF053FD002800F04381B9F1000F88
:1066C00000F03F81049B002B00F3E480DDE90A34F5
:1066D000CDE90034159B002B02DB0E2F40F34282E4
:1066E0000D9A002A40F06782099C0025DDF8188089
:1066F000B8F1000F0DD0079B002B0ADD4345069A29
:10670000A8BF4346D21AA8EB03080692079AD31AE9
:106710000793099B0BB30D9B002B00F0A682002C66
:1067200000F0A18229462246584611F0A5F8029AA7
:1067300001460546584610F0F5FF029906465846B0
:1067400010F070FF099B1B1B099300F09182099ABE
:106750003146584611F090F802900121584610F049
:10676000CBFF109B0446002B00F084821A460146A2
:10677000584611F081F8089B0446012B03DC009B6E
:10678000002B00F07C820026236904EB8303186948
:106790002FF0D9FFC0F120001096079B184410F08D
:1067A0001F0000F09182C0F12003042B40F381828E
:1067B000C0F11C00069B034480440693079B0344DE
:1067C0000793069B002B05DD1A460299584611F0E7
:1067D000ADF80290079B002B05DD21461A4658466E
:1067E00011F0A4F80446119B002B00F0768221469C
:1067F00002982FF0F7FF002880F26F8200230A2210
:106800000299584610F030FF0D9B7E1E0290002B1F
:1068100000F05C82002329460A22584610F024FF2B
:10682000049B0546002B03DC089B022B00F35E82D1
:10683000B8F1000F05DD29464246584611F076F8BA
:106840000546109B002B00F0D0826968584610F076
:10685000A9FE0746002840F07F820D4B024640F219
:10686000EF2158E5E20706D508F10108D5E9002334
:106870000EF002FA0123641008350BE74FF002080E
:106880000DE700BF78160408501604080000F03F1A
:106890008114040820460022AC4B29460EF0ECF986
:1068A0007E1E08F10108049CCDE9000140460EF06F
:1068B00079F9DDE900230EF0DFF9A54B00220EF097
:1068C00025F8A1F15073CDE90E010F93002C3BD1B7
:1068D0000022A04BDDE900010EF016F802460B463F
:1068E000CDE90023DDE90E230EF056FC002840F030
:1068F0005781DDE90E2101F10043DDE900010EF0D1
:106900002DFC00283FF4E2AE002425460C9BDDF868
:106910000CA0DE434FF000082146584610F082FEDE
:10692000002D00F0A980B8F1000F05D0A84503D0D4
:106930004146584610F076FE2946584610F072FE41
:106940009AE03E464C46B1E7834B03EBC40353E960
:106950000201039B1C440D9B002B4AD002460B46B0
:1069600000207E490EF0B2FADDE90E230DF0CCFFD7
:10697000DDF80CA0CDE90E01DDE9000128F09CFC5A
:1069800005460EF00FF9024630350B46DDE90001F1
:106990000DF0BAFF0AF8015B02460B46CDE9000193
:1069A000DDE90E010EF0F8FB002865D100206C49EE
:1069B000DDE900230DF0A8FF02460B46DDE90E01DC
:1069C0000EF0EAFB002840F00D81A24500F0EA80BD
:1069D00000225E4BDDE90E010EF04EF900225B4B0A
:1069E000CDE90E01DDE900010EF046F9CDE9000127
:1069F000C2E7DDE90E230EF03FF9A046DDF80CA05A
:106A0000CDE90E01DDE9000128F056FC05460EF047
:106A1000C9F8024630350B46DDE900010DF074FF80
:106A20000AF8015B02460B46A245CDE900234FF070
:106A3000000223D1494BDDE90E010DF067FF02464C
:106A40000B46DDE900010EF0A7FB002840F0CA80EC
:106A500000204249DDE90E230DF056FF02460B46A9
:106A6000DDE900010EF07AFB70B1C24608F1FF3893
:106A70001AF8013C302BF8D0374655E0334B0EF076
:106A8000FBF8CDE90001BDE7DDE90A34CDE90034CA
:106A9000159B002BFFF628AE0E2F3FF725AE2E4B91
:106AA00003EBC70393ED007B0C9B002B8DED047B68
:106AB00002DAB9F1000F64D0DDF80CA0DDE9004581
:106AC000DDE90423204629460EF000FA28F0F4FB05
:106AD00006460EF067F8DDE904230EF0CDF8024615
:106AE000204606F130040B4629460DF00DFF0AF84A
:106AF000014B039C02460B46AAEB0404A14540F05F
:106B000082800DF003FF04460D46DDE904230EF0FC
:106B100043FB002865D120462946DDE904230EF019
:106B200013FB08B1F3075CD40299584610F07AFDC4
:106B3000002301378AF80030129B1F60219B002B35
:106B40003FF421ACC3F800A01DE400BF00002440C6
:106B500000001C4000001440781604080000E03FCC
:106B60000000F03FA24B03EBC70393ED007B0C9BAF
:106B7000002B8DED047B9FDAB9F1000F9CDC7FF4D4
:106B8000C3AE00229B4BDDE904010EF075F8DDE990
:106B900000230EF0F7FA044600287FF4B5AE3E4617
:106BA0002546B4E0DDE90A34CDE90034159B002B1D
:106BB00001DB0E2FD6DD089A012A36DC139A82B348
:106BC00003F23343099CDDF81880069A01215846E8
:106BD0001A440692079A1A44079210F08DFD054652
:106BE00086E53E4653469A4613F8012D392A06D1CA
:106BF000039A9A42F7D13022039901360A701A7823
:106C000001321A7038E700227B4B0EF035F8002273
:106C1000002304460D460EF097FA00283FF450AFCB
:106C200082E7149BC3F13603CCE709F1FF34099BDB
:106C3000A34208DBB9F1000FA3EB04040EDBDDF87F
:106C400018804B46C1E7099B109AE31A0994DDF8B6
:106C5000188000241A444B461092B6E7069BA3EB1B
:106C600009080023B1E7029E71E5099A029970E5CF
:106C7000029672E5089B012B17DC009BABB9019BC8
:106C8000C3F313039BB9019B23F00046360D360571
:106C900036B1069B012601330693079B0133079308
:106CA000109B002B7FF470AD1096012075E5002637
:106CB000F6E73FF486AD1C33069A1A4498440692D0
:106CC000079A1A4407927CE50346F4E7049B002BDD
:106CD0002BDC089B022B09DC27E0B9F1000F1DDC3F
:106CE000089B022B1ADD3E46CDF81090049B002B2A
:106CF0007FF40CAE21460522584610F0B5FC014643
:106D0000044602982FF06EFD00287FF7FFADDDF8F6
:106D10000CA0312301360AF8013BFBE50D9B3E46F2
:106D2000CDF81090002B7FF483AD039F214602988D
:106D30002FF041FA039B00F13009049A07F8019BF8
:106D4000FB1A9A4240F3CB8000230A22029958464C
:106D500010F08AFC0290E9E72A6905F10C010C3079
:106D6000023292002FF0A2F901223946584610F063
:106D7000DDFD039BA846054603F1010ADDE9032377
:106D800013440793009B03F0010309930AF1FF33B7
:106D90002146029804932FF00EFA4146069000F126
:106DA000300902982FF01EFD2A4621460746584614
:106DB00010F028FEC268014602B3584610F032FCBB
:106DC000002F3ADA01220299584610F0AFFD214611
:106DD00002902FF007FD002803DC29D119F0010FE4
:106DE00026D0B9F1390F1DD132E02846C1E700BFE6
:106DF0007816040800001440000024400A9002980D
:106E00002FF0F0FC0A990C90584610F00BFC0C9AED
:106E10005ABB089B53B9099B43B9B9F1390F17D035
:106E2000002F05DD069B03F1310901E0002F2ADA6E
:106E3000DDF810A00AF8019B6EE5089B3B4304D1E6
:106E4000009B03F00103002BBCD0B9F1390F36D100
:106E5000049F392307F8013BBA46013F1AF8013C69
:106E6000392B5AD001333B7056E5002F06DB089BC7
:106E70003B4306D1009B03F0010313B9002AA1DCB8
:106E8000D6E7002AE1DC079B57460AF8019C5345E8
:106E90002ED000230A220299584610F0E5FBA8459F
:106EA00002904FF000034FF00A02414658460BD1C2
:106EB00010F0DAFB804605460AF1010A66E7DDF8C4
:106EC00010A009F10109B5E710F0CEFB2946804674
:106ED00000230A22584610F0C7FB0546ECE7049B46
:106EE0004FF00008002BCCBF1F460127039B1F4417
:106EF00001220299584610F019FD214602902FF008
:106F000071FC0028A8DC02D119F0010FA4D1BA4607
:106F100017F8013D302BFAD0FEE4039BBB429BD116
:106F20003123039A01361370F6E4219B002B7FF482
:106F300025AA014BFFF744BA04140408000000001E
:106F4000002370B5404C05468AB0E36318B1008851
:106F5000236016F04FFA3D4836F057FF3C4E3D4B4C
:106F6000304633603C4B736032F0E8F90021304624
:106F700021F0CCFB32A3D3E90023A062C4E90623AD
:106F800032F0E7F9D4E9062319431043C4E90601B6
:106F9000CDE900014FF0FF334FF0FF32A06A36F029
:106FA00081FF02224FF0FF31A06A36F080FF0120FE
:106FB00015F0A2FF4FF4007300222849A06A36F0B2
:106FC000C7FFB0F5007F38D100239422CDE9073305
:106FD00009933C23CDE9033205939623A06A03A9C4
:106FE000069321F0B1FC35B3287C16F0BBFB0546B7
:106FF000F0B9A06A37F08AF816F062FB15F05EFF70
:1070000020B14FF48070002112F074FF15F066FF7C
:1070100020B14FF40060002112F06CFF32F05CFAF6
:10702000012021F0C7FB0E4A0E49A06A32F084F914
:1070300028460AB070BDFF20D7E70725F8E700BF54
:107040000DD5015520000000B8110020690345EC62
:10705000DC6500207DCD0108EC650020DC630020AC
:10706000E1920308219303080348044B834202D0B2
:10707000034B03B118477047481100204811002006
:1070800000000000064B0749C91A891048BF0131AA
:10709000491003D0044B0BB101481847704700BF9B
:1070A00048110020481100200000000010B5064CD7
:1070B000237843B9FFF7D8FF044B13B10448AFF36B
:1070C00000800123237010BDBA6C00200000000076
:1070D000105C040808B5054B1BB105490548AFF322
:1070E0000080BDE80840FFF7CDBF00BF00000000F2
:1070F00028140020105C0408A3F5803A704700BFF4
:10710000174B002B08BF134B9D46FFF7F5FF0021DF
:107110008B460F461348144A121A2FF021F90E4BD2
:10712000002B00D098470D4B002B00D09847002033
:10713000002104000D000D48002802D00C48AFF3D8
:1071400000800FF009FA2000290001F0BBFD0FF0CC
:10715000E9F900BF00000800000000000000000086
:10716000C00A002048110020C88F00200000000045
:10717000000000004FF4007208B5044904482EF0E6
:1071800095FF0122034B1A7008BD00BF5416002062
:1071900054140020BE6C002073B5574D574E2B7809
:1071A000002B54D0304618F0F1FF044610B3544D74
:1071B000544928682CF00BF8534928682CF007F83C
:1071C0002AF075FB2AF074FB504B514A0093514949
:1071D0008A2328682BF0FBFF4F4923464F4A286833
:1071E0002BF0F5FF204601F0DFFE4D4928682BF01B
:1071F000EEFFFEE7A022009003461146307818F01B
:10720000DDFF044610B33E4D3E4928682BF0DFFFFA
:107210003D4928682BF0DBFF2AF049FB2AF048FBA8
:107220003A4B3B4A00933B49932328682BF0CFFF0E
:1072300039492346394A28682BF0C9FF204601F016
:10724000B3FE374928682BF0C2FFFEE72870022101
:10725000307818F0D5FF054610B3294C294920682D
:107260002BF0B5FF284920682BF0B1FF2AF01FFB57
:107270002AF01EFB254B264A009326499A232068B4
:107280002BF0A5FF24492B46244A20682BF09FFFB2
:10729000284601F089FE224920682BF098FFFEE77E
:1072A0000221307818F0C0FF054610B3144C154980
:1072B00020682BF08CFF144920682BF088FF2AF0FF
:1072C000F6FA2AF0F5FA114B114A009311499E2360
:1072D00020682BF07CFF10492B46104A20682BF0C9
:1072E00076FF284601F060FE0D4920682BF06FFF05
:1072F000FEE702B070BD00BF400F0020410F00202C
:1073000030410020FDF9030840F203087CF2030835
:1073100045F2030870F2030895F2030892F203089D
:10732000AAF20308F0B50368974A23F47F4323F0D9
:107330000703934204469BB000F029820AD8A2F5C5
:107340001022934221D002F5A022934200F0158230
:107350001BB0F0BD8D4A934200F0118202F1017220
:107360009342F5D18A4BB0F805201B889A42EFD1A1
:107370000389884D13F0010400F02E828649874866
:1073800029F0CFFF01232B70E2E7854C8549834824
:1073900029F0C7FF204618F05BFF054610B3824C6A
:1073A000824920682BF013FF814920682BF00FFFE2
:1073B0002AF07DFA2AF07CFA7E4B7F4A00937F49BF
:1073C000A92320682BF003FF7D492B467D4A2068C6
:1073D0002BF0FDFE284601F0E7FD7B4920682BF0ED
:1073E000F6FEFEE74FF4C053784EADF830300CABEC
:1073F00000930196014602230122208818F040FFE5
:10740000054610B3684C694920682BF0E0FE6849D6
:1074100020682BF0DCFE2AF04AFA2AF049FA654B84
:10742000654A00936549B32320682BF0D0FE644978
:107430002B46644A20682BF0CAFE284601F0B4FDB2
:10744000614920682BF0C3FEFEE7614B0090069374
:10745000604B022205931023CDE9033301230293ED
:107460004FF42853ADF8043031880346208818F0D3
:1074700031FF054610B34C4C4C4920682BF0A7FE59
:107480004B4920682BF0A3FE2AF011FA2AF010FADB
:10749000484B494A00934949C32320682BF097FE83
:1074A00047492B46474A20682BF091FE284601F0B9
:1074B0007BFD454920682BF08AFEFEE73188208855
:1074C00018F082FF054610B3374C384920682BF07E
:1074D0007EFE374920682BF07AFE2AF0E8F92AF080
:1074E000E7F9344B344A00933449C72320682BF022
:1074F0006EFE33492B46334A20682BF068FE28463F
:1075000001F052FD304920682BF061FEFEE70EAA23
:107510001746314B03F110061546186859680833B1
:1075200003C5B3422A46F7D12C4E1023CDE900768D
:1075300001220021208818F0A3FE054600284FD024
:10754000194C1A4920682BF042FE194920682BF08B
:107550003EFE2AF0ACF92AF0ABF9164B164A00931E
:107560001649D42320682BF032FE15492B46154AC4
:1075700020682BF02CFE284601F016FD12492068E9
:107580002BF025FEFEE700BFA0000A00A0000601C8
:10759000566C0020BF6C00207DF30308201E0020E5
:1075A000606C0020BBF2030830410020FDF90308A5
:1075B00040F20308CCF2030845F2030870F2030816
:1075C00095F2030892F20308AAF203085E6C002009
:1075D0005C6C002051F6030862F603085A6C002028
:1075E00012AD2A467F4B03F1100C2F4618685968DC
:1075F000083303C763453D46F7D17B4B002709930A
:107600000DF12E0308930123CDE90633059301AD57
:107610000FCA8DF82E7085E80F0000973B460A22AE
:107620003188208818F090FE3188208818F0CCFE30
:10763000074610B36D4C6E4920682BF0C8FD6D49AC
:1076400020682BF0C4FD2AF032F92AF031F96A4B98
:107650006A4A00936A49EA2320682BF0B8FD694919
:107660003B46694A20682BF0B2FD384601F09CFC8D
:10767000664920682BF0ABFDFEE716AF3A46644B37
:1076800003F1100EBC46186859680833ACE80300D3
:1076900073456746F6D15F4B002709930DF12F0321
:1076A00008930123CDE9063305930FCA8DF82F7097
:1076B00085E80F0000973B4612223188208818F099
:1076C00043FE3188208818F07FFE054618B3474CEA
:1076D000474920682BF07BFD464920682BF077FD59
:1076E0002AF0E5F82AF0E4F8434B444A0093444971
:1076F0004FF4807320682BF06AFD42492B46424AC2
:1077000020682BF064FD284601F04EFC3F492068BC
:107710002BF05DFDFEE7208818F06AFE054618B3E1
:10772000324C334920682BF052FD324920682BF04F
:107730004EFD2AF0BCF82AF0BBF82F4B2F4A0093DD
:107740002F494FF4827320682BF041FD2D492B46C1
:107750002D4A20682BF03BFD284601F025FC2B49E3
:1077600020682BF034FDFEE7FFF716FD2A492B4871
:107770001BB0BDE8F04029F0D4BD2949F7E72949FD
:10778000264829F0CEFDFFF707FD2749EFE7164B06
:10779000B0F805201B889A427FF4DAAD23491F48D0
:1077A00029F0BFFDA37A002B3FF4D2ADE37A2BB9C9
:1077B000012114202AF06FF81D49D8E7012B7FF42E
:1077C000C7AD1C49154829F0ACFD002114201BB0A1
:1077D000BDE8F0402AF05FB81749104829F0A1FD34
:1077E0002C70B5E572F60308586C0020304100207B
:1077F000FDF9030840F20308CCF2030845F2030840
:1078000070F2030895F2030892F20308AAF2030843
:1078100082F60308566C0020E3F20308201E0020C5
:10782000FDF2030813F3030829F3030845F30308E3
:107830006EF3030876F3030899F303081FB50C4BA6
:107840001B788BB10B4A01AB1068516803C3906879
:107850000C211860084B01AA188818F0DBFD18B934
:107860000649074829F05DFD05B05DF804FB00BF3F
:10787000BF6C0020C9F30308566C0020B6F3030860
:10788000201E002008B50121672029F0CAFF6720CB
:10789000012101F043FB064828F081FF28B105498A
:1078A0000548BDE8084029F03CBD0449F8E700BFA1
:1078B000306C0020D5F30308201E0020E2F30308FB
:1078C000F8B5514E514C3368772B28D1204628F01B
:1078D000C1FE4F4F204687ED000A28F0DAFE4D4DDD
:1078E000204685ED000A28F0F3FED7ED007A95EDED
:1078F000007AF0EEE77AB0EEC77A474B77EE877AF8
:1079000083ED000AB0EEC00AB0EE047A77EE807A1A
:10791000F4EEC77AF1EE10FAD5DB002333603B4D6D
:107920003E4C3368762B00DDF8BD013328463360CA
:1079300028F090FE10EE100A0DF046F941EC100B05
:107940000321204629F04AFD2C21204629F0DCFCA9
:10795000284628F09EFE10EE100A0DF035F941EC95
:10796000100B0321204629F039FD2C21204629F057
:10797000CBFC284628F0ACFE10EE100A0DF024F9DE
:1079800041EC100B0321204629F028FD2C21204634
:1079900029F0BAFC284628F0BAFE10EE100A0DF0C5
:1079A00013F941EC100B0321204629F017FD2C217F
:1079B000204629F0A9FC284628F0C8FE10EE100A3F
:1079C0000DF002F941EC100B0321204629F006FDD1
:1079D0002C21204629F098FC284628F0D6FE10EEEF
:1079E000100A0DF0F1F841EC100B0321204629F0AC
:1079F000F5FC204601F054F83368772B91D1074805
:107A000001F04EF88DE700BFC40A0020306C002062
:107A10005C1800205818002054180020201E002058
:107A200038B50A4D0A4C802228460A4929F0BDF98A
:107A30002046094929F075FC2846084929F0CBF968
:107A40002046BDE83840064929F06BBC44140020AC
:107A5000201E002054160020F4F30308757100085E
:107A60000EF4030837B51A4C1A4D204600F0D0FC2E
:107A700020468022184900F0D1FCFCEEC07A17EEB7
:107A8000903AB3F5617F28BF4FF4617340F2DF2174
:107A900028684FF461728B422CBFC0184018FF2336
:107AA000400828600093002329F053FBC0F1FF0138
:107AB000142029F0AAFE29680A22084829F084FC2B
:107AC0002046074903B0BDE8304029F084B900BF23
:107AD000441400204014002054140020201E0020D4
:107AE00075710008034B1A781AB100221A70FFF75B
:107AF000B9BF7047BE6C002010B50A480A4C00F0B0
:107B0000F3F96A220021094828F05CFD5A225B2122
:107B1000204629F043F92046BDE81040044A0549B3
:107B20002DF0CABE6018002044140020306C0020E4
:107B3000C00A0020A90D03082DE9F341464C47492E
:107B4000474829F0EEFB474F204640F21342464992
:107B500029F021FA454942487C61022629F0E1FBDF
:107B6000434CDFF844813E4D384614F8011B28F0A1
:107B70006DFA013063D04146284629F0C1FB14F864
:107B8000011C0A22284629F01DFC2846394929F003
:107B9000C8FB012E51D13849314829F0C2FB374981
:107BA0002F4829F0BEFB4FF48063354C354E364DDF
:107BB00023806380022223462D492A48019600959E
:107BC00028F0CDFB4FF4FA6029F01BFE2F49244822
:107BD00029F0A7FB4FF440630222238063802449ED
:107BE0002346CDE900561F4828F0B9FB4FF4FA6050
:107BF00029F007FE26491A4829F093FB4FF4006349
:107C00000222238063801A492346CDE90056154895
:107C100028F0A5FB40F2DC5029F0F3FD1D49104887
:107C200029F07FFB1C490E4829F07BFB1B490C48BF
:107C300002B0BDE8F04129F074BB012694E7184971
:107C4000074829F05DFB14F8011C0A22044829F0BA
:107C5000B9FB144902489AE70C1D002022F40308DE
:107C6000201E00206018002040420F0046F4030848
:107C70003E0F00206AF40308A3F40308CDF40308C0
:107C8000200F00203C0F0020240F0020E8F4030800
:107C900003F503082AF503084BF5030883F50308E9
:107CA00079F403088FF4030880F4030810B54A48F8
:107CB00088B029F000FA002860D002A8464900F0F8
:107CC000B1FF02A829F041FC444905A829F0E5FBD1
:107CD00005A902A829F030FC044605A829F095FB67
:107CE000A4B13F493C4829F01CFB3E4A1388A3F548
:107CF00000731BB223EAE37313805388A3F5007368
:107D00001BB2002B3CDA0023538023E0364905A840
:107D100029F0C3FB05A902A829F00EFC044605A81A
:107D200029F073FBDCB131492B4829F0FAFA40F60F
:107D3000FF712C4A138803F500731BB28B42A8BF56
:107D40000B461380538803F500731BB2B3F5805FB5
:107D500016DB51802649204829F0D2FA12E0254945
:107D60001D4829F0CDFA1C4802A929F0C4FA22497D
:107D7000194829F0D6FA02A829F047FB08B010BD2F
:107D8000184AC1E7174C0A22B4F90010124829F02A
:107D90000AFB1A49104829F0B3FA0A22B4F9021072
:107DA0000D4829F000FB16490B4829F0BAFA154B8B
:107DB00002220193144B154900931548234628F0DD
:107DC000CEFAD8E705A829F020FB02A829F01DFB70
:107DD0002DF0E4FDF6E7F8E7201E0020A7F50308E4
:107DE000A9F50308200F00204A0F0408D2F5030864
:107DF0002AF60308FBF503080EF603084CF6030801
:107E00004FF603083C0F0020240F00203E0F0020F7
:107E10006018002008B5FFF711FDFFF747FF064B7C
:107E20001B780BB1FFF74CFD044B1B781BB1BDE871
:107E30000840FFF757BE08BDBC6C0020BB6C00209B
:107E400008B54FF4E1310F4829F0D0F84FF4FA604B
:107E500029F0D7FC0121142029F006FD0A4B1B78DC
:107E60000BB1FFF70FFD094B1B780BB127F072FF29
:107E7000074B1B780BB1FFF7D3FDBDE80840FFF7B8
:107E80005BBE00BF201E0020BC6C0020BD6C00202B
:107E9000BB6C00200222014B5A6170470060065003
:107EA0004FF0FF320021034BC3E9001203221A7284
:107EB000704700BF8C180020034A02600122027143
:107EC00000228271704700BFA8F6030810B504466F
:107ED000FFF7F2FF034B6422236000232046C4E92E
:107EE000042310BDDCF6030810B50446FFF7EEFFCF
:107EF000024B204623600023637110BD14F7030872
:107F0000D0B5C48807EE901AF52C18BF7D23F8EE83
:107F1000E77A18BFB4FBF3F417EE900A0CBF022403
:107F2000E4B20CF051FE00220B4B0CF0A5FE06460D
:107F300020460F460CF036FE02460B4630463946C8
:107F40000CF09AFE0022054B0CF0C0FF0DF064F916
:107F500000EE100AD0BD00BF0080114000408F40ED
:107F60002DE9F8431E46037807460C4615462BB10B
:107F7000012B24D000252846BDE8F883417823480A
:107F800028F0A6FD2946214828F00BFD1F4828F0BF
:107F900009FB002837D1324679781C4828F00AFEC0
:107FA0001A4D2644284628F01FFD0028E2D0B4428E
:107FB000E0D0284628F0A9FD04F8010BF2E70021E3
:107FC000807829F068FC45F08001114828F030FFE6
:107FD0000025DFF83C8004EB06094C4508D101215F
:107FE000B878B5420CBF0525002529F054FCC2E73E
:107FF0000021404628F01CFFFF2804BF0135EDB2E8
:1080000004F8010BE9E70125B5E700BF9818002047
:108010002C1C0020F8B5047805460F46164634B1EE
:10802000012C23D0002634463C703046F8BD417800
:108030001A4828F04DFD3146184828F0B2FC174880
:1080400028F0B0FA6978061E4FF00102134818BFF5
:10805000012628F0AFFD114D284628F0C5FC002868
:10806000E2D0284628F051FDC4B2F5E7002180781F
:1080700029F011FC46F08001094828F0D9FE0021C2
:10808000074828F0D5FE04460121A87829F003FC12
:10809000FF2C14BF00260526C6E700BF9818002055
:1080A0002C1C002037B504460121672029F0B9FBBC
:1080B0000121672000F032FF0A2029F0A2FB257879
:1080C000FDB1012D21D000238DF8063042F210734E
:1080D0009DF80620013B0132D2B29BB28DF80620FA
:1080E000002BF5D10F2220460DF10701FFF792FF7B
:1080F0009DF807006938012894BF0020012003B0D3
:1081000030BD0A4828F0DBFCDDE7094828F0ACFE6A
:108110002946074828F0CDFE2946A07829F0A4FB7F
:108120002946A07829F0B7FBCDE700BF98180020BA
:108130002C1C0020F8B5077804460E4615461FB1E2
:10814000012F14D00020F8BD4178114828F0C0FC60
:1081500031460F4828F025FC29460D4828F021FC1F
:108160000B4828F01FFA003818BF0120EBE7002168
:10817000807829F090FB3146064828F059FE2946C0
:10818000044828F055FE3946A07829F084FBD9E749
:10819000981800202C1C0020F0B5067C044685B001
:1081A000002E74D102236D4603743A4B80F8A4105C
:1081B0000FCB85E80F0001230B22D4F8581194F857
:1081C00055018DF8016003F07FFE01230B22D4F8E6
:1081D000601194F85C0103F077FE94F85431D4F800
:1081E00060011B0103F1A04303F57033D3F8F014D1
:1081F00094F85C21284E42EA004231400A43C3F819
:10820000F02494F85411254AD4F8587102EB011166
:10821000D1F8EC0494F85531304043EA0743034366
:10822000C1F8EC3494F85431D4F8500102EB031245
:108230000323C2F8E8341A4B012198420CBF2F20C7
:108240002E2002F00FFD2946D4F8500103F0B8FEAD
:1082500094F8A420D4F85031124902F0FE02DA61F9
:1082600003F50052D163104903F58052B3F1B64FC4
:10827000116403D14FF000620C4B1A60D4F8502106
:10828000074B9A4203D14FF08052084B1A6005B059
:10829000F0BD00BF28F80308FCFFF0FF00C003504A
:1082A00000800650FFFF1F006406010000E100E0AF
:1082B0002DE9F84300251F464FF47A734026044603
:1082C00089469046C0E90153224B32462946C0E90F
:1082D000265503600582A0F8945080F89650C0F8A7
:1082E000A050A0F8A450A8302EF03AF8089BC4F88B
:1082F000E850C4F858319DF82430324684F85C3197
:108300000A9B2946C4F860310B9BC4F8EC50C4F8B2
:108310006431C4E93D55C4F8F050C4F8FC50C4F8C9
:10832000509184F8548184F8557104F153002EF073
:1083300017F83246294604F113002EF011F804F51F
:10834000807101202BF04AFDC4F8FC002046BDE8F6
:10835000F88300BFE0F70308094808B5D0F85031AA
:10836000B3F1B64F01D128F0ABFC0648D0F850313C
:10837000B3F1B64F03D1BDE8084028F0A1BC08BD59
:10838000001A002098180020094810B5D0F8503184
:10839000084CA34201D128F093FC0748D0F8503193
:1083A000A34203D1BDE8104028F08ABC10BD00BF35
:1083B000001A002000800650981800201FB50F4BAF
:1083C00002241B68012203930423CDE90143052302
:1083D0000B4900930B482346FFF76AFF0A4B032221
:1083E0001B684FF0B641CDE9024301230748CDE9B0
:1083F00000230022FFF75CFF04B010BDCC0A002070
:1084000000800650001A0020C80A0020981800209A
:10841000014828F092BE00BF341F002099B19FEDA3
:108420000B7A01EB8203994206D107EE902AF8EE0F
:10843000E77A87EE270A7047F1EC017AF8EE677A5F
:1084400037EE277AEFE79FED010A70470000000042
:1084500038B504460B480C4D20600020C4E90412D6
:108460002071A081A36104F12001A56001202BF0FF
:10847000B5FC04F17401E06101202BF0AFFC206732
:10848000204638BD84F8030840420F0013460A46D0
:108490000146014828F04ABD2C1C002013460A461C
:1084A0000146014828F042BD681B002070B50F4905
:1084B0000F4C104E104D114B2046114A0968FFF722
:1084C000C7FF3246294620462DF0F6F90D4C0E49DD
:1084D00020460E4A09680E4BFFF7BAFF324629467E
:1084E0002046BDE870402DF0E7B900BF5C0C0020CD
:1084F0002C1C0020C00A00200D0E03088D840008EB
:10850000F00A0020681B0020580C0020D00A002030
:108510009D840008002302461946014804F080BCEF
:1085200000C0055010B500240E4B186828F010FD4F
:108530000D4B2046C3F820470122C3F838470821D5
:10854000C3F83047C3F82847C3F82C47234603F045
:10855000BBFC23462046BDE810400122092103F060
:10856000B3BC00BFF81C002000C00350024600212D
:10857000014803F049BA00BF00000A5010B50024BA
:108580000E4B186828F0E4FC0D4B0122C3F8B444EC
:108590000621C3F8CC440220C3F8C444C3F8BC4449
:1085A000C3F8C044234603F08FFC2346BDE81040C7
:1085B00001220721022003F087BC00BFF01C00202D
:1085C00000C00350084B1A68084B1A60084B1A6821
:1085D000084B1A60084B1A68084B1A60084B1A6857
:1085E000084B1A60704700BF440C0020FC1C0020A0
:1085F000540C0020F81C0020300C0020F41C00203B
:10860000400C0020F01C002000230448044A0549C7
:10861000C0E9000083602DF04FB900BF001D0020AD
:10862000C00A0020810F03082DE9F041002598467B
:108630004FF47A73C0E90153184B04460F461646AF
:108640002946802240F8103B2DF08AFE4FF4E1339A
:10865000C4F89050C4F80C31C4F89450C4F89C503D
:10866000C4F8985084F8085184F8105104F1A0011E
:1086700001202BF0B3FB069BC4F89C00C4F8F43037
:10868000079B2046C4F8F830089BC4E94076C4F83C
:10869000F080C4F8FC30BDE8F08100BF0CF903089D
:1086A0001FB50F4B0F4A02930F4B10490193104B0C
:1086B000104800931268104B0968FFF7B5FF0F4B85
:1086C0000F4A02930F4B10490193104B104800932F
:1086D0001268104B0968FFF7A7FF05B05DF804FBAF
:1086E000BB0F0308F81C002025850008FC1C002097
:1086F000670F0308201E0020158500082B100308B3
:10870000F01C00207D850008F41C00206B0F03087E
:108710000C1D00206D8500082DE9F0430F46A7B021
:10872000634D0021804608AC3846914629F079F81F
:108730000FCD0FC40FCD0FC495E8030000264FF4F2
:10874000403384E8030001244F2231460DF14900F3
:108750000393CDE905660796ADF810608DF81260B9
:108760002DF0FEFD21462A208DF848408DF84D4021
:108770008DF852408DF857408DF85C408DF861407F
:108780008DF866408DF86B408DF870408DF875401F
:108790008DF87A408DF87F408DF884408DF88940BF
:1087A0008DF88E408DF8934002F05CFA21463A2015
:1087B00002F058FA21463F4C3B2002F053FA324671
:1087C00020463D498DF8176003F072FEB9F1030FA2
:1087D0008DF8190048D8394B394A33F8193012F856
:1087E00009200B93022337498DF824208DF823307C
:1087F00032463346009020468DF8216003F072FE29
:108800000A90204603F0D4FDA36823B9204608AAA5
:1088100005A903F0A3FE4FF480730122ADF80E30DA
:10882000294B244C3B4413F8323C8DF811208DF831
:108830004C20204612AA03A98DF8493003F056FDBA
:10884000A36A512F43F48073A36207F001021F4B08
:1088500012D962B9D3F8282342F00102C3F82823C1
:108860004FF48073A8F8003027B0BDE8F083D3F848
:10887000282342F48032F1E7412F0CD932B9D3F8E2
:10888000242342F00102C3F82423E9E7D3F8242388
:1088900042F48032F7E732B9D3F8202342F00102E4
:1088A000C3F82023DCE7D3F8202342F48032F7E733
:1088B00084F9030800400059002D310138F90308FC
:1088C00040F903088096980044F9030800C003505B
:1088D0002DE9F041437805460F46144686B0002B3B
:1088E00034D001F00DFA002105F11C0001F090F9DF
:1088F000064668BB4FF4202305F10C080146102200
:10890000CDE903000590404602932DF029FD631E3A
:10891000E968104AC3F30A031B010A4043F03163BC
:108920001343EB600C4B4246C5E904372B7E02A98A
:1089300023F0030343F003032B760096074BE8690B
:1089400001F012FA304606B0BDE8F0811126F9E7D1
:108950000126F7E70F80EFF0844000591D8A0008D8
:1089600010B50446C06901F065FAE06901F0A2F9AA
:10897000044803F01DFD002323804FF0FF336360A4
:1089800010BD00BF004000592DE9F04104460D46DE
:10899000806A4FF0FF311F461646DDF818802BF035
:1089A00020FB6378A3B163689D4216D1A3781BB303
:1089B000E06901F01FFA00230546A3700822164B58
:1089C000A06ADA6000231A4619462BF08CF91FE0E2
:1089D000237813B163689D4210D029462046227A3D
:1089E0006560C4F82480FFF797FE3A46314620467A
:1089F000FFF76EFF0546E1E723781BB12046FFF73E
:108A0000AFFFEAE71A461946A06A2BF06CF9012578
:108A10002846BDE8F08100BF0040005908B5024873
:108A200028F093FB002008BD341F0020014828F0E7
:108A300070BB00BF341F002010B50446044B017505
:108A400003601022002104302DF08AFC204610BD66
:108A5000F8F9030830B5074D8374056000259DF8CB
:108A60000C30057545608560C56001744274C3743F
:108A700030BD00BFF8F9030807B501210648FFF72C
:108A8000DBFF002305481A4619460093FFF7E2FF73
:108A900003B05DF804FB00BFC81F0020B01F00201A
:108AA00008B5024928F017FC08BD00BFFCF903080F
:108AB0002DE9F84F55EC104B0E1E074622462B466B
:108AC00020462946B8BF02260CF070FB38B14C494D
:108AD000384628F000FC80464046BDE8F88F25F077
:108AE00000494FF0FF3220464946464B0CF05EFBF2
:108AF00048B94FF0FF3220464946424B0CF038FB54
:108B000008B94149E4E74FF06042204629463F4B0F
:108B10000CF042FB08B13E49DAE74FF060422046D4
:108B200029463C4B0CF01AFB0028F4D1002200230C
:108B3000204629460CF012FB00285AD02D21384639
:108B400028F0E2FB05F1004382461D464FF0000B82
:108B500000204FF000083049DFF8C4905FFA8BF333
:108B6000B3420BF1010B46DB02460B462046294679
:108B70000BF0CCFE0D4604460CF02EFB80460CF0AC
:108B800001F802460B46204629460BF0BDFE0A229C
:108B900004460D463846414628F0C5FB0AEB00085E
:108BA00026B138461D4928F096FB80444FF0000A54
:108BB000DFF86CB0013E8FD35B4652462046294613
:108BC0000CF05AF80D4604460CF006FB0A2201464A
:108BD0008146384628F0A7FB804448460BF0D2FF78
:108BE00002460B46204629460BF08EFE04460D46F3
:108BF000E0E78246AAE742464B460CF067F9ADE74C
:108C0000FFF90308FFFFEF7F03FA0308FFFFEF41BF
:108C100007FA0308FFFFEFC10000E03F28F6030852
:108C20000000244038B50D460A49044628F035FCBA
:108C3000284628F0D5FB04E0C1B2204628F05BFCB2
:108C4000F6E70028F8DA204638BD204628F0DDFB9C
:108C50002CF0A4FEFEF9030810B507494323422275
:108C6000064828F09AFCBDE81040452344220448F9
:108C700001F5804128F091BC0040025908200020F5
:108C8000E01F002038B5FFF7DBF8094D094CFFF76E
:108C9000C1F8284628F0CAF9284628F02EFA2046BE
:108CA00028F0C4F9204628F028FA2AF0C3FEEEE79F
:108CB000201E00200C1D0020014B1878704700BFBB
:108CC000C06C00201FB503F0FBFF01241D4B186092
:108CD00029F0AFF828F050F91B4B1C7027F050F822
:108CE0001A4B4FF400620293194B1A49CDE9004325
:108CF000194800232BF0D4FAF0B9184C1849206811
:108D00002AF065FA174920682AF061FA28F0CFFDA9
:108D100028F0CEFD144B154A009315493E232068D8
:108D20002AF055FA1349144A20682AF050FA1349D8
:108D300020682AF04CFAFEE72AF0B2FD002004B0C9
:108D400010BD00BF30200020C06C00203420002067
:108D50009420002024FA0308858C0008304100206C
:108D6000FDF9030840F2030888FA030831FA030802
:108D700070F20308A9FA03088DFA0308C1FA030880
:108D8000A0F13203402B10B5044608D928F0F6F8BC
:108D9000A04292BF4FF0FF34024B53F824402046CC
:108DA00010BD00BF100B002038B54FF48073038155
:108DB000082380F86430FF23002283664FF47A731F
:108DC00004460360C2600266027100F16C0300F1A8
:108DD000AC0172200C4D10338B4207D104F110010D
:108DE00001202AF0FBFFE060204638BD43F8100C5C
:108DF00043F8085C03F8042C03F8032C03F8022C56
:108E000003F8012CE7E700BF008004500148FFF79A
:108E1000CBBF00BF9440002010B5044603F0F2F829
:108E2000B4F1B64F2AD100221C4BC3F8E824C3F892
:108E3000EC24C3F8F0244FF00062194BC3F88020F3
:108E4000BFF34F8FBFF36F8F002301220521022054
:108E500003F03AF8002301220421022003F034F841
:108E6000012200231046032103F02EF8BDE8104034
:108E7000012200230221104603F026B8094B9C4230
:108E8000E2D10022A3F53033C3F8F824C3F8FC2460
:108E9000C3F800254FF08052014BCFE700C00350CC
:108EA00000E100E00080065007B54BB10093134687
:108EB0000A4601460548FFF767FD03B05DF804FB6D
:108EC000024803B05DF804EB28F037B9341F0020E6
:108ED0000A460146014828F02BBC00BF9440002000
:108EE00038B50446FFF7E8FE90B1712C11D8204642
:108EF00028F064FB0546204628F06DFB1422302341
:108F000013FB0523044A9B5823FA00F000F00100EC
:108F100038BD0020FCE700BF30C0035070B50446E8
:108F20000E46FFF7C9FE90B1712C10D8204628F0EC
:108F300045FB0546204628F04EFB01223021064B1A
:108F4000824001FB05331EB903F501531A6070BD61
:108F500003F58253FAE700BF00C00350012208B5B1
:108F6000074B1A700022074B1A700422064B1A7026
:108F70001F22064B1A7006F0E7FB054B186008BD70
:108F8000440F0020C16C0020430F0020420F00203E
:108F900030410020024B034918682AF018B900BF7D
:108FA00030410020DEFA030870B50C4C0C4906462F
:108FB00020682AF00CF906F0C7FB0546206806F089
:108FC00099FB3046FFF7E6FF284606F093FB206842
:108FD0000449BDE870402AF0FAB800BF30410020D3
:108FE000E0FA0308E2FA03082DE9F043434D89B0A3
:108FF00001AC0FCD0FC495E80700012584E80700F8
:1090000001213A2001F02EFE3D4F0121292001F0DF
:1090100029FE3C4B384601A903938DF8125003F00A
:10902000B1FF2B4629460422022002F04DFF022107
:109030002A460846002302F047FF2B46042203215C
:10904000022002F041FF04222B461146022002F0CA
:109050003BFF2D4C2D4B1026C4F834374FF0021334
:10906000C4F83037A3F58033C4F838371C2304F52F
:109070000059C4F820374FF4487008F0D5F904F5CA
:1090800080581420C9F8A06008F0CEF92320C8F851
