:020000040800F2
:10600000C00A0020FDA40008995003089950030815
:10601000EF6D03089950030899500308995003083D
:1060200099500308995003089950030861620008C9
:106030009950030864330408F1610008757003087F
:1060400009A40008995003089950030899500308BF
:106050009950030899500308995003089950030870
:1060600099500308F1540108958F030899500308CB
:10607000995003085D540108918F03089950030853
:1060800099500308150E0308995003089950030806
:106090009950030801AF000899500308995003086C
:1060A0009950030801B00008DDAF0008758B0008A7
:1060B000C18B0008C9F602084D010308291E040817
:1060C000251E0408F5F80208351E04082D1E0408D4
:1060D00025010308311E04088D010308F901030896
:1060E00099500308995003089950030899500308E0
:1060F000156803089950030899500308995003083C
:1061000099500308995003089950030899500308BF
:1061100099500308995003089950030899500308AF
:10612000995003089950030899500308995003089F
:10613000995003089950030899500308995003088F
:1061400099500308A9E4000899500308FD6E03085C
:10615000C1DF020899500308891A04088F1A04083D
:10616000995003089950030899500308995003085F
:10617000013800D0FCE7704700000000000000007C
:106180000B4A1168086806C881F30B88022181F365
:106190001488203080F30988BFF36F8F4FF0000020
:1061A00080F31188104700BFAFF30080AFF3008089
:1061B000545A002000000000000000000000000011
:1061C00007480068006880F3088862B661B6BFF3CC
:1061D0004F8FBFF36F8F02DF00BF00BFAFF30080B0
:1061E00008ED00E0000000000000000000000000DA
:1061F000EFF309801EF0100F08BF20ED108AEFF3B7
:106200000B82734620E9FC0F114A116808604FF0B9
:10621000300080F31188BFF34F8FBFF36F8F0DF005
:1062200081FB4FF0000080F31188094A116808686B
:10623000B0E8FC0F13F0100F08BFB0EC108A82F327
:106240000B8880F309881847AFF30080AFF3008014
:10625000545A002000000000000000000000000070
:106260001EF0040F0CBFEFF30880EFF30980044920
:10627000084700BFAFF30080AFF30080AFF30080AA
:106280004F7103080000000030B585B001900B4647
:10629000ADF80230BDF9023007EE903AF8EEE77A39
:1062A00017EE900A0FF0A6FC18A3D3E900230FF015
:1062B000F9FC02460B4614461D46019B1B8A5B08EF
:1062C0009BB218460FF084FC02460B462046294636
:1062D0000FF0E8FC02460B46104619464FF000024C
:1062E000094B0FF009FE02460B46104619460FF007
:1062F000A9FF03460393039B07EE903AB0EE670AAB
:1063000005B030BDAFF3008000408F4008AC1C5A90
:10631000643BAF3F000000002DE9F04FC76997B024
:106320008346209E08910C92129355EC104B8DEDF4
:10633000000B7FB9102011F0B3FC0246CBF81C0013
:1063400020B9A74BEF21A74812F0CCF8C0E901779C
:106350000760C760DBF81C30196859B15A6801231F
:10636000584693404A608B6012F072F9DBF81C309B
:1063700000221A602B1EB7BF23F000430023012226
:106380000193A8BF3360019F974BB8BF3260BB43F6
:1063900019D142F20F73129A1360C7F31303234308
:1063A00000F0DB85219B53B9904B21E0904B039388
:1063B0000833219A1360039817B0BDE8F08F8B4B18
:1063C00003930333F5E79DED007B0022002351EC9E
:1063D000170B8DED0A7B0FF0CDFE804650B10123E7
:1063E000129A1360219B13B1824B219A1360824B46
:1063F0000393E0E7C7F30A5614AA15A958469DED82
:106400000A0B12F0ADFB0290002E76D00B9BA6F289
:10641000FF36CDF84C80C3F3130343F07F53DDE91F
:106420000A0143F4401319460022744B0FF082FA1C
:1064300065A3D3E900230FF035FC65A3D3E900235E
:106440000FF07AFA04460D4630460FF0C1FB62A306
:10645000D3E900230FF026FC02460B4620462946CE
:106460000FF06AFA04460D4629F03CFF0022074669
:106470000023204629460FF087FE40B138460FF032
:10648000A7FB22462B460FF075FE00B9013F162FE1
:1064900052D85B4B03EBC703DDE90A01D3E90023C4
:1064A0000FF072FE002849D0013F00231193149B86
:1064B0009B1B5A1E4CBFC3F101030023079245BF2B
:1064C0000693002306930793002F39DB079B109751
:1064D0003B44079300230993089B092B66D8052B9F
:1064E000C5BF043B002401240893089B023B032BF7
:1064F00067D8DFE803F02D3A3859DDE914631E440C
:1065000006F23243202BC9BFC3F14003C3F120037D
:106510009F4006F21243D8BF04FA03F006F1FF369B
:10652000C4BF24FA03F347EA03000FF041FB012242
:10653000A1F1F873139276E70123B7E71190B6E75C
:10654000069BDB1B06937B42099300231093C3E752
:1065500000230D930C9B002B56DC012399461A4611
:1065600004930C920CE00123F3E700230D930C9BA2
:10657000FB1803F1010904934B46012BB8BF01231B
:10658000DBF81C000021042202F114059D423FD9D2
:106590004160584612F01CF8039000283BD1194B7B
:1065A000024640F2AF11CEE60123DFE701240023CB
:1065B0000D9408934FF0FF33002299460493122361
:1065C000CFE701230D93F5E761436F63A787D23FC0
:1065D000B3C8608B288AC63FFB799F501344D33FD2
:1065E000794C0408904C04080000F07F754C0408B6
:1065F0006C4C0408494C0408484C04080000F83F5F
:10660000E04E0408E94C04080C9B99460493B7E754
:1066100001315200B8E7DBF81C30B9F10E0F039AD4
:106620001A606FD8002C6DD0002F36DD07F00F02F6
:10663000A04BF8054FEA271403EBC20393ED007B50
:106640008DED0E7B17D59C4B04F00F044FF0030823
:10665000D3E90823DDE90A010FF04EFCCDE9000182
:10666000954D5CB9DDE90E23DDE900010FF044FC36
:10667000CDE900012BE04FF00208F1E7E10709D571
:1066800008F10108DDE90E01D5E900230FF00AFB4E
:10669000CDE90E0164100835E3E700F007817C4284
:1066A000844B854D4FF0020804F00F02241103EBD8
:1066B000C203DDE90A01D3E900230FF0F3FA002356
:1066C000CDE90001002C40F0E580002BD0D1119BDA
:1066D000DDE90045002B00F04C810022774B20467D
:1066E00029460FF051FD002800F04381B9F1000F59
:1066F00000F03F81049B002B00F3E480DDE90A34C5
:10670000CDE90034159B002B02DB0E2F40F34282B3
:106710000D9A002A40F06782099C0025DDF8188058
:10672000B8F1000F0DD0079B002B0ADD4345069AF8
:10673000A8BF4346D21AA8EB03080692079AD31AB9
:106740000793099B0BB30D9B002B00F0A682002C36
:1067500000F0A18229462246584612F0A3F8029A78
:1067600001460546584611F0F3FF02990646584681
:1067700011F06EFF099B1B1B099300F09182099A8F
:106780003146584612F08EF802900121584611F019
:10679000C9FF109B0446002B00F084821A46014674
:1067A000584612F07FF8089B0446012B03DC009B3F
:1067B000002B00F07C820026236904EB8303186918
:1067C00033F031FBC0F120001096079B184410F005
:1067D0001F0000F09182C0F12003042B40F381825E
:1067E000C0F11C00069B034480440693079B0344AE
:1067F0000793069B002B05DD1A460299584612F0B6
:10680000ABF80290079B002B05DD21461A4658463F
:1068100012F0A2F80446119B002B00F0768221466C
:10682000029833F04FFB002880F26F8200230A2287
:106830000299584611F02EFF0D9B7E1E0290002BF0
:1068400000F05C82002329460A22584611F022FFFC
:10685000049B0546002B03DC089B022B00F35E82A1
:10686000B8F1000F05DD29464246584612F074F88B
:106870000546109B002B00F0D0826968584611F045
:10688000A7FE0746002840F07F820D4B024640F2EB
:10689000EF2158E5E20706D508F10108D5E9002304
:1068A0000FF000FA0123641008350BE74FF00208DF
:1068B0000DE700BFE04E0408B84E04080000F03FAA
:1068C000E94C040820460022AC4B29460FF0EAF9B7
:1068D0007E1E08F10108049CCDE9000140460FF03E
:1068E00077F9DDE900230FF0DDF9A54B00220FF069
:1068F00023F8A1F15073CDE90E010F93002C3BD189
:106900000022A04BDDE900010FF014F802460B460F
:10691000CDE90023DDE90E230FF054FC002840F000
:106920005781DDE90E2101F10043DDE900010FF09F
:106930002BFC00283FF4E2AE002425460C9BDDF83A
:106940000CA0DE434FF000082146584611F080FEAF
:10695000002D00F0A980B8F1000F05D0A84503D0A4
:106960004146584611F074FE2946584611F070FE13
:106970009AE03E464C46B1E7834B03EBC40353E930
:106980000201039B1C440D9B002B4AD002460B4680
:1069900000207E490FF0B0FADDE90E230EF0CAFFA9
:1069A000DDF80CA0CDE90E01DDE9000129F09AFC2B
:1069B00005460FF00DF9024630350B46DDE90001C2
:1069C0000EF0B8FF0AF8015B02460B46CDE9000164
:1069D000DDE90E010FF0F6FB002865D100206C49BF
:1069E000DDE900230EF0A6FF02460B46DDE90E01AD
:1069F0000FF0E8FB002840F00D81A24500F0EA808E
:106A000000225E4BDDE90E010FF04CF900225B4BDA
:106A1000CDE90E01DDE900010FF044F9CDE90001F7
:106A2000C2E7DDE90E230FF03DF9A046DDF80CA02A
:106A3000CDE90E01DDE9000129F054FC05460FF017
:106A4000C7F8024630350B46DDE900010EF072FF53
:106A50000AF8015B02460B46A245CDE900234FF040
:106A6000000223D1494BDDE90E010EF065FF02461D
:106A70000B46DDE900010FF0A5FB002840F0CA80BD
:106A800000204249DDE90E230EF054FF02460B467A
:106A9000DDE900010FF078FB70B1C24608F1FF3864
:106AA0001AF8013C302BF8D0374655E0334B0FF045
:106AB000F9F8CDE90001BDE7DDE90A34CDE900349C
:106AC000159B002BFFF628AE0E2F3FF725AE2E4B61
:106AD00003EBC70393ED007B0C9B002B8DED047B38
:106AE00002DAB9F1000F64D0DDF80CA0DDE9004551
:106AF000DDE90423204629460FF0FEF929F0F2FBD8
:106B000006460FF065F8DDE904230FF0CBF80246E6
:106B1000204606F130040B4629460EF00BFF0AF81A
:106B2000014B039C02460B46AAEB0404A14540F02E
:106B300082800EF001FF04460D46DDE904230FF0CC
:106B400041FB002865D120462946DDE904230FF0EA
:106B500011FB08B1F3075CD40299584611F078FD97
:106B6000002301378AF80030129B1F60219B002B05
:106B70003FF421ACC3F800A01DE400BF0000244096
:106B800000001C4000001440E04E04080000E03FFC
:106B90000000F03FA24B03EBC70393ED007B0C9B7F
:106BA000002B8DED047B9FDAB9F1000F9CDC7FF4A4
:106BB000C3AE00229B4BDDE904010FF073F8DDE961
:106BC00000230FF0F5FA044600287FF4B5AE3E46E8
:106BD0002546B4E0DDE90A34CDE90034159B002BED
:106BE00001DB0E2FD6DD089A012A36DC139A82B318
:106BF00003F23343099CDDF81880069A01215846B8
:106C00001A440692079A1A44079211F08BFD054622
:106C100086E53E4653469A4613F8012D392A06D199
:106C2000039A9A42F7D13022039901360A701A78F2
:106C300001321A7038E700227B4B0FF033F8002244
:106C4000002304460D460FF095FA00283FF450AF9C
:106C500082E7149BC3F13603CCE709F1FF34099BAB
:106C6000A34208DBB9F1000FA3EB04040EDBDDF84F
:106C700018804B46C1E7099B109AE31A0994DDF886
:106C8000188000241A444B461092B6E7069BA3EBEB
:106C900009080023B1E7029E71E5099A029970E59F
:106CA000029672E5089B012B17DC009BABB9019B98
:106CB000C3F313039BB9019B23F00046360D360541
:106CC00036B1069B012601330693079B01330793D8
:106CD000109B002B7FF470AD1096012075E5002607
:106CE000F6E73FF486AD1C33069A1A4498440692A0
:106CF000079A1A4407927CE50346F4E7049B002BAD
:106D00002BDC089B022B09DC27E0B9F1000F1DDC0E
:106D1000089B022B1ADD3E46CDF81090049B002BF9
:106D20007FF40CAE21460522584611F0B3FC014613
:106D30000446029833F0C6F800287FF7FFADDDF86F
:106D40000CA0312301360AF8013BFBE50D9B3E46C2
:106D5000CDF81090002B7FF483AD039F214602985D
:106D600032F099FD039B00F13009049A07F8019B6A
:106D7000FB1A9A4240F3CB8000230A22029958461C
:106D800011F088FC0290E9E72A6905F10C010C304A
:106D90000232920032F0FAFC01223946584611F0D4
:106DA000DBFD039BA846054603F1010ADDE9032349
:106DB00013440793009B03F0010309930AF1FF3387
:106DC00021460298049332F066FD4146069000F198
:106DD0003009029833F076F82A462146074658468D
:106DE00011F026FEC268014602B3584611F030FC8D
:106DF000002F3ADA01220299584611F0ADFD2146E2
:106E0000029033F05FF8002803DC29D119F0010F5C
:106E100026D0B9F1390F1DD132E02846C1E700BFB5
:106E2000E04E040800001440000024400A9002983C
:106E300033F048F80A990C90584611F009FC0C9A66
:106E40005ABB089B53B9099B43B9B9F1390F17D005
:106E5000002F05DD069B03F1310901E0002F2ADA3E
:106E6000DDF810A00AF8019B6EE5089B3B4304D1B6
:106E7000009B03F00103002BBCD0B9F1390F36D1D0
:106E8000049F392307F8013BBA46013F1AF8013C39
:106E9000392B5AD001333B7056E5002F06DB089B97
:106EA0003B4306D1009B03F0010313B9002AA1DC88
:106EB000D6E7002AE1DC079B57460AF8019C5345B8
:106EC0002ED000230A220299584611F0E3FBA84570
:106ED00002904FF000034FF00A02414658460BD192
:106EE00011F0D8FB804605460AF1010A66E7DDF895
:106EF00010A009F10109B5E711F0CCFB2946804645
:106F000000230A22584611F0C5FB0546ECE7049B16
:106F10004FF00008002BCCBF1F460127039B1F44E6
:106F200001220299584611F017FD2146029032F0D5
:106F3000C9FF0028A8DC02D119F0010FA4D1BA467C
:106F400017F8013D302BFAD0FEE4039BBB429BD1E6
:106F50003123039A01361370F6E4219B002B7FF452
:106F600025AA014BFFF744BA6C4C0408000000004E
:106F7000002370B5404C05468AB0E36318B1008821
:106F8000236017F04DFA3D483AF0AFFA3C4E3D4BC6
:106F9000304633603C4B736035F040FD0021304695
:106FA00022F0CAFB32A3D3E90023A062C4E906237E
:106FB00035F03FFDD4E9062319431043C4E9060127
:106FC000CDE900014FF0FF334FF0FF32A06A3AF0F5
:106FD000D9FA02224FF0FF31A06A3AF0D8FA012024
:106FE00016F0A0FF4FF4007300222849A06A3AF07F
:106FF0001FFBB0F5007F38D100239422CDE9073381
:1070000009933C23CDE9033205939623A06A03A993
:10701000069322F0AFFC35B3287C17F0B9FB054688
:10702000F0B9A06A3AF0E2FB17F060FB16F05CFFE3
:1070300020B14FF48070002113F072FF16F064FF4E
:1070400020B14FF40060002113F06AFF35F0B4FD69
:10705000012022F0C5FB0E4A0E49A06A35F0DCFC87
:1070600028460AB070BDFF20D7E70725F8E700BF24
:107070000DD5015520000000C0110020690345EC2A
:1070800020660020A9DD0108306600202064002071
:10709000C1C9030801CA03080348044B834202D054
:1070A000034B03B1184770475011002050110020C6
:1070B00000000000064B0749C91A891048BF01317A
:1070C000491003D0044B0BB101481847704700BF6B
:1070D00050110020501100200000000010B5064C97
:1070E000237843B9FFF7D8FF044B13B10448AFF33B
:1070F00000800123237010BDD86C00200000000028
:107100007894040808B5054B1BB105490548AFF351
:107110000080BDE80840FFF7CDBF00BF00000000C1
:107120003014002078940408A3F5803A704700BF1B
:10713000174B002B08BF134B9D46FFF7F5FF0021AF
:107140008B460F461348144A121A32F079FC0E4B44
:10715000002B00D098470D4B002B00D09847002003
:10716000002104000D000D48002802D00C48AFF3A8
:10717000008010F007FA2000290002F0E5FC10F072
:10718000E7F900BF00000800000000000000000058
:10719000C00A002050110020E88F002000000000ED
:1071A0000000000000B585B00190019B1B6823F42E
:1071B0007F4323F00703474A934260D0454A9342F6
:1071C0007CD8454A934221D0434A934276D8434AD9
:1071D000934226D0414A934270D8414A934203D009
:1071E000404A93420DD069E03F4940482DF09FF856
:1071F00000F0B6F900F0B8F83D493C482DF097F89A
:1072000063E03C4939482DF092F85EE03A4937484E
:107210002DF08DF800F0A8F8384934482DF087F8A3
:1072200053E0019BB3F805309AB2354B1B889A4264
:1072300046D134492D482DF07AF8019B9B7A002BDA
:1072400040D0019BDB7A8DF80F309DF80F30002B7A
:1072500008D10121142029F09EFD2B4923482DF04F
:1072600066F82DE09DF80F30012B29D127491F48E2
:107270002DF05DF8002114202DF033FE20E0019B5D
:10728000B3F805309AB2224B1B889A421CD1019B5D
:107290001B899BB203F00103002B07D01D49134843
:1072A0002DF045F81C4B01221A700DE01B490F48C8
:1072B0002DF03DF8184B00221A7005E000BF04E0E5
:1072C00000BF02E000BF00E000BF00BF05B05DF8F6
:1072D00004FB00BFA0000A03A0000601A0000A00F2
:1072E000A0000100A0000600342904084C1D002065
:1072F00048290408642904087C29040894290408FE
:107300007C6C0020B0290408DC290408E429040866
:107310007E6C0020EC290408D96C0020082A04089F
:1073200000B585B00C4A6B4607CA83E807000B4BD3
:107330001B886A460C2118461AF082F8034603930C
:10734000039B002B03D1064906482CF0F0FF00BF39
:1073500005B05DF804FB00BF3C2A04087E6C0020E9
:10736000282A04084C1D002000B585B0714B1B78FD
:10737000002B6ED0704819F01FFF03460393039B48
:10738000002B2AD06D4B1B686D4918462FF08FFAE1
:107390006A4B1B686B4918462FF089FA2DF0F7FDF0
:1073A0002DF0F6FD654B1868674B00938A23674AFA
:1073B00067492FF07CFA614B1868039B654A664960
:1073C0002FF075FA039802F0EBFD5C4B1B686349E4
:1073D00018462FF06CFA00BFFDE7574B18780023D2
:1073E00000930023A022A02119F0FEFE0346039380
:1073F000039B002B2AD0514B1B68514918462FF094
:1074000056FA4E4B1B684F4918462FF050FA2DF094
:10741000BEFD2DF0BDFD494B18684B4B00939323E7
:107420004A4A4B492FF043FA444B1868039B494A98
:1074300049492FF03CFA039802F0B2FD3F4B1B681C
:10744000464918462FF033FA00BFFDE7394B0022BA
:107450001A70394B1B780221184619F0E7FE0346D3
:107460000393039B002B2AD0344B1B6834491846E6
:107470002FF01DFA314B1B68324918462FF017FACE
:107480002DF085FD2DF084FD2C4B18682E4B0093BC
:107490009A232E4A2E492FF00AFA284B1868039B8C
:1074A0002C4A2D492FF003FA039802F079FD234B63
:1074B0001B682A4918462FF0FAF900BFFDE71E4B5A
:1074C0001B780221184619F0C5FE03460393039B5F
:1074D000002B2AD0194B1B68194918462FF0E7F9E1
:1074E000164B1B68174918462FF0E1F92DF04FFD98
:1074F0002DF04EFD114B1868134B00939E23134A39
:1075000013492FF0D4F90D4B1868039B114A124907
:107510002FF0CDF9039802F043FD084B1B680F498B
:1075200018462FF0C4F900BFFDE700BF05B05DF8B5
:1075300004FB00BF450F0020440F002074410020D1
:10754000482A04084C2A0408882A0408542A0408F3
:107550007C2A0408A02A0408A42A0408BC2A0408D7
:1075600070B59CB09A4819F089FE03461B931B9B8B
:10757000002B2AD0974B1B68974918462FF097F994
:10758000944B1B68954918462FF091F92DF0FFFC9C
:107590002DF0FEFC8F4B1868914B0093A923914A64
:1075A00091492FF084F98B4B18681B9B8F4A9049A7
:1075B0002FF07DF91B9802F0F3FC864B1B688D4978
:1075C00018462FF074F900BFFDE74FF4C053ADF833
:1075D00068307F4B1888884B01931AAB00930223C5
:1075E0000122002119F062FE03461B931B9B002B16
:1075F0002AD0784B1B68784918462FF058F9754BFC
:107600001B68764918462FF052F92DF0C0FC2DF07A
:10761000BFFC704B1868724B0093B323714A7249D8
:107620002FF045F96B4B18681B9B704A70492FF07F
:107630003EF91B9802F0B4FC664B1B686D49184676
:107640002FF035F900BFFDE76C4B1B88ADF86430B7
:107650005F4B1888684B1988694B0693694B0593F3
:10766000102304931023039301230293BDF8643085
:10767000ADF80430002300930023022219F040FEED
:1076800003461B931B9B002B2AD0524B1B6852496D
:1076900018462FF00CF94F4B1B68504918462FF035
:1076A00006F92DF074FC2DF073FC4A4B18684C4B16
:1076B0000093C3234B4A4C492FF0F9F8454B186807
:1076C0001B9B4A4A4A492FF0F2F81B9802F068FCCB
:1076D000404B1B68474918462FF0E9F800BFFDE70B
:1076E0003B4B1B88444A12881146184619F082FE0B
:1076F00003461B931B9B002B2AD0364B1B68364935
:1077000018462FF0D4F8334B1B68344918462FF035
:10771000CEF82DF03CFC2DF03BFC2E4B1868304B86
:107720000093C7232F4A30492FF0C1F8294B18681E
:107730001B9B2E4A2E492FF0BAF81B9802F030FC02
:10774000244B1B682B4918462FF0B1F800BFFDE70A
:107750002D4B15AC0FCB84E80F001D4B18882B4B1D
:10776000019315AB009310230122002119F09EFD17
:1077700003461B931B9B002B4AD0164B1B681649D4
:1077800018462FF094F8134B1B68144918462FF035
:107790008EF82DF0FCFB2DF0FBFB0E4B1868104B08
:1077A0000093D4230F4A10492FF081F8094B186831
:1077B0001B9B0E4A0E492FF07AF81B9802F0F0FB43
:1077C000044B1B680B4918462FF071F800BFFDE70A
:1077D000746C002074410020482A04084C2A0408D4
:1077E000D02A0408542A04087C2A0408A02A040881
:1077F000A42A0408BC2A0408766C0020E82A04089D
:10780000786C002020290408EC2A04087A6C0020F7
:107810007A4B11AC0FCB84E80F0000238DF8433076
:10782000774B1D88774B1E88774B09930DF14303E7
:10783000089301230793012306930123059301ACC9
:1078400011AB0FCB84E80F000023009300230A2222
:107850003146284619F08EFD03461B93684B1B8862
:10786000684A12881146184619F0C4FD03461B9356
:107870001B9B002B2AD0654B1B68654918462FF0CF
:1078800016F8624B1B68634918462FF010F82DF06C
:107890007EFB2DF07DFB5D4B18685F4B0093EA2368
:1078A0005E4A5F492FF003F8584B18681B9B5D4AEE
:1078B0005D492EF0FCFF1B9802F072FB534B1B68D6
:1078C0005A4918462EF0F3FF00BFFDE7584B0CACA9
:1078D0000FCB84E80F0000238DF82F30484B1D8814
:1078E000484B1E88534B09930DF12F030893012336
:1078F0000793012306930123059301AC0CAB0FCB37
:1079000084E80F000023009300231222314628460A
:1079100019F030FD03461B93394B1B88394A1288F6
:107920001146184619F066FD03461B931B9B002B5E
:107930002BD0364B1B68364918462EF0B8FF334B18
:107940001B68344918462EF0B2FF2DF020FB2DF0B5
:107950001FFB2E4B1868304B00934FF480732F4A57
:107960002F492EF0A4FF294B18681B9B2D4A2E4946
:107970002EF09DFF1B9802F013FB244B1B682B4934
:1079800018462EF094FF00BFFDE71D4B1B881846DC
:1079900019F044FD03461B931B9B002B2BD01B4B64
:1079A0001B681B4918462EF082FF184B1B681949AB
:1079B00018462EF07CFF2DF0EAFA2DF0E9FA134B71
:1079C0001868154B00934FF48273144A14492EF033
:1079D0006EFF0E4B18681B9B124A13492EF067FF6F
:1079E0001B9802F0DDFA094B1B68104918462EF06F
:1079F0005EFF00BFFDE700BF1CB070BDFC2A04089D
:107A0000746C00207A6C00207C6C00207441002093
:107A1000482A04084C2A0408D02A0408542A0408D6
:107A20007C2A0408A02A0408A42A0408BC2A040802
:107A30000C2B04087E6C002008B5044B1B78002B2F
:107A400001D0FFF76DFC00BF08BD00BFD96C00205E
:107A500000B587B0624963482CF069FC40F21342DC
:107A6000614962482BF06EFF614B604A5A6161497F
:107A70005C482CF05CFC0023059336E05E4A059BD5
:107A800013441B7819465A4829F009FD0346B3F1FF
:107A9000FF3F14BF01230023DBB2002B11D0574955
:107AA00050482CF083FB544A059B13441B780A2250
:107AB00019464C482CF09AFB51494A482CF037FCA7
:107AC00010E0504947482CF071FB4B4A059B13448A
:107AD0001B780A22194643482CF088FB4A49414842
:107AE0002CF025FC059B01330593059B012BC5DD7F
:107AF00046493C482CF01BFC45493A482CF017FC01
:107B00000023049308E0434A049B4FF4806122F869
:107B10001310049B01330493049B012BF3DD3E4BB4
:107B200001933E4B00933B4B02223349304829F0EE
:107B3000F8FE4FF4FA602DF0DDF8394929482CF0B1
:107B4000F6FB0023039308E0324A039B4FF44061A5
:107B500022F81310039B01330393039B012BF3DDE6
:107B60002D4B01932D4B00932A4B02222249204892
:107B700029F0D7FE4FF4FA602DF0BCF829491948D6
:107B80002CF0D5FB0023029308E0224A029B4FF41D
:107B9000006122F81310029B01330293029B012B18
:107BA000F3DD1D4B01931D4B00931A4B022212492A
:107BB0000F4829F0B6FE40F2DC502DF09BF81A4930
:107BC00008482CF0B4FB194906482CF0B0FB1849C2
:107BD00004482CF0ACFB00BF07B05DF804FB00BF0D
:107BE0001C2B04084C1D002040420F00601E00208A
:107BF00048140020402B0408C40A0020642B040809
:107C0000742B0408842B04089C2B0408B02B040854
:107C1000DC2B0408D00A0020CC0A0020C80A00206F
:107C2000F82B0408142C04083C2C0408602C0408CD
:107C3000982C040810B590B072482BF0ADFE0346A6
:107C4000002B14BF01230023DBB2002B00F0D780F0
:107C500003AB6C49184601F02BFF03AB18462CF020
:107C60005CFD00238DF83F3006AB674918462CF0C9
:107C700009FC06AA03AB114618462CF00BFD03467F
:107C80001C4606AB18462CF015FC002C28D05F498A
:107C90005C482CF04CFB00230E931AE05C4A0E9BD0
:107CA00032F913309BB2A3F500739BB219B2584A54
:107CB0000E9B22F81310564A0E9B32F91330002BFC
:107CC00004DA534A0E9B002122F813100E9B013355
:107CD0000E930E9B012BE1DD01238DF83F304AE02E
:107CE00009AB4C4918462CF0CDFB09AA03AB114651
:107CF00018462CF0CFFC03461C4609AB18462CF066
:107D0000D9FB002C2AD044493E482CF010FB00231C
:107D10000D931CE03E4A0D9B32F913309BB203F5E4
:107D200000739BB219B23A4A0D9B22F81310384ADD
:107D30000D9B32F91330B3F5805F05DB344A0D9BA0
:107D400040F6FF7122F813100D9B01330D930D9B2C
:107D5000012BDFDD01238DF83F300CE02F4929484E
:107D60002CF024FA03AB194626482CF00AFA2C49C9
:107D700024482CF0DCFA9DF83F30002B2AD029490A
:107D800020482CF013FA00230C9312E0204A0C9B9D
:107D900032F913300A2219461A482CF03AFA0C9B91
:107DA000002B03DC204917482CF000FA0C9B013310
:107DB0000C930C9B012BE9DD1C4912482CF0B7FAFF
:107DC0001B4B01931B4B0093114B02221A491B487A
:107DD00029F0A7FD03AB18462CF06CFB0FE006ABB7
:107DE00018462CF067FB04E009AB18462CF062FB48
:107DF000FFE703AB18462CF05DFB31F03FF900BF05
:107E000010B010BD4C1D0020BC2C0408C02C040870
:107E1000D00A0020EC2C0408F02C04081C2D0408C7
:107E2000302D04084C2D0408702D0408742D04080E
:107E3000CC0A0020C80A0020C40A002048140020F0
:107E400008B5012167202CF0B6FF012167202DF035
:107E500067F80B482AF054F90346002B14BF01239E
:107E60000023DBB2002B04D0064907482CF05FFA50
:107E700003E0064904482CF05AFA00BF08BD00BFD1
:107E800074140020782D04084C1D0020882D04084F
:107E900000B52DED028B83B046E06D482AF046FB1D
:107EA000F0EE407A6B4BC3ED007A69482AF07AFB1A
:107EB000F0EE407A684BC3ED007A65482AF0AEFBDD
:107EC000F0EE407A654BC3ED007A624BD3ED007A59
:107ED000B0EE670A28F054FFB0EE408A5E4BD3ED57
:107EE000007AB0EE670A28F04BFFF0EE407A38EEE9
:107EF000278A5A4BD3ED007AB0EE670A28F040FF8C
:107F0000F0EE407A78EE277ACDED017ADDED017A58
:107F1000B0EE047AF4EEC77AF1EE10FA00DA03E07C
:107F20004F4B00221A6003E04D4B1B68772BB4D0F7
:107F300082E04B4B1B680133494A136044482AF0E6
:107F4000F5FA10EE103A18460DF054FE02460B46B4
:107F5000032143EC102B43482CF0D8F92C21414845
:107F60002CF031F93A482AF01DFB10EE103A184671
:107F70000DF040FE02460B46032143EC102B39481E
:107F80002CF0C4F92C2137482CF01DF930482AF088
:107F900045FB10EE103A18460DF02CFE02460B463B
:107FA000032143EC102B2F482CF0B0F92C212D4845
:107FB0002CF009F926482AF06DFB10EE103A18460D
:107FC0000DF018FE02460B46032143EC102B25480A
:107FD0002CF09CF92C2123482CF0F5F81C482AF0B1
:107FE00095FB10EE103A18460DF004FE02460B46C3
:107FF000032143EC102B1B482CF088F92C21194845
:108000002CF0E1F812482AF0BDFB10EE103A1846A9
:108010000DF0F0FD02460B46032143EC102B1148F6
:108020002CF074F90F4801F03FFC0D4B1B68772BC7
:1080300002D10C4801F038FC094B1B68762B7FF706
:1080400078AF00BF00BF03B0BDEC028B5DF804FB4E
:10805000741400209C140020A0140020A4140020FC
:10806000D40A00204C1D002008B580220849094888
:108070002BF066F8084909482CF059F908490548D9
:108080002BF088F8074905482CF051F900BF08BDCE
:10809000A8140020A81800209C2D04084C1D0020C6
:1080A000C9800008B82D040808B5064B1B78DBB260
:1080B000002B04D0034B00221A7000F01BF800BF05
:1080C00008BD00BFDA6C002008B5074A074B104610
:1080D00019464FF400731A4631F058FB044B012245
:1080E0001A7000BF08BD00BFA8160020A814002009
:1080F000DA6C002000B585B0244800F0C3FD802272
:108100002349224800F0CAFDF0EE407AFCEEE77AFF
:1081100017EE903A0393039B40F2DE22934206D976
:10812000039BB3F5617F28BF4FF4617301E040F218
:10813000DF230393174B1A68039B13445B08154A0C
:108140001360144B1B681846FF23009300234FF461
:10815000617240F2DF212BF029FE03460293029B5D
:10816000C3F1FF03194614202CF0DFFD094B1B68F7
:108170000A22194608482CF0F0F8084903482BF069
:1081800009F800BF05B05DF804FB00BFA818002087
:10819000A8160020B81800204C1D0020C980000837
:1081A00008B54FF4E13110482BF0ADFB4FF4FA6005
:1081B0002CF0A0FD012114202CF0DEFD0B4B1B78D0
:1081C000002B01D0FFF73CFE094B1B78002B01D0A0
:1081D00028F0F3FD074B1B78002B01D0FFF744FF7D
:1081E000FFF736FC00BF08BD4C1D0020DC6C0020F2
:1081F000DB6C0020DD6C002008B5FFF71DFCFFF7ED
:1082000019FD074B1B78002B01D0FFF741FE054BF2
:108210001B78002B01D0FFF747FF00BF08BD00BF50
:10822000DC6C0020DD6C002000B583B00190009173
:10823000019B012B16D1009B4FF6FF72934211D187
:108240000A4800F06BF86A220021094829F001FF72
:108250005A225B2107482AF059FF074A0749054877
:1082600030F09AFE00BF03B05DF804FB4814002014
:1082700074140020A8180020C00A0020353103081B
:1082800082B00190044B03F500531A46019B5361E1
:1082900000BF02B0704700BF0040065000B583B079
:1082A00001900091019B012B07D1009B4FF6FF72BB
:1082B000934202D1034828F09DFD00BF03B05DF852
:1082C00004FB00BFBC18002082B00190064A019B4D
:1082D0001A60019B01221A71019B00229A71019B75
:1082E000184602B0704700BFD42D040800B583B013
:1082F0000190019B1846FFF7E7FF074A019B1A60B0
:10830000019B64221A61019B00225A61019B18465D
:1083100003B05DF804FB00BF002E040800B583B075
:108320000190019B1846FFF7E1FF054A019B1A6087
:10833000019B00225A71019B184603B05DF804FBB3
:10834000382E040886B00190019B05930B4B0493D3
:1083500001238DF80F3000238DF80E30059B049A11
:108360001A60059B9DF80E201A71059B9DF80F2041
:108370005A7100BF019B184606B0704700093D00C6
:1083800000B585B0019000238DF80F3001216720E2
:108390002CF011FD012167202CF0C2FD0A202CF0E9
:1083A000A9FC019B1B78002B02D0012B04D017E005
:1083B00024482AF03BFA13E023482AF062FF012107
:1083C00021482BF0E9F8019B9B78012118462CF0FD
:1083D000D3FC019B9B78012118462CF082FD00BF45
:1083E00000238DF80B300023ADF80C300BE09DF826
:1083F0000B30DBB20133DBB28DF80B30BDF80C3043
:108400000133ADF80C30BDF80C3042F20F729342DC
:10841000EDD90DF10A030F221946019800F0CAF8B0
:108420009DF80A30692B06D09DF80A306A2B02D0DD
:1084300001238DF80F309DF80F30184605B05DF818
:1084400004FB00BF381A0020A81B002000B587B02D
:108450000390029111461A460B468DF807301346D9
:108460008DF8063000238DF8173000238DF8163074
:1084700000238DF8143000238DF81530039B1B78F2
:10848000002B02D0012B48D089E0039B5B78194672
:1084900046482AF0C4FA9DF80730194643482AF0A6
:1084A00030FB424829F075FD0346002B14BF012321
:1084B0000023DBB2002B03D001238DF817306EE0D0
:1084C000039B5B789DF80620194638482AF001FA8C
:1084D00011E036482AF0C0FB03468DF81430029BA9
:1084E0009DF814201A70029B013302939DF81630F8
:1084F00001338DF816302D482AF08FFB0346002BF0
:1085000007D09DF816209DF806309A4201D201232B
:1085100000E00023002BDCD141E0039B9B7800218D
:1085200018462CF0DEFC9DF8073063F07F03DBB2C9
:1085300019461F482AF022FF1BE000211C482AF0A0
:108540001DFF03468DF814309DF81430FF2B04D125
:108550009DF8153001338DF81530029B9DF81420DD
:108560001A70029B013302939DF8163001338DF887
:1085700016309DF816209DF806309A42DDD39DF8FE
:1085800015209DF816309A4202D105238DF8173038
:10859000039B9B78012118462CF0A3FC00BF9DF89B
:1085A0001730184607B05DF804FB00BF381A0020EA
:1085B000A81B002000B587B00390029113468DF8E8
:1085C000073000238DF8173001238DF81530002374
:1085D0008DF81630039B1B78002B02D0012B35D071
:1085E00058E0039B5B7819462F482AF018FA9DF84B
:1085F000073019462C482AF084FA2B4829F0C9FC88
:108600000346002B14BF01230023DBB2002B02D052
:1086100001238DF81630039B5B789DF815201946D1
:1086200021482AF056F905E01F482AF015FB0346B9
:108630008DF817301C482AF0F0FA0346002B14BFBF
:1086400001230023DBB2002BEED123E0039B9B78B8
:10865000002118462CF045FC9DF8073063F07F039D
:10866000DBB2194611482AF089FE00210F482AF092
:1086700085FE03468DF81730039B9B780121184631
:108680002CF02FFC9DF81730FF2B02D105238DF81D
:10869000163000BF029B9DF817201A709DF8163007
:1086A000184607B05DF804FB381A0020A81B00200C
:1086B00000B585B001900B468DF8033013468DF858
:1086C000023000238DF80F30019B1B78002B02D065
:1086D000012B21D03AE0019B5B7819461E482AF015
:1086E0009EF99DF8033019461B482AF00AFA9DF8B6
:1086F0000230194618482AF004FA174829F049FCB4
:108700000346002B14BF01230023DBB2002B1CD037
:1087100001238DF80F3018E0019B9B78002118464B
:108720002CF0DFFB9DF8033019460C482AF026FE9A
:108730009DF80230194609482AF020FE019B9B78DB
:10874000012118462CF0CDFB00E000BF9DF80F3052
:10875000184605B05DF804FB381A0020A81B00205D
:1087600030B585B001900B46ADF80230019BDB8837
:10877000214AA2FB0323DB089BB28DF80F30019B3B
:10878000DB88F52B02D102238DF80F30BDF90230C2
:1087900007EE903AF8EEE77A17EE900A0DF02AFA13
:1087A0004FF00002154B0DF07DFA02460B461446C1
:1087B0001D469DF80F3018460DF00AFA02460B468A
:1087C000204629460DF06EFA02460B461046194621
:1087D0004FF000020A4B0DF08FFB02460B4610468D
:1087E00019460DF02FFD03460293029B07EE903AC7
:1087F000B0EE670A05B030BDD34D62100080114065
:1088000000408F4000B583B001900091019B012B87
:1088100007D1009B4FF6FF72934202D10348FFF746
:1088200091FD00BF03B05DF804FB00BFC818002035
:1088300082B00190044A019B1A60019B00225A6099
:10884000019B184602B070473832040800B583B067
:108850000190019B1846FFF7EBFF064A019B1A6047
:10886000019B4FF47A729A60019B184603B05DF841
:1088700004FB00BF682F040882B003468DF8073060
:108880009DF90730002B0CDB9DF8073003F01F0229
:1088900005499DF907305B09012000FA02F241F811
:1088A000232000BF02B0704700E100E000B583B0B4
:1088B0000190019B1846FFF7C9FF044A019B1A600B
:1088C000019B184603B05DF804FB00BF182F040895
:1088D00000B585B00390029111461A460B468DF8FB
:1088E000073013468DF80630039B1846FFF7DEFF6E
:1088F000394A039B1A60039B00221A74039B0022CF
:108900005A74039B0022A3F89420039B002283F84F
:108910009620039B0022C3F89820039B0022C3F8F3
:108920009C20039B0022C3F8A020039B002283F815
:10893000A420039B002283F8A520039BA83318469C
:108940002AF048FB039B0022C3F8F420039B00227B
:10895000C3F8F820039B0022C3F8FC20039B029A73
:10896000C3F85021039B9DF8072083F85421039BF3
:108970009DF8062083F85521039B069AC3F85821D9
:10898000039B9DF81C2083F85C21039B089AC3F885
:108990006021039B099AC3F86421039B533340224F
:1089A0000021184631F04CF8039B1333402200217C
:1089B000184631F045F8039B03F5807319460120F2
:1089C0002EF07CFD0246039BC3F8FC20039B184657
:1089D00005B05DF804FB00BFC82E040810B588B0D0
:1089E00001900B468DF80330019B1B7C002B40F05F
:1089F000B480019B02221A74019B9DF8032083F826
:108A0000A420574B03AC0FCB84E80F0000238DF854
:108A10000D30019B93F85501019BD3F858110123A8
:108A20000B2204F067FA019B93F85C01019BD3F8D9
:108A3000601101230B2204F05DFA4A4A019B93F86E
:108A400054314F331B0113441B6823F4702323F06C
:108A50000303019A92F85C211146019AD2F8602131
:108A600012040A433F48019991F854111A4301F145
:108A70004F031B0103441A603A4A019B93F8543197
:108A80001B01134403F2EC431B6823F4702323F00F
:108A90000303019A92F855211146019AD2F8582100
:108AA00012040A432F48019991F854111A430B01FB
:108AB000034403F2EC431A602A4A019B93F85431B1
:108AC0001B01134403F59D6303221A60019BD3F835
:108AD0005031B3F1B64F01D12E230793019BD3F848
:108AE0005031214A934201D12F2307930121079846
:108AF00003F0CEF8019BD3F8503103AA1146184673
:108B000004F074FA019BD3F85021019B93F8A43030
:108B10001946104629F075FE019BD3F850311349D0
:108B2000184629F056FE019BD3F8503110491846DB
:108B300029F05BFE019BD3F85031B3F1B64F02D15F
:108B40001B20FFF799FE019BD3F85031064A934250
:108B500004D11C20FFF790FE00E000BF08B010BD5C
:108B6000B02E040800C0035000800650FFFF1F0015
:108B70006406010008B510482AF024FA0346B3F150
:108B8000B64F0CBF01230023DBB2002B02D00A48F2
:108B90002AF066F909482AF015FA0346B3F1B64FF0
:108BA0000CBF01230023DBB2002B02D003482AF0C4
:108BB00057F900BF08BD00BFD0180020381A0020A8
:108BC00008B510482AF0FEF903460F4A93420CBF3D
:108BD00001230023DBB2002B02D00A482AF040F91F
:108BE0000A482AF0EFF90346074A93420CBF0123D3
:108BF0000023DBB2002B02D004482AF031F900BF79
:108C000008BD00BFD018002000800650381A002090
:108C100000B587B005900491059B012B23D1049BDF
:108C20004FF6FF7293421ED1114B1B68039304232E
:108C300002930223019305230093022301220D498D
:108C40000D48FFF745FE0D4B1B680393022302936B
:108C50000123019303230093012300224FF0B64127
:108C60000748FFF735FE00BF07B05DF804FB00BF03
:108C7000D80A002000800650D0180020DC0A00200E
:108C8000381A002000B583B0019003482BF057F844
:108C900000BF03B05DF804FB741F002086B0039092
:108CA00002910192029B002B02D1DFED176A24E0B2
:108CB0004FF0000305930023049311E0049B9B00F5
:108CC000029A13441B6807EE903AF8EE677A9DED1E
:108CD000057A77EE277ACDED057A049B013304936C
:108CE000049A019B9A42E9D3019B07EE903AF8EE71
:108CF000677A9DED057AC7EE276AF0EE667AB0EEE8
:108D0000670A06B0704700BF0000000082B0019003
:108D1000034A019B1A60019B184602B0704700BFCE
:108D20002C30040882B00190034A019B1A60019B19
:108D3000184602B0704700BF2C30040800B585B05B
:108D40000390029101920093039B1846FFF7EAFFFC
:108D50001A4A039B1A60039B00221A71039B03F1BA
:108D600008000023002216492AF029FA039B029AE0
:108D70001A61039B019A5A61039B009A9A61039BB3
:108D80002033194601202EF099FB0246039BDA613D
:108D9000039B7433194601202EF090FB0246039B7F
:108DA0001A67039B05E0039B1846FFF7AFFF30F0FF
:108DB00065F9184605B05DF804FB00BFF02F040804
:108DC00040420F0082B001900B468DF803309DF8B1
:108DD0000330032B1ED801A252F823F0ED8D0008BA
:108DE000F78D0008018E00080B8E0008019B5B695F
:108DF00000229A7613E0019B5B6901229A760EE0CD
:108E0000019B5B6902229A7609E0019B5B69032260
:108E10009A7604E0019B5B6900229A7600BF00BF4E
:108E200002B0704700B587B00390029101920093A1
:108E300000230593039BDB6905AA114618462EF013
:108E4000ABFB059B002B03D0034B4FF080521A6005
:108E500000BF07B05DF804FB04ED00E000B585B08D
:108E6000039002910192019B029A03990348FFF734
:108E7000D9FF00BF05B05DF804FB00BFA81B0020B0
:108E800000B585B0039002910192019B029A03996B
:108E90000348FFF7C7FF00BF05B05DF804FB00BF44
:108EA0006C1C002000B583B00190064A019B1A603B
:108EB000019B1846FFF72AFF019B184603B05DF897
:108EC00004FB00BFF02F040800B583B001900091AF
:108ED000019B012B1FD1009B4FF6FF7293421AD1C9
:108EE0000F48FFF72FFA0F4B19680F4B0F4A104826
:108EF000FFF724FF0F4A10490D4830F04DF80F4B93
:108F000019680F4B0F4A1048FFF718FF094A0A4922
:108F10000D4830F041F800BF03B05DF804FB00BF1E
:108F2000A01B00206C0C00205D8E0008E00A0020D1
:108F3000A81B0020C00A0020A58E0008680C002095
:108F4000818E0008000B00206C1C002000B583B04F
:108F500001900023019A0021034804F077FF00BF2D
:108F600003B05DF804FB00BF00C0055008B5134B0B
:108F70001B6818462AF063FB114B0022C3F8202718
:108F80000F4B0022C3F838270D4B0022C3F83027BF
:108F90000B4B0022C3F82827094B0022C3F82C27CB
:108FA000002301220821002003F0A4FF0023012256
:108FB0000921002003F09EFF00BF08BD341D0020E2
:108FC00000C0035000B583B00190019A002103480E
:108FD00003F030FD00BF03B05DF804FB00000A5051
:108FE00008B5134B1B6818462AF029FB114B0022C9
:108FF000C3F8B4240F4B0022C3F8CC240D4B00223D
:10900000C3F8C4240B4B0022C3F8BC24094B002234
:10901000C3F8C024002301220621022003F06AFFC6
:10902000002301220721022003F064FF00BF08BDD6
:109030003C1D002000C0035082B001900091019BB4
:10904000012B14D1009B4FF6FF7293420FD1094BB5
:109050001B68094A1360094B1B68094A1360094BD6
:109060001B68094A1360094B1B68094A136000BF5B
:1090700002B07047540C0020301D0020640C00200A
:10908000341D0020400C0020381D0020500C002012
:109090003C1D002000B583B001900091019B012B85
:1090A0000CD1009B4FF6FF72934207D105482AF07E
:1090B00036FB054A054903482FF06EFF00BF03B099
:1090C0005DF804FB401D0020C00A0020BD380308E5
:1090D00000B583B00190019B1846FFF7B7FB044A27
:1090E000019B1A60019B184603B05DF804FB00BFAA
:1090F000E030040800B585B003900291019200931E
:10910000039B1846FFF7E4FF1F4A039B1A60039B6B
:10911000103318462AF014FD039B0022C3F89C204C
:10912000039B002283F80821039B4FF4E132C3F82C
:109130000C21039B002283F81021039BA0331946C6
:1091400001202EF0BBF90246039BC3F89C20039B31
:10915000009AC3F8F020039B069AC3F8F420039BFF
:10916000079AC3F8F820039B029AC3F80021039BD7
:10917000019AC3F80421039B089AC3F8FC20039BBF
:10918000184605B05DF804FBAC30040800B587B0A4
:1091900005900491059B012B20D1049B4FF6FF7293
:1091A00093421BD10F4B19680F4B1A680F4B029358
:1091B0000F4B01930F4B00930F4B1048FFF79AFF93
:1091C0000F4B19680F4B1A680F4B02930F4B01930B
:1091D0000F4B00930F4B1048FFF78CFF00BF07B0F9
:1091E0005DF804FB301D0020341D0020393B0308CE
:1091F0006D8F0008653603084D8F00084C1D002058
:10920000381D00203C1D00203D3B0308E18F000875
:109210006F360308C58F0008601E002030B5AFB060
:109220000590049113468DF80F30002104982BF01F
:10923000C2FD27AB00221A605A609A609F4B1DAC9A
:109240001D460FCD0FC40FCD0FC495E8030084E871
:10925000030000238DF86C3000238DF86D3003235C
:109260008DF86E3000238DF86F3000238DF870304C
:1092700000238DF8713000238DF8723007AB502237
:109280000021184630F0DCFB01238DF81C3001234F
:109290008DF8213001238DF8263001238DF82B30F5
:1092A00001238DF8303001238DF8353001238DF8FE
:1092B0003A3001238DF83F3001238DF844300123EB
:1092C0008DF8493001238DF84E3001238DF853304D
:1092D00001238DF8583001238DF85D3001238DF87E
:1092E000623001238DF8673001212A2002F0D0FC82
:1092F00001213A2002F0CCFC01213B2002F0C8FC05
:1093000000238DF89F3000226D496E4804F0E6F886
:1093100003468DF8A1309DF80F30032B00F2CB806F
:1093200001A252F823F000BF3993000847930008C8
:10933000559300086393000800238DF8B7304FF46D
:1093400096632C9314E001238DF8B73040F2E2438A
:109350002C930DE003238DF8B73040F6E4432C93B3
:1093600006E004238DF8B7304FF425632C9300BF3B
:109370009DF8B7308DF878302C9B209300238DF822
:10938000753002238DF877309DF8A13000930023CB
:1093900000224D494B4804F0BBF803461F9349484F
:1093A00004F01CF8474B9B68002B0CBF01230023E3
:1093B000DBB2002B05D01DAA27AB1946414804F0AB
:1093C000E3F8049B323B2B9301238DF8713000238B
:1093D0008DF86E3001238DF86F303C4A2B9B13447F
:1093E0001B788DF81D3001238DF8203007AA1BABA8
:1093F0001946344803F090FF4FF4807131482AF049
:1094000060FC049B03F00103002B0CBF012300232D
:109410008DF8AB30049B612B02D8049B512B15D9DE
:109420009DF8AB30002B08D0294BD3F82833284ABD
:1094300043F00103C2F8283336E0254BD3F8283334
:10944000234A43F48033C2F828332DE0049B412B98
:1094500015D99DF8AB30002B08D01D4BD3F8243321
:109460001B4A43F00103C2F824331DE0184BD3F824
:109470002433174A43F48033C2F8243314E09DF8B0
:10948000AB30002B08D0124BD3F82033104A43F0F6
:109490000103C2F8203307E00D4BD3F820330C4A08
:1094A00043F48033C2F82033059B00221A70059BD9
:1094B00001225A7000E000BF2FB030BD58310408BF
:1094C000002D310100400059809698008031040839
:1094D00000C0035000B58DB0059004910392059B28
:1094E0005B7883F00103DBB2002B01D0112357E03E
:1094F00001F002FC059B1C330021184601F084FB9F
:1095000003460B930B9B002B01D0012348E007ABD4
:1095100000221A605A609A60DA604FF420230793A1
:10952000039B9BB2013B9BB2C3F30A0398B204991D
:10953000059B0C3300221A605A609A60DA60059A23
:10954000938960F30E139381059A937B43F0100384
:109550009373059AD37B43F00303D373059AD37BAC
:10956000022060F38303D373059B0F4A1A61059BA6
:109570005961059A137E43F001031376059A137E11
:1095800043F002031376059BDB691846059B03F144
:109590000C0207A900230093044B01F0E1FB002318
:1095A00018460DB05DF804FB84400059F996000898
:1095B00000B587B0039002910192009301230593B7
:1095C000039B9B6A4FF0FF3118462EF07AF8039BFD
:1095D0005B7883F00103DBB2002B06D0039B1B7882
:1095E00083F00103DBB2002B04D1039B5B68029A7A
:1095F0009A4215D0039B029A5A60039B089A5A62BA
:10960000039B5968039B1B7A1A460398FFF706FED3
:10961000009A01990398FFF75DFF0346059338E030
:10962000039B5B78002B0ED0039B9B78002B0AD00A
:10963000039BDB69184601F0D9FB03460593039BA6
:1096400000229A7025E0039B1B78002B18D003980A
:1096500000F032F8039B029A5A60039B089A5A6200
:10966000039B5968039B1B7A1A460398FFF7D6FDA4
:10967000009A01990398FFF72DFF0346059308E030
:10968000039B986A0023002200212DF09CFE059B7D
:109690000BE0082107482AF020FB039B986A00236F
:1096A000002200212DF08FFE059B184607B05DF8C3
:1096B00004FB00BF0040005900B583B00190019B3E
:1096C000DB69184601F0B2FB019BDB69184601F02B
:1096D000EDFA084803F082FE019B00225A70019BBC
:1096E00000221A70019B4FF0FF325A6000BF03B096
:1096F0005DF804FB0040005900B585B0039002916D
:10970000019204482AF02AFB0023184605B05DF8B0
:1097100004FB00BF741F002000B583B001900091CE
:10972000019B012B07D1009B4FF6FF72934202D1A0
:1097300003482AF0DBFA00BF03B05DF804FB00BF6A
:10974000741F002082B00190034A019B1A60019BA4
:10975000184602B0704700BFC831040800B583B096
:1097600001900B468DF80330019B1846FFF7EAFF86
:10977000094A019B1A60019B9DF803201A75019B01
:10978000043310220021184630F05AF9019B184684
:1097900003B05DF804FB00BFF431040800B583B0EA
:1097A0000190084611461A4603468DF803300B46D1
:1097B0008DF8023013468DF80130019B1846FFF7F3
:1097C000C1FF114A019B1A60019B00221A75019B7F
:1097D000043310220021184630F032F9019B9DF825
:1097E00003201A74019B9DF802205A74019B9DF876
:1097F00001209A74019B9DF81020DA74019B184691
:1098000003B05DF804FB00BFF431040800B585B077
:1098100003900291039B012B10D1029B4FF6FF7224
:1098200093420BD101210748FFF798FF00230093D3
:109830000023002200210448FFF7B0FF00BF05B05D
:109840005DF804FBF01F00200820002070B582B0F6
:109850008DED000B009C019B23F0004501231E466B
:109860004FF0FF320F4B204629460CF0B5FC034663
:10987000002B0BD14FF0FF320A4B204629460CF04B
:109880008DFC0346002B01D100231E46F3B283F06A
:109890000103DBB2002B14BF01230023DBB2184607
:1098A00002B070BDFFFFEF7F00B583B001900449A7
:1098B00001982AF01EFC0346184603B05DF804FB2D
:1098C0001C32040830B58FB003908DED000B02916F
:1098D000029B002B01DA0223029300230D939DEDDE
:1098E000000B2AF0DEFB0346002B05D068490398E5
:1098F0002AF05CFC0346C7E09DED000BFFF7A6FFD6
:109900000346002B05D0634903982AF04FFC034619
:10991000BAE04FF06042604BDDE900010CF052FC10
:109920000346002B05D05D4903982AF03FFC03460F
:10993000AAE04FF060425A4BDDE900010CF024FC34
:109940000346002B05D0554903982AF02FFC034607
:109950009AE04FF000024FF00003DDE900010CF047
:1099600013FC0346002B0DD02D2103982AF02BFC6D
:1099700002460D9B13440D93009C019B83F0004510
:10998000CDE900454FF00002464BCDE90A23002304
:109990008DF827300FE04FF00002434BDDE90A015C
:1099A0000CF0AAFA02460B46CDE90A239DF82730AF
:1099B00001338DF827309DF82730029A9A42EADC6D
:1099C000DDE90A23DDE900010BF0B6FF02460B4694
:1099D000CDE90023DDE900010CF014FC03460593FA
:1099E00005980CF0E5F802460B46DDE900010BF0A6
:1099F000A1FF02460B46CDE906230A2205990398EA
:109A00002AF065FC02460D9B13440D93029B002B2C
:109A10002FDD264903982AF0C9FB02460D9B13440B
:109A20000D9326E04FF000021F4BDDE906010CF01C
:109A300039F902460B46CDE90623DDE906010CF0B3
:109A4000E1FB034604930A22049903982AF0F0FBF1
:109A500002460D9B13440D9304980CF0A9F802469E
:109A60000B46DDE906010BF065FF02460B46CDE92A
:109A70000623029B5A1E0292002BCCBF0123002317
:109A8000DBB2002BCED10D9B18460FB030BD00BF0E
:109A90002032040824320408FFFFEF412832040872
:109AA000FFFFEFC10000E03F000024402C3204081B
:109AB00000B585B001900091104901982AF0E2FCB0
:109AC00000982AF0B5FC034603930AE0039BDBB23F
:109AD000194601982AF09BFC00982AF0A9FC03463D
:109AE0000393039B002BF1DA04E001982AF0E2FCD7
:109AF0002FF0C4FA019805B05DF804FB6432040845
:109B000000B583B001900091019B012B10D1009B07
:109B10004FF6FF7293420BD1432342220649074876
:109B20002AF04CFE45234422054906482AF046FE09
:109B300000BF03B05DF804FB004002592020002064
:109B4000008002594820002000B585B004F0CEF80E
:109B50000346274A13602BF0DCFC29F0A7FD254BB8
:109B600001221A7027F05CF9234B0293234B0193D7
:109B70000123009300234FF40062214921482DF076
:109B8000FFFE0346204A13601F4B1B68002B27D1A2
:109B90001E4B1B681E4918462CF089FE1B4B1B6888
:109BA0001C4918462CF083FE2BF0F1F92BF0F0F94C
:109BB000164B1868184B00933E23184A18492CF08E
:109BC00076FE124B1B68174A174918462CF06FFE99
:109BD0000E4B1B68154918462CF069FE00BFFDE7C7
:109BE0002DF0CEF90023184605B05DF804FB00BF48
:109BF000D4400020DE6C0020704000207020002047
:109C00006832040827480308D0400020744100202F
:109C1000783204087C320408E832040884320408EC
:109C2000DC320408F03204080C330408243304083E
:109C300008B5074829F018FF054829F064FF0548D2
:109C400029F012FF034829F05EFF00BF08BD00BFE6
:109C50004C1D0020601E0020014B1B7818467047E9
:109C6000DE6C002010B582B003468DF807309DF8F9
:109C70000730312B06D99DF80730722B02D89DF89A
:109C8000073013E09DF8074029F015FD03469C427C
:109C90002CBF01230023DBB2002B02D04FF0FF3397
:109CA00004E09DF80730034A52F82330184602B00A
:109CB00010BD00BF200B002000B587B00190019BB4
:109CC00000221A72019B01225A72019B0022DA6063
:109CD000019B00221A66019B082283F86420019BE5
:109CE000FF229A66019B4FF47A721A60019B002250
:109CF0001A71019B6C330493049B0593049B3033CE
:109D0000039316E0059B0293029B72221A60029B4A
:109D1000114A9A60029B00221A73029B00225A7316
:109D2000029B00229A73029B0022DA73059B103378
:109D30000593059A039B9A42E4D1019B103319467F
:109D400001202DF0BBFB0246019BDA60019B184607
:109D500007B05DF804FB00BF0080045000B583B07D
:109D600001900091019B012B07D1009B4FF6FF72E0
:109D7000934202D10348FFF79FFF00BF03B05DF895
:109D800004FB00BFD840002082B003468DF80730A6
:109D90009DF90730002B13DB9DF8073003F01F02FD
:109DA00009499DF907305B09012000FA02F22033CE
:109DB00041F82320BFF34F8F00BFBFF36F8F00BF69
:109DC00000BF02B0704700BF00E100E000B583B003
:109DD0000190019803F02CF9019BB3F1B64F0ED11D
:109DE0001E4B0022C3F8E8241C4B0022C3F8EC24CD
:109DF0001A4B0022C3F8F0241B20FFF7C5FF019B7C
:109E0000174A93420ED1154B0022C3F8F824134B86
:109E10000022C3F8FC24114B0022C3F800251C20AB
:109E2000FFF7B2FF002301220521022003F062F8B0
:109E3000002301220421022003F05CF80023012208
:109E40000321012003F056F8002301220221012002
:109E500003F050F800BF03B05DF804FB00C00350EE
:109E60000080065000B587B00590049103920293DC
:109E7000029B002B08D0029B0093039B049A059938
:109E80000548FFF795FB02E0034829F058FF00BFA3
:109E900007B05DF804FB00BF741F002000B583B05D
:109EA00001900091009A019903482AF08FFD00BFAC
:109EB00003B05DF804FB00BFD840002000B583B0BC
:109EC000034600918DF807309DF8072013465B008C
:109ED00013441B0103F11402054B13440099184667
:109EE0002AF03DFF0346184603B05DF804FB00BFAF
:109EF00030C0035082B0034600918DF80730084807
:109F00009DF807200121009B994013465B001344F4
:109F10001B01034403F50153196000BF02B07047F1
:109F200000C0035082B0034600918DF80730084806
:109F30009DF807200121009B994013465B001344C4
:109F40001B01034403F58253196000BF02B0704740
:109F500000C00350012208B5074B1A700022074BBE
:109F60001A700422064B1A701F22064B1A7006F054
:109F700001FC054B186008BD480F0020DF6C002075
:109F8000470F0020460F002074410020024B034978
:109F900018682CF08CBC00BF7441002041330408C9
:109FA00070B50C4C0C49064620682CF080FC06F07D
:109FB000E1FB0546206806F0B3FB3046FFF7E6FFFD
:109FC000284606F0ADFB20680449BDE870402CF03F
:109FD0006EBC00BF744100204333040845330408BD
:109FE0002DE9F043434D89B001AC0FCD0FC495E886
:109FF0000700012584E8070001213A2001F048FE0E
:10A000003D4F0121292001F043FE3C4B384601A978
:10A0100003938DF8125003F0CBFF2B462946042200
:10A02000022002F067FF02212A460846002302F0C0
:10A0300061FF2B4604220321022002F05BFF042271
:10A040002B461146022002F055FF2D4C2D4B1026B9
:10A05000C4F834374FF00213C4F83037A3F5803317
:10A06000C4F838371C2304F50059C4F820374FF4DE
:10A07000487008F0EFF904F580581420C9F8A06082
:10A0800008F0E8F92320C8F8A06008F0E3F9B92146
:10A090003846C9F8A0602BF024FB002329461A4655
:10A0A0000220C8F8A06002F025FF002302211A4612
:10A0B000084602F01FFF2B4600220321022002F077
:10A0C00019FF2B4600220421022002F013FF38461C
:10A0D00003F0ECFE00212920C4F83417C4F830172F
:10A0E000C4F83817C4F8201701F0D2FD09B0BDE854
:10A0F000F08300BF4833040800C0055000127A0006
:10A1000000C0035002000300BFF34F8F0549064B08
:10A11000CA6802F4E0621343CB60BFF34F8F00BF05
:10A12000FDE700BF00ED00E00400FA054FF000631A
:10A130009B6A03F17842B2F5C04F03D21968064A10
:10A14000914203D0002303708360704701220270A4
:10A150009A689B694260F7E707B0CD5E73B54F4BD5
:10A1600004461A781AB102221A7002B070BDCDE905
:10A1700000220028F9D001261E702BF031F9484D3D
:10A18000484B186022F02EFF2B785BB900F04AFF95
:10A1900040B945480823454A454900681FF002F880
:10A1A00000B92E70434B5A6E62619B6E424AA361A6
:10A1B0004FF480439366414B5968E161404999608F
:10A1C000196E2160596E6160D3F87011A160196C2D
:10A1D000E160596C21613B49086C1864496C596411
:10A1E000012151661B6E9C0441D5374AD368D807BC
:10A1F000FCD4364B1A68531C3ED04FF48013934066
:10A20000334A13664FF400730426314C26662366E6
:10A210002AF0F5FE01300DD02AF0F1FE40F20113D4
:10A22000984207D04FF4005323664FF480432366CF
:10A23000C4F870610823264C684623664FF48053A7
:10A2400023664FF0006323664FF4002301A9636681
:10A250002AF0B9FE009B2366019B63662B78002BD6
:10A2600083D0124B1A6822665B6863667DE7194AE1
:10A27000D368D907FCD4BCE7174B1B78002BC1D19E
:10A280004FF400720C4B5A6603F5A6235B68002B53
:10A29000B8D14FF480120E4B1A66B3E7E16C002080
:10A2A000E26C002098410020C80B00209C41002057
:10A2B00000710800008000500090005000800044B1
:10A2C00055CEAC0000C0005400000440900B0020AC
:10A2D0000090004400000450E06C002070B5224D56
:10A2E00004462E78012E02D001232B7070BD002869
:10A2F000FCD02AF084FE01300BD02AF080FE40F220
:10A300000113984205D0194B194A5E66D368DE07DF
:10A31000FCD42268174B1A6662685A66A268C3F8B2
:10A320007021E2681A6422695A64E269D00744BF66
:10A3300000229A60104B1A68013207D10F4A127836
:10A3400022B90F494968C90748BF1A6062690D4BB5
:10A350005A66A2699A6622F04DFE0B4B18682BF0E4
:10A3600045F80023C1E700BFE16C002000900040E9
:10A370000000044000800044900B0020E06C0020AE
:10A3800000C00550008000509841002070B54FF08B
:10A390000064A36A03F17842B2F5C04F24D21A6870
:10A3A000134B9A4220D1134E337813F0FD0F02D095
:10A3B0000024204670BD1048FFF7D0FE01254FF461
:10A3C00080330E4A0E49C2F88051CB6015600D4AA9
:10A3D0001361A36ADB69984704460748FFF77EFFCD
:10A3E000002CE6D13570E3E74FF48174E1E700BF5C
:10A3F00007B0CD5EE06C00207841002000E100E075
:10A4000000A000440090004413B5204B1B7803B912
:10A41000FEE700231E4CCDE900336A4608231D49A0
:10A4200020681EF0BFFEF0B91B4AD2F84031D2F8C6
:10A4300040211F2B4FF0010310D9203A9340019A7D
:10A440001A43019208236A46124920681EF060FEF2
:10A450004FF00053114A1A60FFF756FE9340009ADE
:10A460001A430092EEE70E4B9842F1D10A4AD2F815
:10A470004031D2F840211F2B4FF0010385BF203A15
:10A4800093409340019398BF0093DBE7E16C002079
:10A49000C80B002000710800008000440B020FF080
:10A4A0000BE000F040B1054A1378012B04D803708B
:10A4B000013300201370704701207047E36C0020C7
:10A4C0000346054A0549106803448B428CBF4FF090
:10A4D000FF301360704700BF940B00200000042081
:10A4E0000348044A0449121A92102AF0D6BD00BF4C
:10A4F00068A2040868A20408E88F002008B500F0EC
:10A500002FF8FFF7EDFF124B12498B4212D30020B8
:10A51000114B12498B4218D3FCF70AFE186850F809
:10A520002240586840F82240013298688242F5D3B0
:10A530000C33EAE70022F8E71C6844F822000132F5
:10A540005C68A242F8D30833E4E70022F8E700BFD2
:10A55000CC9B0408D89B0408D89B0408D89B04080B
:10A560004FF480414FF0FF30114B124A10B59A6002
:10A57000D3F8882042F47002C3F888200E4A91660E
:10A580000E4901F5005210660D4850660220C3F8CE
:10A59000D000BFF34F8FBFF36F8F01244FF44033D0
:10A5A0000848C0F88041D36004600B6110BD00BF53
:10A5B00000ED00E0006000080090005000800044C2
:10A5C000F7FF370000E100E0014B1868704700BF5B
:10A5D0009C0B0020084B1B6F03F00703022B04D0D9
:10A5E000032B05D0012B05D0FEE7044B18687047FC
:10A5F000034BFBE703487047008000509C0B002092
:10A60000A40B0020002D310108B5FFF7E3FF054B37
:10A610001B6FC3F303330133B0FBF3F0024B18603D
:10A6200008BD00BF00800050980B00200048704714
:10A6300000B4C404014B1868704700BFA40B00208D
:10A64000054B1860054B1B6F03F00703032B01D16B
:10A65000FFF7DABF704700BFA40B00200080005056
:10A6600000487047002D31014FF0B4439868C0F3A3
:10A6700004400C280AD8DFE800F00B090909090991
:10A68000072119091B1D1F000F4870470020704744
:10A690009B6803F04073B3F1807F11D0B3F1007F6A
:10A6A00010D00A4A002B08BF104670470848704770
:10A6B000084870470848704708487047084870477E
:10A6C0000848704708487047405DC60000093D00D3
:10A6D000C0EA210180BA8C010048E801005A6202F8
:10A6E0000024F40080841E0040420F00014B1868D3
:10A6F000704700BFA00B00202DE9FF41036804460E
:10A70000B3F1B64F55D0354A93424FD12F20012196
:10A7100001F0BEFA01230A226179207902F0EAFBF6
:10A7200001230A22E179A07902F0E4FB0A2701263D
:10A730002B4D4FF030082379627908FB035306FA5A
:10A7400002F203F501531A60642007F083FE2379B7
:10A75000627908FB035306FA02F203F58253642080
:10A760001A6007F077FE013FE3D12068B0F1B64FE1
:10A7700021D10323C5F8E8346279237943EA0243FF
:10A78000C5F8EC34E279A37943EA0243C5F8F03422
:10A7900040F20113ADF80030E36869460293A36804
:10A7A0000193237C8DF80C3002F020FC04B0BDE84E
:10A7B000F0812E20ABE7094B9842E9D10323C5F87D
:10A7C000F8346279237943EA0243C5F8FC34E2792C
:10A7D000A37943EA0243C5F80035D9E70080065063
:10A7E00000C0035038B5054602F046FD044C012870
:10A7F00001D1013C00D138BD284602F031FCF6E71A
:10A80000E19304000F4B984215D00AD8A3F50043FA
:10A81000984212D003F5804398420CBF2520802037
:10A820007047094B98420AD003F5804398420CBF09
:10A83000282080207047262070472420704727203A
:10A84000704700BF000005500040055070B5044639
:10A8500088B00068FFF7D6FF0D460121064601F0DB
:10A8600017FA01213A2001F013FA2B790422A17979
:10A87000607902F03FFB0D22002168462FF0E0F8DE
:10A8800002238DF801302A4B217901932B7920681E
:10A890005A1E534253416A468DF80A302AF0C1FECF
:10A8A0002268244B9A423BD003F580439A4239D028
:10A8B00003F580439A4237D003F580439A4235D05E
:10A8C0001D481E49A3F5BC33A3F5CE73824208BFD1
:10A8D0000B46A0796279217942EA004243F82120AF
:10A8E000304601F0EFF92B682568B0FBF3F0013832
:10A8F0002B6BE8612379002405EB43132A6B214677
:10A900000F229C660DF111002FF09AF801232846C2
:10A9100004A98DF810302AF043FE204608B070BD1F
:10A92000074BD6E7074BD4E7074BD2E7074BD0E7F7
:10A9300000010300008004500080055004C703504C
:10A9400084C60350A4C60350C4C60350E4C60350D3
:10A95000012301790268114803FA01F1824216D0FD
:10A9600000F5804082420DD00D4B9A4211D003F584
:10A9700080439A420FD003F580439A4214BF4FF0B0
:10A98000FF330423074AB4335B01D15070470023DF
:10A99000F8E70223F6E70323F4E700BF0080045042
:10A9A0000000055000C003500123017902681148DE
:10A9B00003FA01F1824217D000F5804082420DD0A7
:10A9C0000D4B9A4212D003F580439A4210D003F502
:10A9D00080439A4214BF4FF0FF330423074A03F524
:10A9E0009A735B01D15070470023F7E70223F5E724
:10A9F0000323F3E7008004500000055000C003501B
:10AA000038B50446FFF7D0FF2068194B984227D08D
:10AA100003F58043984225D003F58043984223D024
:10AA200003F58043984221D01249134AA3F5BC3361
:10AA3000FC3B884218BF13460025227943F8225078
:10AA400003F0C0F92B462A46A179607902F052FA48
:10AA50002068FFF7D7FE294601F01AF9284638BDCD
:10AA6000064BE9E7064BE7E7064BE5E7064BE3E76E
:10AA7000008004500080055064C6035084C6035013
:10AA8000A4C60350C4C60350E4C603502DE9F04FDA
:10AA90009A46564B85B01B7806460F461546DDF89C
:10AAA0003C909DF844B0DDF85080002B00F097807A
:10AAB000072A00F296800E9B002B00F09280B9F1DD
:10AAC000000F00F08E80129BB3F5006F00F38980B9
:10AAD000012803D1109B002B00F08380444B03EB33
:10AAE00005131B7B002B7ED0424C102200216846B0
:10AAF0002EF0A6FF04EB45141022A7BB39462046D2
:10AB00002EF09EFF43F210036380BBF1000F03D1D0
:10AB1000E37843F00303E370364A0E9B02EB451CD7
:10AB2000CCE90193129B6901581E9DF84C30C0F38B
:10AB30000A0003F003039B0643EA001E53582E4805
:10AB4000012E00EA03004EEA0003CDF800A05350A6
:10AB500017D0B8F1000F2ED19CF8023068F304131F
:10AB60008CF8023027E0002120462EF069FF4FF4D8
:10AB700044736380BBF1000FCED1E37843F0300320
:10AB8000C9E713230CF1100ECCF80C309CE80F0031
:10AB90008EE80F006FF00301DCF81C20109B61F3BE
:10ABA0009F02012FCCF81C20CCF8143003D1CCF834
:10ABB0001890CCF8043000270D4A290102EB051348
:10ABC00042F80180159A28465A60694622469F60DD
:10ABD0005E7302F0CBFF384605B0BDE8F08F074842
:10ABE000FAE70748F8E70748F6E700BFE46C0020FB
:10ABF000A4420020A44100200F80FFF3028000F057
:10AC0000018000F0078000F038B5124B05461B7834
:10AC1000DBB1E0B12AF0E4FB0F4A00231146147BBC
:10AC200054B92B6001251A0101EB03131D738C50DD
:10AC30002AF0DCFB204638BD0133082B02F110025C
:10AC4000EDD12AF0D3FB0548F5E70548F3E70548C1
:10AC5000F1E700BFE46C0020A4420020048000F073
:10AC6000028000F0018000F038B52AF0B9FB002323
:10AC700005460B4A147B6CB90133082B02F1100214
:10AC8000F8D102F015FF074B28461C702AF0AEFBE6
:10AC9000204603E028462AF0A9FB034838BD00BF40
:10ACA000A4420020E46C0020058000F00D4B10B59C
:10ACB0001B78044693B1072812D82AF091FB0A4B5F
:10ACC00003EB04131A7B2AB100241C732AF08EFBB9
:10ACD000204610BD2AF08AFB0448FAE70448F8E74A
:10ACE0000448F6E7E46C0020A4420020068000F04F
:10ACF000028000F0018000F0154B13B518680023A6
:10AD000001908DF804302AF06BFB124B1C7824B1B3
:10AD10002AF06CFB104802B010BD01221A702AF014
:10AD200065FB0E4B01A81C731C7783F82C4083F83D
:10AD30003C4083F84C4083F85C4083F86C4083F8D7
:10AD40007C4008238DF8073002F0DEFE2046E2E763
:10AD5000B4330408E46C0020038000F0A442002017
:10AD6000F8B50D4D2D7885B1072810DC0B4D060187
:10AD700005EB0014277B67B1AB510025069BA5604E
:10AD8000636002F0F3FE2846F8BD0548FCE705487D
:10AD9000FAE70548F8E700BFE46C0020A442002071
:10ADA000028000F0018000F0078000F00A4A08B538
:10ADB00012785AB107280BD8084A02EB00131B7B04
:10ADC00043B1002102F092FE002008BD0448FCE7D8
:10ADD0000448FAE70448F8E7E46C0020A4420020A5
:10ADE000028000F0018000F0078000F00A4A08B5F8
:10ADF00012785AB107280BD8084A02EB00131B7BC4
:10AE000043B1012102F072FE002008BD0448FCE7B6
:10AE10000448FAE70448F8E7E46C0020A442002064
:10AE2000028000F0018000F0078000F00A4A08B5B7
:10AE3000127852B107280AD8084A02EB00131B7B8C
:10AE40003BB102F0DFFE002008BD0548FCE70548E5
:10AE5000FAE70548F8E700BFE46C0020A4420020B0
:10AE6000028000F0018000F0078000F00D4B1B789D
:10AE700093B1072812D889B10B4B03EB00131B7B4E
:10AE800073B10A4B1A6D01238340134214BF01238F
:10AE9000002300200B707047054870470548704735
:10AEA00005487047E46C0020A442002000000450D4
:10AEB000028000F0018000F0078000F00B4A10B51E
:10AEC00012780C4662B107280CD859B1084A02EB37
:10AED00000131B7B43B102F0A7FE2070002010BDC1
:10AEE0000448FCE70448FAE70448F8E7E46C00206B
:10AEF000A4420020028000F0018000F0078000F0F2
:10AF0000184B2DE9F0411F6D5B6D1F4000D5FEE72A
:10AF100001260025144CDFF85880374218D02368EA
:10AF2000C8F85060A3B1A168284601316268A160E9
:10AF30009847637B012B0BD150B90C4B03EB4513A6
:10AF40001A7B60F341021A731A7F60F341021A7789
:10AF50000135082D4FEA460604F11004DDD1BDE8A5
:10AF6000F08100BF00000450A4420020A441002052
:10AF70000020045070B5044601250B4E04B970BD85
:10AF800094FAA4F0B0FA80F005FA00F306EB001290
:10AF900024EA03045368002BF0D0117B11B19168AF
:10AFA0009847EBE79847E9E72443002008B51920C4
:10AFB00001F048FB28B14FF00072074BC3F8802125
:10AFC0001A601A2001F03EFB28B14FF08062024B5C
:10AFD000C3F880211A6008BD00E100E0074BD3F8F8
:10AFE0002404D3F8202403F50053104000F055301A
:10AFF00020F05020C3F82004FFF7BCBF00C003506E
:10B00000074BD3F82404D3F8202403F50053104051
:10B0100000F0AA3020F0A020C3F82004FFF7AABF58
:10B0200000C00350024B1968024B18681DF096BF10
:10B03000A80B0020C80B002070B5940022460546DE
:10B040000E4637F04DFC431C0AD058B92246314613
:10B0500028462EF0CBFC0028034808BF002070BD16
:10B060000248FCE70248FAE710E000F021E000F0B7
:10B0700024E000F010B5044637F02EFC431C10D03D
:10B0800088B902F065FE234620F003002044984270
:10B0900001D1002010BD53F8042B0132F7D0034832
:10B0A000F8E70348F6E70348F4E700BF0EE000F0D6
:10B0B00021E000F024E000F008B52AF08AF9014B05
:10B0C000186008BD144C0020014B18682AF085B99F
:10B0D000144C002038B50546B0B1B9B1B2B1B2F5E3
:10B0E000006F13DC2AF07CF995F84C3003F0FF0474
:10B0F0001BB12AF07BF9064838BD012385F84C3096
:10B100002AF074F92046F7E70248F5E70248F3E72A
:10B11000032000F0012000F0022000F02DE9F047AC
:10B1200016460022436390F85C300446894686B098
:10B1300080F85420C663002B38D14FF44063056873
:10B140006B614369092B03D905F12C08443506E0EE
:10B150000BBF05F1200805F1240838353C35676937
:10B160004FF0000A082F94BF0027012720462AF03D
:10B17000E0F8134B0494CDE902730196CDF800A0DA
:10B180004346216B04F13802A06A29F0C0FF012375
:10B19000CDE903AACDE9016700932A464B46E16A4F
:10B1A000606A29F09AFF06B0BDE8F087012BFAD15A
:10B1B00000682AF000F8256805F13C08C6E700BFE2
:10B1C000F552030801292DE9F84304D90239012970
:10B1D00027D9BDE8F883234B234E1C68234FDFF8A3
:10B1E0009880803C14F1800FF3D0D4F800900521B2
:10B1F00048462AF03EF91E4B994510D01D4B994503
:10B2000014BF3D4645462AF0E4F82B6843F0180386
:10B210002B602AF0E2F8D4F88040803CE2E7354623
:10B22000F1E7104B104E1C68104FDFF84C80803C4B
:10B2300014F1800FCDD023680D4A934210D00D4AEF
:10B24000934214BF3D4645462AF0C3F82B6823F0CD
:10B2500018032B602AF0C1F8D4F88040803CE7E75F
:10B260003546F1E7184C002094C4035074C40350D1
:10B270000000015B00000A50B4C403502DE9F04106
:10B280000B687E4A8EB0934205460C460DF11808B5
:10B2900003D07B4A934240F0DA804746794ECDF89E
:10B2A00014800FCE0FC796E80F00103687E80F0006
:10B2B0000FCE01AF0FC7002D00F0C7808422002100
:10B2C00028462EF0BDFB23686C4A934214D06C4A8A
:10B2D000934200F09C806C4E6C4B1B681BB96C4910
:10B2E0006C4806F067F9694805F1800129F0BAFE5B
:10B2F00030460EB0BDE8F08156204FF47022002792
:10B3000065492B600123A44685F85C302E1DC5E9F4
:10B310000B122865BCE80F000FC69CE80F0086E8FA
:10B320000F00637E012B08BF8DF81D30A37E23B173
:10B33000012B72D104238DF81230227EE368012A9A
:10B340004FF0000270D155498DF811208B429CBFFF
:10B3500005238DF83530524B01213A20039300F03C
:10B3600097FC0121286D00F093FC2369DA1F092A5C
:10B37000B1D8063B8DF81030237E2BB9E37EB3FAAB
:10B3800083F35B098DF81C300121284629F01EFF4C
:10B3900006460028A0D1237A217941EA03417B01A6
:10B3A00003F1A04202F57032C2F8AC14607A617900
:10B3B00041EA0041C2F8A414A07AA17941EA00410F
:10B3C000C2F8A814E37E93BBE17AE37943EA014330
:10B3D000C2F898341D23C2F89434206801A901F002
:10B3E000C1FC29F0FDFF2F4B1A7812BB01221A7005
:10B3F00029F0FCFF06F014FDFFF77EFC002105F1AB
:10B400002400FFF701FC0146B0B1274E64E7572046
:10B410004FF480120127254973E7022B8BD0032BB1
:10B420007FF459AF062386E78DF8342094E71C2378
:10B43000D1E729F0DBFFDFE705F12800FFF7E4FBA8
:10B44000064600283FF448AFDFE7194E44E746467A
:10B45000184F0FCF0FC697E8070086E80700002DAA
:10B4600000F0CF808422002128462EF0E9FA2368DC
:10B47000114A934222D0044E3AE700BF0000015B1C
:10B4800000000A50DC330408022000F0184C0020B1
:10B49000CC0B00201C4C002001000F003F4B4C0047
:10B4A00040420F00E56C0020092000F00100100070
:10B4B000012000F01034040800C0055029222E4657
:10B4C0002A654FF4802227464F48C5E90B0246F80B
:10B4D000043B0FCF0FC697E80F0086E80F00637E8E
:10B4E000012B08BF8DF82630A37E2BB1012B67D12D
:10B4F0004FF40073ADF82830237E0121012B03BFE8
:10B5000000238DF825304FF4E133E3683A200893A7
:10B5100000F0BEFB0121286D00F0BAFB23691A1F61
:10B520000C2AA8D8033B414620688DF8243002F04D
:10B530003FFDA36923F47F0323F47F4323B92A68E3
:10B54000936843F480339360237A2079617940EAE9
:10B550000340637AA27941EA0341E67EA37A42EA94
:10B5600003422A4BBEBB1D26C3F82067C3F8380729
:10B57000C3F83017C3F83427E17AE27942EA01428E
:10B58000C3F824270121284629F020FE064600287A
:10B590007FF4AEAE29F024FF1D4B1A782ABB01229E
:10B5A0001A7029F023FF06F03BFCFFF7A5FB0021F2
:10B5B00005F12400FFF728FB0146C8B1154E97E6B8
:10B5C000022B02D14FF4807394E7032B7FF453AF27
:10B5D0004FF440738EE71C24C3F82047C3F83807A4
:10B5E000C3F83017C3F83427CCE729F0FFFEDCE7B7
:10B5F00005F12800FFF708FB064600283FF478AE67
:10B60000DCE7054E74E600BF0200040000C00350F2
:10B61000E56C0020092000F0012000F070B590F8E2
:10B620005C50044665B1012D57D10368404A9342EE
:10B6300056D0404A934279D12E464FF0FF3501E073
:10B640004FF0FF36A06AFFF7F1FB606AFFF7EEFBF1
:10B650000021204629F0BAFD237F012B03D104F1FC
:10B66000600006F017FC94F85C30002B3AD120689B
:10B6700002F01CFC94F85C20002A39D16B0103F124
:10B68000A04101F57031C1F82027C1F83827C1F871
:10B690003027C1F83427E37F0BB9C1F824370021E4
:10B6A000206D00F0F5FA606AFFF700FBA06AFFF773
:10B6B000FDFAFFF7D9FAA36D002B04DD0123204624
:10B6C000A36529F0FFFD1C4D04F18001284629F0F7
:10B6D000CDFC2B6833B3002070BD4FF0FF36ACE7D4
:10B6E0000026AAE7012BC5D1206801F079F9C1E74E
:10B6F000012AD4D100217001104B00F1A04202F5C3
:10B70000703203EB4616C6F8AC14C2F8A414C2F8A3
:10B71000A814E27F0AB9C6F8982400220344C3F8AB
:10B720009424BCE7064805F057FFD4E70548D3E763
:10B730000000015B00000A50184C002000C00350BC
:10B740001C4C0020022000F02DE9F0419846037FB8
:10B750000546012B0E4617460CD0FFF7BBFC0446EE
:10B7600028B943463A4631462846FFF7D7FC2046DB
:10B77000BDE8F081004CFAE7082000F070B5037FC7
:10B780000446012B0D4616460DD0FFF7A3FC48B921
:10B79000324629462046054BFFF7C0FC204629F0DB
:10B7A0007FFDA06C70BD0248FCE700BFAD510308EF
:10B7B000082000F0044BD3F88420D206FBD4D3F841
:10B7C0008400C0F3811070470040005038B5104B22
:10B7D0000546D3F880300C4603F00303022B0BD050
:10B7E000032B0DD0012B0FD1FEF7F4FE0E2305B174
:10B7F000286004B1236038BDFEF736FF0723F6E763
:10B80000FEF7E2FE0623F2E700231846EFE700BF4B
:10B810000080005038B5184B0546D3F820010C467F
:10B8200000F00700062823D8DFE800F0040A0E160F
:10B83000121A1E00012305B1286004B1236038BD2F
:10B84000FEF7C2FE0523F6E7FEF7F4FE0323F2E758
:10B85000FEF70AFF0723EEE7FEF702FF0223EAE7FF
:10B86000FEF7B2FE0623E6E7FEF7E4FE0423E2E776
:10B8700000231846DFE700BF0080005038B5174BA3
:10B880000546D3F828310C4603F00703013B052B8E
:10B8900020D8DFE803F003131B0F0B17FEF794FE0D
:10B8A000052305B1286004B1236038BDFEF78CFE86
:10B8B0000623F6E7FEF7D8FE0723F2E7FEF7BAFE07
:10B8C0000323EEE7FEF7B6FE0423EAE7FEF7C8FE21
:10B8D0000223E6E700231846E3E700BF008000509C
:10B8E00073B50D460021114B0191D3F880410646F6
:10B8F00004F00304022C13D0032C0CD0012C13D120
:10B9000001A8FFF787FF10240EB1019B336005B13A
:10B910002C6002B070BDFEF7A7FE07240190F3E78C
:10B92000FEF79EFE0190EFE70C46EDE70080005029
:10B93000002337B50193164B0546D3F820320C4649
:10B9400003F00703042B21D8DFE803F0030B1116E3
:10B950001B0001230DB1019A2A6004B1236003B0DA
:10B9600030BD002101A8FFF789FF1223F2E7FEF79F
:10B970007BFE07230190EDE729F09CFB0A23019051
:10B98000E8E7FEF7B3FE09230190E3E70023E1E7D0
:10B990000080005038B5104B0546D3F840310C46B6
:10B9A00003F00303022B0BD0032B0DD0012B0FD17F
:10B9B00029F080FB0A2305B1286004B1236038BD5B
:10B9C000FEF794FE0923F6E729F077FB0C23F2E754
:10B9D00001230020EFE700BF00800050002337B5AF
:10B9E0000193164B0546D3F860320C4603F007036B
:10B9F000013B032B1FD8DFE803F0020E19140021CE
:10BA000001A8FFF707FF10230DB1019A2A6004B1C6
:10BA1000236003B030BD002101A8FFF7BBFF112355
:10BA2000F2E7FEF721FE07230190EDE7FEF718FE8F
:10BA300002230190E8E70023E6E700BF0080005002
:10BA4000002337B50193164B0546D3F894320C46C4
:10BA500003F00703013B032B1FD8DFE803F0020EBE
:10BA60001914002101A8FFF7D5FE10230DB1019A8A
:10BA70002A6004B1236003B030BD002101A8FFF7A4
:10BA800089FF1123F2E7FEF7EFFD07230190EDE7B1
:10BA9000FEF7E6FD02230190E8E70023E6E700BF9A
:10BAA0000080005038B5144B0546D3F800020C4610
:10BAB00000F0070004281BD8DFE800F003090D118F
:10BAC0001500012305B1286004B1236038BD29F0B9
:10BAD000F1FA0A23F6E7FEF709FE0923F2E729F057
