:020000040800F2
:1000000008100020710100085D2600080122000888
:100010005D2600085D2600085D2600085D260008B4
:100020005D2600085D260008842800085D2600087B
:100030005D260008342800085D2600085D260008BB
:100040005D2600085D2600085D2600085D26000884
:100050005D2600085D2600085D2600085D26000874
:100060005D2600085D2600085D2600085D26000864
:100070005D2600085D2600085D2600085D26000854
:100080005D2600085D2600085D2600085D26000844
:100090005D2600085D2600085D2600085D26000834
:1000A0005D2600085D2600085D2600085D26000824
:1000B0005D2600085D2600085D2600085D26000814
:1000C0005D2600085D2600085D2600085D26000804
:1000D0005D2600085D2600085D2600085D260008F4
:1000E0005D2600085D2600085D2600085D260008E4
:1000F0005D2600085D2600085D2600085D260008D4
:100100005D2600085D2600085D2600085D260008C3
:100110005D2600085D2600085D2600085D260008B3
:100120005D2600085D2600085D2600085D260008A3
:100130005D2600085D2600085D2600085D26000893
:100140005D2600085D2600085D2600085D26000883
:100150005D2600085D2600085D2600085D26000873
:100160005D2600085D2600085D2600085D26000863
:1001700008B50D4B83F30A880C4B09A1D1E90001A6
:10018000C3E9000101F0DAFC00F05AFA01F0C8FC02
:1001900001F0A0FC01F0B2FC00F0E8F9AFF3008040
:1001A000A5EDF5FEA5EDF5FE0800002008100020E5
:1001B0000348044B834202D0034B03B118477047F6
:1001C000181000201810002000000000064B0749FE
:1001D000C91A891048BF0131491003D0044B0BB133
:1001E00001481847704700BF181000201810002061
:1001F0000000000010B5064C237843B9FFF7D8FF84
:10020000044B13B10448AFF300800123237010BDE9
:100210003010002000000000302A000808B5054B0F
:100220001BB105490548AFF30080BDE80840FFF762
:10023000CDBF00BF0000000018100020302A0008C9
:1002400037B500F1006303F500430193104B0D46F1
:10025000984214461AD8019A0E4B9A4216D2019A25
:100260009B1AA34212D348B94FF000639B6A0A4A13
:100270005969914202D9186900F0A8FA2246294624
:10028000019803B0BDE8304001F04FBF03B030BD6E
:10029000FF7FFFF700E01708008000087FB56FF0D0
:1002A000006200F178419142034619D26D460D4A31
:1002B00002F110062C4610685168083203C4B2429D
:1002C0002546F7D15A1E04A90F3311F8014D12F833
:1002D000010F844204D19A42F7D1012004B070BDCD
:1002E0000020FBE720280008F0B50368044603F16E
:1002F0006043B3F5802F9FB033D84FF000639B6A03
:1003000042681E6996422CD8344B9A4229D8456BD4
:1003100006F14002AA425ED89D425CD82846FFF70B
:10032000BDFF002857D0284601F032FF80B16B692D
:1003300073B1022B0ED1AB69C4F1040119444FF023
:10034000FF32204600F0BCFE254BC31A58425841EC
:100350001FB0F0BD40F2046328460293FFF79EFFF2
:1003600008B90020F4E74FF000635F6B3846FFF7F1
:1003700095FF0028F5D0A6F150039F42F1D82846FA
:1003800003A901F00CFF0028EBD0039DAE42E8D892
:10039000AC42E6D8114B9D42E3D804A800F054FFCC
:1003A00021462A1B04A802F050F804A802F04FF8D6
:1003B00000F05AFF044600F075FF234600902946DE
:1003C00005F1200204A800F0BFFE02900298B0FAE6
:1003D00080F04009BCE70120BAE700BF0000180820
:1003E000E320BBDE70B54FF0FF3290B005460C46FF
:1003F00000F066FE1C4B984232D14FF480621B4BDA
:1004000000219A6601A81C2202F0CBF9184B29465C
:100410006846043C009302F041F92146684602F028
:100420003DF9684602F043F901F076FE0646B8B998
:1004300040F2022000F076F91C22314609A802F0B1
:10044000B0F90C4B294608A8089302F027F908A830
:10045000214602F023F908A802F029F901F05CFE18
:10046000002010B070BD00BFE320BBDE0090004054
:1004700001000543010006434FF4806230B5044695
:10048000154B91B09A6600211C2201A802F089F94F
:10049000124B21466846009302F000F9684602F0CC
:1004A00006F901F039FE054698B940F2022000F045
:1004B00039F91C22294609A802F073F9084B08A84B
:1004C0002146089302F0EAF808A802F0F0F801F0DB
:1004D00023FE002011B030BD009000400000024318
:1004E000000003434FF4806210B50F4B8CB00446FC
:1004F0009A6600211C2205A802F053F90B4B0194C7
:100500000493012302930A4B01A904A8039302F068
:10051000BBF804A802F0CBF801F0FEFDB0FA80F0C1
:1005200040090CB010BD00BF00900040000008431F
:1005300004000020004870470080000838B50C46D1
:10054000054680B179B100230B60074B036002F0D0
:1005500063F801301EBF2B6843F4C0432B6023684F
:1005600043F40023236038BD0C12000813B501A822
:1005700001F034FC9DF80530012B14D19DF80430B6
:100580008BB94FF480122A4B2A49586E03F58053D9
:100590005A664B6BC00223F0E05343F040634B6359
:1005A0005CBF254B5A664FF04023D3F884201106D8
:1005B00006D44FF400621A67D3F88420D206FBD425
:1005C00001F010FE00F0A0F808B900F085F801F085
:1005D00091FF044658B900F097F808B100F08CF884
:1005E00040F2012000F0C8F84FF4017018E000F06C
:1005F0008BF808B900F078F800F0A0F8012802D9CB
:1006000000F06AF8FEE700F0A5F80C4B0193019B9F
:10061000002B0ADC40F205439C42E5D140F2032066
:1006200000F0AAF8002002B010BD019B013BEDE7ED
:10063000008000400040004A00A0004000350C004F
:10064000012307B58DF806308DF807304FF04023B1
:10065000D3F894305A060FD500F0A2F8A0F2022089
:1006600080B2072808D8C923C340DB0742BF002354
:100670008DF806308DF80730154B5B68013308D1D3
:100680004FF4027000F04EF800238DF806308DF81C
:1006900007309DF807305BB10D48FFF725FE8DF858
:1006A00006009DF806301BB94FF4027000F03AF8CE
:1006B0009DF806304BB100F027F808B100F01CF8A7
:1006C0000348044B986001F091FD03B05DF804FB12
:1006D0000060000800ED00E04CF23C32014B5A8013
:1006E000704700BF000000204AF6C032014B5A801C
:1006F000704700BF000000204FF20F02014B5A80EC
:10070000704700BF000000204AF6C030044B5B88F1
:1007100023F00F039BB21B1A58425841704700BF89
:1007200000000020044A08B51080FFF7EDFF10B963
:100730004FF20F03538008BD0000002008B5FFF7FB
:10074000E3FF18B1024B588800F00F0008BD00BF4E
:100750000000002008B5FFF7D7FF48B1054A5388CD
:1007600003F00F010F2914BF013323F00F0353804F
:1007700008BD00BF0000002008B5FFF7D3FFBFF39E
:100780004F8F0549054BCA6802F4E0621343CB6002
:10079000BFF34F8F00BFFDE700ED00E00400FA0556
:1007A0004FF20F01084B5A888A4201D118887047CE
:1007B0003AB91B8840F20220012B18BF4FF4007099
:1007C00070474FF400707047000000204FF48032F3
:1007D00008B5044B9A6601F02DFAB0FA80F0400992
:1007E00008BD00BF00900040072BF8B506460F4635
:1007F00014461D4601D90020F8BD0121202001F03A
:10080000ABF90121212001F0A7F98CB144EA0603DC
:100810009B07F0D14FF48032064B31469A6628464A
:1008200023463A4601F06AFAB0FA80F04009E3E75D
:100830000120E1E700900040134610B562B1034388
:100840009B070BD14FF48034054B9C6601F01AFADC
:10085000B0FA80F0400910BD0120FCE70020FAE763
:100860000090004030B5024600230C25054905FBE9
:1008700003F460180C59944203D001330C2BF6D1C9
:10088000002030BDCC280008F0B50023082787B031
:10089000CDE9013315463B46009704AA044601F012
:1008A00042FD41F203039842064623D194F84330B7
:1008B00053B13A46E06C04A901F0C7FD04AA3B46D7
:1008C0001146A06C01F0B0FD059A049B6A6094F893
:1008D00043202B6052B9094A934207D0084A9342F9
:1008E00004D00822E06C04A901F0AFFD6B68236519
:1008F00000236365304607B0F0BD00BFF70A0AF772
:10090000FC0404FC2DE9F04799465B6804460F4659
:100910009046002B3FD08B0740D14FF000639B6A7D
:10092000006E1B6981181D1DA9421BD31C33984200
:1009300018D2A842024638BF2A46994294BFC2EB59
:10094000010AC2EB030A101A3E18C5F168001044F0
:1009500031465246204401F02CFF5246FF213046DA
:1009600001F01FFF226E0F4B9A420BD80E4902EB8B
:100970000800884206D39B1AFA58C4F880204FF02A
:10098000FF32FA50D9E9003542463946206EA84771
:10099000236E434423660020BDE8F08741F2020045
:1009A000FAE700BF04800008088000082DE9F04144
:1009B00000254FF0FF3704468846164603F0200313
:1009C00080F842301822FF21C0E91855A0F84050A5
:1009D00080F84350A0F8445080F84650C0F8887022
:1009E000683001F0DEFE88222946C4E91286C4F888
:1009F0008070C4F8847004F1900001F0D2FE074BBF
:100A0000C4F82071C4E9463584F8245116B1304643
:100A100000F01AFC0020BDE8F08100BF00010101D8
:100A20002DE9F04FA5B09946CDE9112300230446E6
:100A30000E464FF001082E9D1393139978E094F819
:100A400046300C2B70D8062B4BD908FA03F212F45F
:100A5000286F40F00F8212F4885F40F0BA810A2BB1
:100A600066D1DFF8BCA3636D072B00F228814FF03D
:100A7000080B382316AA2046CDE90188CDF800B02E
:100A800011A901F050FC41F203030A900A9A9A421C
:100A900000F03F810A9B5BE0A3F10E02052A00F201
:100AA0009482DFE812F006030600F50036023602F3
:100AB00004030027636D0F2B00F28A80102314AA11
:100AC000009320464023CDE9018711A901F02BFCBA
:100AD00041F203030890089A9A4200F0CB80089BE9
:100AE00036E0013B052B27D8DFE813F074006E00D9
:100AF0000600C401DC007B010127636D072B00F2B7
:100B0000DE80082314AA009320464023CDE9017714
:100B100011A901F008FC41F203030B900B9A9A42D1
:100B200000F021810B9B13E0A3F10D02062AB3D93B
:100B3000494584D3002065E014AA204611A9FFF797
:100B4000A3FE41F203020590059B934208D0059B4A
:100B5000049341F20303049A9A423FF46EAF50E0CB
:100B6000159A1499226500226265AB4A914240F0C1
:100B70000781022284F84620EAE7082314AA00939A
:100B800020464023CDE9018711A901F0CCFB41F2B9
:100B900003030690069A9A4201D0069BD8E7149B5D
:100BA00003F07F43B3F1407F05D0132384F8463030
:100BB00041F20903CCE7159BD90706D594F84230DA
:100BC00043F0010384F842300027636D072BD4D92A
:100BD000012303E1204614AA11A9FFF755FE41F2B3
:100BE00003030790079F9F420FD0079F41F2030323
:100BF0000497049A9A423FF420AF049B0BB1002360
:100C0000F370049825B0BDE8F08F1498FFF72AFE22
:100C100028B9132341F2080784F84630E6E7437900
:100C200094F824219A4205D9132341F20E0784F83F
:100C30004630DBE7026879498A4205D00289D2074B
:100C400048BF013384F8243194F84230D9070DD5D8
:100C5000028994F84330920706D53BB1132341F241
:100C6000010784F84630C1E7002BF7D0037984F8F8
:100C70004630BBE7D4F848A000F032FB80230221C5
:100C8000CDE9000315AA0123504600F031FA11E71F
:100C9000226D0123A265002284F84330E26584F8C6
:100CA0004630CAE600213C2215A81491012701F024
:100CB00078FDD4E91432934204D884F8467041F2A6
:100CC000030345E7009314AA40232046CDE90177AA
:100CD00011A901F028FB41F203030990099A9A42F5
:100CE00001D0099B34E70DF1500C06F108030DF11A
:100CF000680E624603CA724518605960944603F153
:100D00000803F6D110681860337843F0010333709C
:100D1000CFE7337843F004033370179BB3627378E3
:100D20005F071CD50020236DCDF850A0C4F8843097
:100D300094F84530606643F0020384F84530EF686C
:100D40006FB104222B6814A9B847606E2B685A460D
:100D5000EF6816A90830B847636E103363660B233B
:100D600084F846307FE6337843F002033370149BF7
:100D70007360236D083B7362159BB3F1006F05D060
:100D8000132384F8463041F20103E1E6042384F89A
:100D9000463094F8453043F0010384F84530002391
:100DA0006366AAE6042314AA009320464023CDE9F3
:100DB000017711A901F0B7FA41F203030C900C9AE4
:100DC0009A4201D00C9BC3E6226D149B042A01D9E0
:100DD00023660127636D032BE4D9092384F8463089
:100DE0006DE700236366072359E79F4252D89F426D
:100DF00028BF1F46402314AA2046CDE9018800974A
:100E000011A901F090FA41F203030D900D9A9A4254
:100E100011D00D9B9CE600BFEB17A603F90707F95D
:100E2000EB17A65E402F28BF40279F4228BF1F46D2
:100E300027F00307DEE794F846B0BBF1070F2FD089
:100E4000042FC7F1040A88BF4FF0000A14AB5246C2
:100E5000FF21D81901F0A5FCBBF1090FBA442DD12F
:100E60002B465246204614A9FFF74CFD0D900D9BD2
:100E7000002BCED1D4E914739F427FF6A9AEFF1A9E
:100E8000DDE912329B1A94F84020032F1344ACD9A9
:100E9000032BC7D8204611A901F024FA002357E6F6
:100EA000D5F808A0BAF1000FCAD02B683A46606E98
:100EB00014A9D047636E3B446366DBE7BBF1040FC4
:100EC0001DD173789807D5D5EB68002BD2D0626E10
:100ED000042A0BD80AEB0203062B07D915AB9B1A81
:100EE0001A68C4F884204FF0FF321A60EF682B684C
:100EF0005246606E14A9B847636E5344DCE7BBF1F9
:100F00000B0FB7D173785907B4D5EF68002FEED126
:100F1000B0E74FF000618A6A496B1269503A91421A
:100F20003FF631AF112B0FD194F81831002B7FF41D
:100F30004FAE41F206030E930E9A9A4202D113234A
:100F400084F846300E9B03E694F84430002B7FF47F
:100F50003FAECDE90133402314AA0093204611A9E6
:100F600001F0E1F941F203030E900E9A9A42E9D1A1
:100F7000E06C01F06CFA94F81831A3B104F1B403F9
:100F80000093E06C04F194031CAA14A900F0DCF8AF
:100F90000E900E9BA3B10023F370132384F8463008
:100FA00041F20603D4E5D4F84CA000F05DF9074601
:100FB00000F078F93B4600901CAA504614A9E5E7DA
:100FC0000123F37084F8443002E600234FF0040854
:100FD000CDE9013314AA40232046CDF8008011A9A1
:100FE00001F0A1F941F203030F900F9A9A4202D047
:100FF0000F9B049305E6D4F888202F4B9A4205D026
:10100000132384F8463041F20503F2E70123F3701D
:1010100094F84530DA0707D5EF682FB142464046CD
:101020002B6804F18401B84794F845309B0707D535
:10103000EF682FB104222B68104604F18401B847F1
:10104000236E6BB36F685FB34FF0FF3304F180081A
:101050000422414610A8109301F093FB20B1042212
:1010600041462B681548B84704F1680904224946EF
:1010700010A801F086FB98B14FF000639B6A142220
:10108000D3F8108004F16C0108F10800D5E90037AD
:10109000B847D5E900370422494608EB0200B847B3
:1010A0000123B3700E2384F846300023A1E7002308
:1010B000F37041F20700A5E5E320BBDE04800008E1
:1010C00030B50824094B00255C66012403F5FE2396
:1010D0005C6001449D601A61DC60884201D1586AFD
:1010E00030BD10F8012B1A62F7E700BF00900040F6
:1010F0002DE9F04116464FF480621D46114B00F178
:10110000200804469A6640460F4601F01BFBDDE9C5
:101110000612404601F01AFB002384F858706364FD
:101120003368C4F859307368C4F85D30B368C4F8E4
:1011300061302B0C6DBA84F86530A4F86650BDE8B8
:10114000F08100BF009000402DE9F04315464FF4B8
:1011500080621C46364B99B0DDF880900E460746FB
:101160009A66002861D000295FD0002D5DD0002C48
:1011700058D0304B304AB9F1000F14BF9846904612
:101180001C22002111A801F00CFB2C4B414610A899
:10119000109301F083FA202110A801F07FFA0122B8
:1011A000274B019402920393CDF810900592069379
:1011B00054B1B9F1000F07D001A910A801F05AFAF3
:1011C00004A910A801F056FA079701271C4C07A99B
:1011D00010A80897099401F04DFA0AA910A80A96D8
:1011E0000B970C940D950E970F9401F043FA0DA9EF
:1011F00010A801F03FFA10A801F059FA114B009322
:101200004FF098435A6CD202FCD55B6D40F20460FB
:1012100003F470230093009B002B08BF002019B03B
:10122000BDE8F083DFF81080AAE740F20160F6E73E
:10123000009000401F2400801F24FC840000010651
:1012400020000020785634124FF4806210B5044616
:10125000044B9A6601F0FEF82046BDE810400021DC
:1012600001F0FCB8009000404FF4806200B50B4BD9
:1012700099B09A6600212022684601F092FA402334
:101280000021684608AA00F0EBFD20F010000128BC
:10129000034818BF002019B05DF804FB009000401F
:1012A0004CE317084FF4806200B50B4B99B09A6677
:1012B00000212022684601F074FA4023002168468C
:1012C00008AA00F0CDFD20F010000128034818BF47
:1012D000002019B05DF804FB009000406CE3170893
:1012E0000048704786E217082DE9F3471446DDE908
:1012F0000A920D461F4600284DD14CB313683F2B70
:101300002AD8516851B32549002F14BFB8468846E2
:1013100003F03F061B19136022BF5368013353606B
:10132000FEB93F2C0ED9A3092A46009341463B46FD
:10133000002000F083F824F03F031D4404F03F0434
:1013400034B100262246294609EB060001F031FAA5
:10135000002002B0BDE8F087B846D9E7DFF83C804E
:10136000D6E7C6F1400A5445ECD32946524609EB6C
:10137000060001F01EFA0123264400934A463B462C
:1013800041460020A6F1400400F058F83F2C554497
:10139000D6D9B846C7E70248DBE700BF9C2900085A
:1013A00080AFFFFF2DE9F0411746146886B01E4656
:1013B000E3008DF80F3063098DF80E30630B8DF864
:1013C0000D30630D8DF80C3053680546DA0002EBE2
:1013D00054728DF80B2004F03F045A09372C8DF815
:1013E0000A204FEA53324FEA53538DF809208846BA
:1013F00094BFC4F13802C4F17802CDE900178DF82A
:1014000008300D4903460020FFF76EFF08222B46E7
:101410000020CDE900870DEB0201FFF765FF2846AC
:1014200005F1200350F8042B984246F8042BF9D11B
:10143000002006B0BDE8F0815C290008F0B5174631
:101440004FF480621D46254B93B00E469A660446C3
:10145000202200210AA801F0A4F901204FF0005237
:1014600001970290039204960590069207950890C2
:101470000992002C2FD1189C194BA40121460AA8CF
:101480000A9301F00BF9039B04A91C430394069BE8
:101490000AA843F020030693099B43F02003099315
:1014A00001F0E8F801A90AA801F0E4F807A90AA8E0
:1014B00001F0EAF80AA801F0FAF84FF098435A6CE4
:1014C000D202FCD55B6D13F4702F14BF6FF06F0068
:1014D000002013B0F0BD6FF07100FAE700900040FB
:1014E000000401032DE9F041A2B0502204460D464C
:1014F0000EA8002101F055F93422002101A801F0C5
:1015000050F901A800F02AFA049B012B11D80023FE
:1015100020466A1E9D424FEA82024FF0FF0108BF3B
:101520001A4640F8043B01F03CF9002022B0BDE827
:10153000F081AB425DD300F01FF9059B0C220EA990
:101540000646DF6801F033F80028EFD1DFF8AC8001
:101550000E9B434515D1109A0EA9304601F027F88D
:101560004FF0FF3210990EA8FFF7AAFD224B9842C8
:101570002ED0FF212046AA0001F013F940F20650B8
:10158000D4E737440C2238460EA901F010F80028A1
:10159000CCD10E9B434507D0FF212046AA0001F085
:1015A00000F940F20550C1E70EA93846109A00F044
:1015B000FEFF059B3046D96801F030F80028B5D110
:1015C0003046109A0EA901F002F80028C3D0ADE70A
:1015D000109E11A9103EB608AE4228BF2E46B70095
:1015E0003A46204601F0E5F8AA1BFF219200E019D7
:1015F00099E740F2045099E7E320BBDE39528FE1CE
:1016000044222DE9F043A3B00C46814600210DEBA6
:10161000020001F0C6F8012350262E4A0021CDE930
:101620000E2301A83422109601F0BBF801A800F0A7
:1016300095F9049BA34249D3012B0AD8D9F800306D
:1016400040F204500133022B38BF002023B0BDE824
:10165000F08300F091F8102C28BF1024059B4FEA6E
:101660008408DF68424649460744054611A801F050
:10167000A0F8C4F110040EAB08F10C001844FF21CF
:10168000A20001F08EF84C214FF0FF320EA8FFF7B8
:1016900017FDC043059B2190D968384600F0BEFF76
:1016A0000028D3D1324638460EA900F090FF00281A
:1016B000CCD1059B2846D96800F0B0FF0028C5D1E1
:1016C000324628460EA900F082FFBFE740F20450E0
:1016D000BCE700BF39528FE110B5ADF50E7D4FF478
:1016E0000D72002001A900F033FF40F20124002117
:1016F00001A800F004FFA042F9D040F20323984271
:1017000004D040F205400DF50E7D10BD9DF804306B
:1017100059070DD49DF804309A0719D4DB07F0D58A
:1017200004998A9800F07EF90028EAD00020EAE7C0
:101730000B9800F047FD0028ECD08A9800F030F9B3
:101740000028E7D00B48FEF797FE0028E2D1D8E743
:101750004FF00062926A029992689142DED98A98AB
:1017600000F03CF90028CCD00A990248FEF73AFE76
:10177000C7E700BF00800008004870470040040829
:1017800031B10A4B5A68824205D80023C1E90033BF
:1017900040F201407047013053F8302003EBC003A2
:1017A0005B6800200A604B60704700BF202A000879
:1017B00070B40C4611461A460D4B5D68854210D92F
:1017C000013003EBC0056D68A618AE420DD8A542E6
:1017D0000BD3954209D353F83000204470BC00F07D
:1017E000E6BE40F2014070BC704740F20240FAE7AA
:1017F000202A000830B5CA681B4B04469A420D46A1
:10180000A3B019D1FEF796FED4F82432174A01335B
:1018100052F83330D4F82C221344984208D3803342
:10182000984209D241F20D03C4F8303223B030BDE2
:1018300000F5C0309842F5D88023D4F82C1202AAC3
:10184000D4F82402FFF7B4FF80232146009502AAB2
:1018500004F12C00FFF7E4F8D4F82C32C4F830027D
:101860008033C4F82C32E1E741020008202A000846
:1018700070B50D46002186B00DF1070302931C4B95
:1018800004461646116028461C22CDE903338DF824
:101890000710059300F085FF9DF8072032B9D4F8B2
:1018A00030321BB9D4E98A31994219D32378990788
:1018B00044BF61683160DB0709D504F1080304F116
:1018C000240153F8040B8B4245F8040BF9D162B99B
:1018D000237840F20640002B18BF002006B070BDF0
:1018E000204602A9FFF786FFD6E70020F6E700BFF3
:1018F000F924000870B40C4611461A460D4B5D6879
:10190000854210D9013003EBC0056D68A618AE42C0
:101910000DD8A5420BD3954209D353F8300020448B
:1019200070BC00F054BE40F2014070BC704740F201
:101930000240FAE7202A0008074B5A68824207D97A
:10194000013003EBC002516853F8300000F066BE6E
:1019500040F20140704700BF202A000870B50546DC
:1019600088B0C0B14FF4403200236C46C0E9002378
:101970000A4B05F114061A785B680272C360684668
:1019800000F082F80FCC0FC694E80F0086E80F0035
:1019900005F114032B6108B070BD00BF202A0008B8
:1019A00000B5ADF5137D4FF40D7205A900F0D0FD23
:1019B00078B904238DF81530074BCDE90100039069
:1019C00001A905A8049300F0D7FD0DF5137D5DF87E
:1019D00004FB0020F9E700BF410200084FF000635C
:1019E00000B59B6AADF5137D9B688B4204D3002044
:1019F0000DF5137D5DF804FB4FF40D7205A900F0A1
:101A0000A7FD0028F3D102238DF81530044BCDE952
:101A10000100039001A905A8049300F0ADFDE7E7DC
:101A20004102000800B5ADF5137D4FF40D7205A914
:101A300000F08EFD78B901238DF81530074B019029
:101A4000CDE90230049001A905A800F095FD0DF53F
:101A5000137D5DF804FB0020F9E700BF6F2100084B
:101A6000B1F5C01F0BD800F17843B3F5C01F06D8FD
:101A7000044B084498428CBF00200120704700208E
:101A8000704700BF0000180870B504460646044DB4
:101A90000FCD0FC495E80F0084E80F00304670BDED
:101AA000002A00084FF48032014B00209A667047EC
:101AB00000900040024BD86900F00100704700BF61
:101AC000000003404FF48032014B00209A667047BB
:101AD00000A00040064B0748DA1C121AC11E22F073
:101AE0000302994288BF0022034900F062BE00BF92
:101AF00018100020101000203C2A0008064B074850
:101B0000DA1C121AC11E22F00302994288BF002279
:101B1000002100F046BE00BF341000201810002045
:101B20000348044A0449121A921000F098BD00BFFD
:101B3000442A0008442A000834100020044B054AB7
:101B40009A60D3F8882042F47002C3F88820704766
:101B500000ED00E000000008430905D0012B0CD087
:101B6000022B084B18BF002300F01F0039B103F50A
:101B70008053012282401A607047034BF4E703F55B
:101B80000053F6E76880004064800040F0B5114AD9
:101B9000114C124E00F00105E3695F0713D40DB933
:101BA000334213D103EA00078F4207D10B4A1A4090
:101BB000002A0CBF00206FF00100F0BD013AEBD10C
:101BC0006FF00200F9E74FF0FF30F6E76FF0010029
:101BD000F3E700BF80969800000003400200010078
:101BE00070B5134C6061E3695B071ED40E4656F86E
:101BF000043B8D18A361AE420BD1042300212120A8
:101C00002361FFF7C3FF58B9BDE870402120FFF7FB
:101C1000BDBF08210846FFF7B9FF10B104232361B7
:101C200070BD56F8043BA361E5E74FF0FF30F7E7DE
:101C3000000003404FF4803238B50E4B0E4C9A66CC
:101C4000E56941F6713315400122E3630B4B002136
:101C5000DA600223606121202361FFF797FF10B94A
:101C60002120FFF793FF0122054BDA600DB100231D
:101C7000E36338BD009000400000034000100340C3
:101C8000002003402DE9F84315464FF48032184BED
:101C900089469A6603F51C33DF690646174041F60C
:101CA0007132DA63012203F58053DFF84C80DA6089
:101CB00055B9284601220F4BDA601FB10022A3F567
:101CC0000053DA63BDE8F88306F5005404EA08041B
:101CD000A41BAC4228BF2C46494622463046FFF79B
:101CE0007FFF0028E6D12644A1442D1BE0E700BF7A
:101CF000009000400020034000E0FFFF2DE9F04F7E
:101D000001274FF4302530268400DFF8C0C004F1ED
:101D1000402404F58024CCF80470656000244FF45E
:101D20008035DFF8ACE0DFF8AC9006FB00E6F46548
:101D300034663467234CDFF8A0A0A56641F6713500
:101D400004F51C34D4F81C80E563E56807FA00F05C
:101D50003D43E5604BB9E26818F4803F22F0010290
:101D6000E26029D10020BDE8F08F01F5005505EAB9
:101D700009056D1A9D4228BF1D466161D4F81CB04B
:101D8000AF081BF0040F19D1013F3F0147F0605726
:101D90007766B266C6F86CA0CCF82400DEF8347022
:101DA0003842FBD0084F294478630427CCF8280038
:101DB0002A4427615B1BCDE7E363D3E74FF0FF3095
:101DC000D1E700BF00900040002004400010044014
:101DD0000000044000E0FFFF180003404FF4803291
:101DE000064B5A6603F5E6239B69C3F3851282709E
:101DF00003F03F021B0B42700370704700900040DD
:101E00004FF48062014B00209A66704700900040BA
:101E10004FF48062014B00209A66704700A000409A
:101E200008B5B0B14FF480620B4B9A6600F03FFCEE
:101E30004FF098435A6CD202FCD54FF48062586D33
:101E4000064B10F470209A6604D0BDE8084000F0FC
:101E50004BBC212008BD00BF0090004000A0004006
:101E60001FB5044660B35AB3402B29D1930727D13D
:101E7000042925D8DFE801F0031A24221E004FF4BC
:101E8000807310490B4323600023C4E90133E361ED
:101E90000123019202930C4B204601A9039300F009
:101EA000F3FB2046FFF7BCFF04B010BD4FF40073F6
:101EB0000449E7E705494FF48063E3E70149FAE79E
:101EC0002120F1E7010008FF40000020000008FF8A
:101ED0002DE9F041012905460E4690461F4692B075
:101EE0004AD8046824F04003802B02D0B4F5807FE8
:101EF00045D11C2200210BA800F053FC234A244B9F
:101F00000121012E08BF13460A932B1D0193E408FB
:101F1000204B44F0005402910AA80394CDF810809D
:101F2000059106930797089101A9099300F0A2FB78
:101F300004A90AA800F09EFB07A90AA800F0A4FBC8
:101F400029680AA8C90800F0A9FB10210AA800F016
:101F5000A5FBFFF755FFA8B90AA800F0A8FB4FF0B2
:101F600098435A6CD202FCD55C6DFFF751FF04F424
:101F7000702012B0BDE8F0816FF02000F9E76FF03B
:101F80007100F6E74FF0FF30F3E700BF00010004F7
:101F900000010104100000202DE9F04F074689469A
:101FA0009846164699B082B115683B6823F0400206
:101FB000802A03D0B3F5807F40F0A68000244C45F2
:101FC00005D306B1356000207BE01546EDE75DB135
:101FD000239B229A1B5D525D01355340249A05F0E4
:101FE0000F0513550134EAE7A9EB040ABAF10F0F04
:101FF0000BD8239B03EB040A249B1C44239B03EB79
:10200000090BDA4560D14C46D9E71C22294611A8B4
:1020100000F0C7FB3E4B3A6810933B1D0193012330
:10202000D20842F00052029303923A4ACDF810804F
:1020300005930692CDF81C8008930992239A24995F
:1020400022442AF00F0A0A9221444AF000520B93CC
:1020500010A80C920D9101A90E930F9200F00AFBAB
:1020600004A910A800F006FB0AA910A800F002FBC2
:102070000DA910A800F008FB07A910A800F004FBA8
:10208000396810A8C90800F009FB514610A800F0F3
:1020900005FBFFF7B5FE90B910A800F008FB4FF064
:1020A00098435A6CD202FCD5586D544400F4702BFE
:1020B000FFF7AEFEBBF1000F9BD0584601E04FF09A
:1020C000FF3019B0BDE8F08F55B1229A1AF8013BE4
:1020D000525D0135534004F8013B05F00F0590E7D0
:1020E000424601213846229BFFF7F2FE0028E8D144
:1020F00008F1100212F8013D0133DBB21370002B1E
:10210000E3D19045F6D1E0E76FF01F00D9E700BFBB
:1021100003030004100000204FF098435A6CD202D1
:10212000FCD5586D00F470207047C0F30C032DE906
:10213000F04105460F4616460BB9FEF747FB05F57D
:10214000005424F4FF5424F01F0405EB0608A045B6
:1021500007D8324639462846BDE8F0410223FEF74B
:1021600043BB2046FEF732FB04F50054EFE770B4A2
:102170004FF00065AD6A03462E69864206D86C6949
:1021800013449C4202D370BCFFF7CFBF70BC7047B2
:10219000036913F0FE0F0CBF01200020704738B513
:1021A00004460D46FEF77AF838B16369012B07D172
:1021B0002046FFF7EDFF10B1A46901202C6038BD67
:1021C0000020FCE74FF0FF3313B5044601A801934C
:1021D000FEF788F920B1019BA3422CBF002001200B
:1021E00002B010BDFFF75EBCFFF76CBC034618469B
:1021F000016881F3088881F3098840688746FEE713
:102200004FF40170FEF7B8BAB1F50D7F10B5044672
:102210000FD34FF40D72002100F0C3FA04F5DE7203
:1022200004F5AA7104F12C000023BDE81040FEF76C
:10223000BDBB40F2052010BD13B504460091014618
:102240002C30FEF7EDFBC4F8300218B141F2070361
:10225000984204D1A37823B1E07800F2022002B0C2
:1022600010BD40F20120FAE72DE9F04387B00DF1EF
:10227000080904460E4617460021102248461D460E
:10228000DDF8388000F08DFA00211C22C8F800101B
:10229000284600F086FA32463B462146CDF80090AB
:1022A00004F12C00FEF7BCFB23789A0744BF626858
:1022B000C8F80020DB0709D504F1080304F1240263
:1022C00053F8041B934245F8041BF9D1237840F2DC
:1022D0000640002B18BF002007B0BDE8F0834FF484
:1022E0000D70704770B5D1E90152AA4205D290F83D
:1022F00040302B449B1A402B10D9002012E00A6872
:1023000090F84040D65C90F841200133224402F01E
:102310003F02013486548B6080F840408B689D42B8
:10232000EDD8012070BD2DE9F84390F840C0174664
:102330009E46D1E90123089DD21A62449542044683
:102340000E469DF824909DF828800AD9FFF7CAFF11
:10235000002867D1132341F2020084F84630BDE81B
:10236000F883754555D8002394F840200AB19D4262
:1023700035D1D6E90121914201D29D4241D89D42F9
:102380004DD129463846D4F88820FEF799FEC4F886
:102390008800B9F1000F04D02A463946E06C00F0FD
:1023A00054F894F84330B8F1000F06D08BB12B46A7
:1023B0003A463946A06C00F037F894F8433043B100
:1023C000E36DA26D2B449342E36524BF002384F8A0
:1023D0004330636D41F203002B446365BFE794F81B
:1023E0004120A25CFA5494F841200133013202F0FA
:1023F0003F0284F8412094F84020013A84F84020BC
:10240000B2E73268525CFA54B26801330132B2600A
:10241000AFE741F20100132384F846309FE741F211
:102420000200F8E700209AE71FB50C46194600F1B4
:102430004803CDE90142009300F1440200F1580342
:102440002030FFF7A9FD04B010BD00F00CB8014624
:1024500000F016B86822002100F0A3B9034600205E
:10246000C3E90000704707B500F12803019000930D
:1024700000F108030020FEF737FF03B05DF804FB0E
:1024800002460B4600F128010830FEF78BBF30B53D
:102490009FB034220021054601A800F082F901A86E
:1024A000FFF75CFA049C012C1ED921460EA8FFF709
:1024B00019F818B140F2055398420ED100230EAA24
:1024C00052F8041B481C0AD11EAA02EB83032146C2
:1024D0000EA843F8405CFFF793F81FB030BDA94247
:1024E00005D001339C42EBD140F20250F5E740F2B7
:1024F0000350F2E7FFF7F0B801221A7070471FB5DA
:102500000023CDE90033CDE90213D0F83032044680
:1025100093B9D0E98A329A420ED26946FFF76AF936
:10252000D4F8300270B141F2070240F20123904228
:1025300008BF184604B010BDA37833B1E07800F2AC
:102540000220F7E740F20120F4E740F20220F1E731
:1025500037B50C46054611462046FFF755FE48B9EB
:1025600069462846FFF70CF920B9019BC4F82452AC
:10257000C4F8283203B030BD38B500F5DE72044629
:102580000D46202300F5AA712C30FEF70FFAD4F87F
:1025900030321BB9D4E98A329A4203D3A07800B111
:1025A000E07838BD29462046FFF724F9EFE738B533
:1025B0000C4611460546FFF753FA28B12946204636
:1025C00000F0F7F8002038BD40F20240FBE738B5D4
:1025D0000D4611460446FFF743FA80B940F2024027
:1025E00038BDE158013114D104339A42F9D8AB0710
:1025F00007D1022329462046FEF7F6F805E000231E
:10260000F3E729462046FEF717F90028E6D0002018
:10261000E6E740F20340E3E70220704738B541EABD
:102620000003C3F30C0304460D46A3B9FFF718FAE1
:1026300010B940F2024038BD2544204604F500544C
:10264000FEF7C4F8A54202D00028F6D1F1E7002831
:10265000EFD00020EFE740F20440ECE7FEE710B5D2
:102660003AB1002350F8234041F8234001339A4205
:10267000F8D110BD436813B9416070475B685A6870
:10268000012AFBD159607047836813B98160704794
:102690005B685A68012AFBD159607047C369032BF4
:1026A0009FBF00EB83020133D160C3617047C369F0
:1026B000042B14D84FF09842116CC902FCD5043396
:1026C0009B0013650168103B11604168116050F870
:1026D000081F11604FF098420344984200D17047A0
:1026E00050F8041F1160F8E7B0F5802F22D010D801
:1026F000B0F5003F20D007D818B3B0F5803F08BF31
:10270000482018BF01207047B0F5403F08BF2C207B
:10271000F7E7B0F5302F11D007D8B0F5E02F0FD084
:10272000B0F5202F08BF1020EBE7B0F57F0F08BFF2
:102730000620E6E74B2070472A207047112070479B
:10274000212070472422002100F02BB870B51546D7
:102750000E4624220021044600F023F825F0400311
:10276000802B02D0B5F5807F08D12046314640F855
:10277000045BEA0800F01DF8002070BD6FF01F0038
:10278000FBE70139024410B5904201D1002005E079
:10279000037811F8014FA34201D0181B10BD01307E
:1027A000F2E702440346934200D1704703F8011B4D
:1027B000F9E70A44431E914200D1704710B511F861
:1027C000014B914203F8014FF9D110BD0000000008
:1027D00000000000000000000000000000000000F9
:1027E000F8B500BFF8BC08BC9E467047F8B500BFFE
:1027F000F8BC08BC9E4670470000000000000000C6
:1028000000000000000000000000000000000000C8
:1028100000000000000000000000000000000000B8
:10282000B814B6F1E0CFF3ADB7DD25C9FA79B71327
:102830000000000013B779FAC925DDB7ADF3CFE08A
:10284000F1B614B80102000000000000442A0000A4
:102850004000000000000402000000000000000032
:102860000000000000000000000000000000000068
:102870000000000000000000000000000000000058
:102880000000000007B0CD5E02000000000004025E
:10289000482A00000060000800001808F004010049
:1028A000E5210008E9210008E902000809220008E2
:1028B00039220008BC29000869220008DF2200082C
:1028C000000000003D05000835050008EB17A603D1
:1028D0000201000003000000FA0606FA0F040000DF
:1028E00003000000F40A0AF40505000001000000DE
:1028F000EB17A65E0A06000001000000F50909F5C5
:102900000307000001000000F60808F606080000B2
:1029100000000000FE0101FE0808000000000000A9
:10292000FD0303FD0C08000000000000F90707F993
:102930001009000002000000F30B0BF3110A000065
:1029400003000000F70A0AF7120B00000300000062
:10295000FC0404FC0D0C00000300000080000000DB
:102960000000000000000000000000000000000067
:102970000000000000000000000000000000000057
:102980000000000000000000000000000000000047
:102990000000000000000000000000006A09E66777
:1029A000BB67AE853C6EF372A54FF53A510E527F70
:1029B0009B05688C1F83D9AB5BE0CD19000100003B
:1029C0005D19000881170008B1170008F518000804
:1029D0003919000801160008E51400088F240008C2
:1029E00051250008FF24000871180008B51A0008D6
:1029F000AF250008CF2500081D260008192600086D
:102A00001002030028000000280000000020000041
:102A1000000018000000000004000000000000405A
:102A20000100000001000000004004080000030055
:102A30003C2A000810100020020000001D020008BF
:042A4000F501000894
:10600000C00A002001940008F5250308F5250308BF
:106010001F420308F5250308F5250308F5250308A5
:10602000F5250308F5250308F52503086162000836
:10603000F5250308E8060408F1610008A5440308F3
:106040000D930008F5250308F5250308F525030839
:10605000F5250308F5250308F5250308F5250308AC
:10606000F525030885380108C5630308F5250308ED
:10607000F5250308F1370108C1630308F525030876
:10608000F5250308D7F00208F5250308F5250308D0
:10609000F5250308319B0008F5250308F5250308BD
:1060A000F5250308319C00080D9C00089D8200081E
:1060B000E98200087DD9020801E4020859F20308C8
:1060C00055F20308A9DB020865F203085DF2030834
:1060D000D9E3020861F2030841E40208ADE40208D2
:1060E000F5250308F5250308F5250308F52503081C
:1060F000453C0308F5250308F5250308F5250308A5
:10610000F5250308F5250308F5250308F5250308FB
:10611000F5250308F5250308F5250308F5250308EB
:10612000F5250308F5250308F5250308F5250308DB
:10613000F5250308F5250308F5250308F5250308CB
:10614000F52503083DC80008F52503082D4303087D
:1061500075C20208F5250308B9EE0308BFEE03086F
:10616000F5250308F5250308F5250308F52503089B
:10617000013800D0FCE7704700000000000000007C
:106180000B4A1168086806C881F30B88022181F365
:106190001488203080F30988BFF36F8F4FF0000020
:1061A00080F31188104700BFAFF30080AFF3008089
:1061B0003456002000000000000000000000000035
:1061C00007480068006880F3088862B661B6BFF3CC
:1061D0004F8FBFF36F8F02DF00BF00BFAFF30080B0
:1061E00008ED00E0000000000000000000000000DA
:1061F000EFF309801EF0100F08BF20ED108AEFF3B7
:106200000B82734620E9FC0F114A116808604FF0B9
:10621000300080F31188BFF34F8FBFF36F8F0BF007
:106220004BFD4FF0000080F31188094A116808689F
:10623000B0E8FC0F13F0100F08BFB0EC108A82F327
:106240000B8880F309881847AFF30080AFF3008014
:106250003456002000000000000000000000000094
:106260001EF0040F0CBFEFF30880EFF30980044920
:10627000084700BFAFF30080AFF30080AFF30080AA
:106280007F450308000000002DE9F04FC76997B073
:106290008346209E08910C92129355EC104B8DED85
:1062A000000B7FB910200FF055FE0246CBF81C0002
:1062B00020B9A74BEF21A74810F06EFAC0E901778B
:1062C0000760C760DBF81C30196859B15A680123B0
:1062D000584693404A608B6010F014FBDBF81C308A
:1062E00000221A602B1EB7BF23F0004300230122B7
:1062F0000193A8BF3360019F974BB8BF3260BB4387
:1063000019D142F20F73129A1360C7F31303234398
:1063100000F0DB85219B53B9904B21E0904B039318
:106320000833219A1360039817B0BDE8F08F8B4BA8
:1063300003930333F5E79DED007B0022002351EC2E
:10634000170B8DED0A7B0EF0DFF8804650B101236C
:10635000129A1360219B13B1824B219A1360824BD6
:106360000393E0E7C7F30A5614AA15A958469DED12
:106370000A0B10F04FFD0290002E76D00B9BA6F278
:10638000FF36CDF84C80C3F3130343F07F53DDE9B0
:106390000A0143F4401319460022744B0DF094FC9B
:1063A00065A3D3E900230DF047FE65A3D3E90023DD
:1063B0000DF08CFC04460D4630460DF0D3FD62A373
:1063C000D3E900230DF038FE02460B46204629464D
:1063D0000DF07CFC04460D4628F0DEF8002207464E
:1063E0000023204629460EF099F840B138460DF0BA
:1063F000B9FD22462B460EF087F800B9013F162F53
:1064000052D85B4B03EBC703DDE90A01D3E9002354
:106410000EF084F8002849D0013F00231193149B0B
:106420009B1B5A1E4CBFC3F101030023079245BFBB
:106430000693002306930793002F39DB079B1097E1
:106440003B44079300230993089B092B66D8052B2F
:10645000C5BF043B002401240893089B023B032B87
:1064600067D8DFE803F02D3A3859DDE914631E449C
:1064700006F23243202BC9BFC3F14003C3F120030E
:106480009F4006F21243D8BF04FA03F006F1FF362C
:10649000C4BF24FA03F347EA03000DF053FD0122C1
:1064A000A1F1F873139276E70123B7E71190B6E7ED
:1064B000069BDB1B06937B42099300231093C3E7E3
:1064C00000230D930C9B002B56DC012399461A46A2
:1064D00004930C920CE00123F3E700230D930C9B33
:1064E000FB1803F1010904934B46012BB8BF0123AC
:1064F000DBF81C000021042202F114059D423FD963
:106500004160584610F0BEF9039000283BD1194B6A
:10651000024640F2AF11CEE60123DFE7012400235B
:106520000D9408934FF0FF330022994604931223F1
:10653000CFE701230D93F5E761436F63A787D23F50
:10654000B3C8608B288AC63FFB799F501344D33F62
:10655000D91F0408F01F04080000F07FD51F0408AD
:10656000CC1F0408A91F0408A81F04080000F83F56
:1065700040220408492004080C9B99460493B7E77D
:1065800001315200B8E7DBF81C30B9F10E0F039A65
:106590001A606FD8002C6DD0002F36DD07F00F0287
:1065A000A04BF8054FEA271403EBC20393ED007BE1
:1065B0008DED0E7B17D59C4B04F00F044FF00308B4
:1065C000D3E90823DDE90A010DF060FECDE9000101
:1065D000954D5CB9DDE90E23DDE900010DF056FEB5
:1065E000CDE900012BE04FF00208F1E7E10709D502
:1065F00008F10108DDE90E01D5E900230DF01CFDCD
:10660000CDE90E0164100835E3E700F007817C4214
:10661000844B854D4FF0020804F00F02241103EB68
:10662000C203DDE90A01D3E900230DF005FD0023D3
:10663000CDE90001002C40F0E580002BD0D1119B6A
:10664000DDE90045002B00F04C810022774B20460D
:1066500029460DF063FF002800F04381B9F1000FD7
:1066600000F03F81049B002B00F3E480DDE90A3455
:10667000CDE90034159B002B02DB0E2F40F3428244
:106680000D9A002A40F06782099C0025DDF81880E9
:10669000B8F1000F0DD0079B002B0ADD4345069A89
:1066A000A8BF4346D21AA8EB03080692079AD31A4A
:1066B0000793099B0BB30D9B002B00F0A682002CC7
:1066C00000F0A18229462246584610F045FA029A67
:1066D00001460546584610F095F902990646584677
:1066E00010F010F9099B1B1B099300F09182099A85
:1066F0003146584610F030FA02900121584610F009
:106700006BF9109B0446002B00F084821A46014668
:10671000584610F021FA089B0446012B03DC009B2D
:10672000002B00F07C820026236904EB83031869A8
:1067300030F091FDC0F120001096079B184410F036
:106740001F0000F09182C0F12003042B40F38182EE
:10675000C0F11C00069B034480440693079B03443E
:106760000793069B002B05DD1A460299584610F048
:106770004DFA0290079B002B05DD21461A4658462C
:1067800010F044FA0446119B002B00F0768221465B
:10679000029830F0AFFD002880F26F8200230A22B9
:1067A0000299584610F0D0F80D9B7E1E0290002BE7
:1067B00000F05C82002329460A22584610F0C4F8F3
:1067C000049B0546002B03DC089B022B00F35E8232
:1067D000B8F1000F05DD29464246584610F016FA7A
:1067E0000546109B002B00F0D0826968584610F0D7
:1067F00049F80746002840F07F820D4B024640F2E0
:10680000EF2158E5E20706D508F10108D5E9002394
:106810000DF012FC0123641008350BE74FF002085D
:106820000DE700BF40220408182204080000F03FD2
:106830004920040820460022AC4B29460DF0FCFB01
:106840007E1E08F10108049CCDE9000140460DF0D0
:1068500089FBDDE900230DF0EFFBA54B00220DF0D5
:1068600035FAA1F15073CDE90E010F93002C3BD105
:106870000022A04BDDE900010DF026FA02460B468E
:10688000CDE90023DDE90E230DF066FE002840F07F
:106890005781DDE90E2101F10043DDE900010DF032
:1068A0003DFE00283FF4E2AE002425460C9BDDF8B7
:1068B0000CA0DE434FF000082146584610F022F8A5
:1068C000002D00F0A980B8F1000F05D0A84503D035
:1068D0004146584610F016F82946584610F012F86E
:1068E0009AE03E464C46B1E7834B03EBC40353E9C1
:1068F0000201039B1C440D9B002B4AD002460B4611
:1069000000207E490DF0C2FCDDE90E230DF0DCF91C
:10691000DDF80CA0CDE90E01DDE9000127F03CFE19
:1069200005460DF01FFB024630350B46DDE9000140
:106930000DF0CAF90AF8015B02460B46CDE90001E9
:10694000DDE90E010DF008FE002865D100206C493C
:10695000DDE900230DF0B8F902460B46DDE90E0132
:106960000DF0FAFD002840F00D81A24500F0EA800C
:1069700000225E4BDDE90E010DF05EFB00225B4B59
:10698000CDE90E01DDE900010DF056FBCDE9000176
:10699000C2E7DDE90E230DF04FFBA046DDF80CA0A9
:1069A000CDE90E01DDE9000127F0F6FD05460DF009
:1069B000D9FA024630350B46DDE900010DF084F9C5
:1069C0000AF8015B02460B46A245CDE900234FF0D1
:1069D000000223D1494BDDE90E010DF077F90246A3
:1069E0000B46DDE900010DF0B7FD002840F0CA803C
:1069F00000204249DDE90E230DF066F902460B4600
:106A0000DDE900010DF08AFD70B1C24608F1FF38E2
:106A10001AF8013C302BF8D0374655E0334B0DF0D7
:106A20000BFBCDE90001BDE7DDE90A34CDE9003417
:106A3000159B002BFFF628AE0E2F3FF725AE2E4BF1
:106A400003EBC70393ED007B0C9B002B8DED047BC8
:106A500002DAB9F1000F64D0DDF80CA0DDE90045E1
:106A6000DDE90423204629460DF010FC27F094FDB3
:106A700006460DF077FADDE904230DF0DDFA024653
:106A8000204606F130040B4629460DF01DF90AF8A0
:106A9000014B039C02460B46AAEB0404A14540F0BF
:106AA00082800DF013F904460D46DDE904230DF054
:106AB00053FD002865D120462946DDE904230DF069
:106AC00023FD08B1F3075CD4029958460FF01AFF72
:106AD000002301378AF80030129B1F60219B002B96
:106AE0003FF421ACC3F800A01DE400BF0000244027
:106AF00000001C4000001440402204080000E03F59
:106B00000000F03FA24B03EBC70393ED007B0C9B0F
:106B1000002B8DED047B9FDAB9F1000F9CDC7FF434
:106B2000C3AE00229B4BDDE904010DF085FADDE9DF
:106B300000230DF007FD044600287FF4B5AE3E4665
:106B40002546B4E0DDE90A34CDE90034159B002B7D
:106B500001DB0E2FD6DD089A012A36DC139A82B3A8
:106B600003F23343099CDDF81880069A0121584648
:106B70001A440692079A1A4407920FF02DFF054611
:106B800086E53E4653469A4613F8012D392A06D12A
:106B9000039A9A42F7D13022039901360A701A7883
:106BA00001321A7038E700227B4B0DF045FA0022C3
:106BB000002304460D460DF0A7FC00283FF450AF1B
:106BC00082E7149BC3F13603CCE709F1FF34099B3C
:106BD000A34208DBB9F1000FA3EB04040EDBDDF8E0
:106BE00018804B46C1E7099B109AE31A0994DDF817
:106BF000188000241A444B461092B6E7069BA3EB7C
:106C000009080023B1E7029E71E5099A029970E52F
:106C1000029672E5089B012B17DC009BABB9019B28
:106C2000C3F313039BB9019B23F00046360D3605D1
:106C300036B1069B012601330693079B0133079368
:106C4000109B002B7FF470AD1096012075E5002697
:106C5000F6E73FF486AD1C33069A1A449844069230
:106C6000079A1A4407927CE50346F4E7049B002B3D
:106C70002BDC089B022B09DC27E0B9F1000F1DDC9F
:106C8000089B022B1ADD3E46CDF81090049B002B8A
:106C90007FF40CAE2146052258460FF055FE014602
:106CA0000446029830F026FB00287FF7FFADDDF8A0
:106CB0000CA0312301360AF8013BFBE50D9B3E4653
:106CC000CDF81090002B7FF483AD039F21460298EE
:106CD0002FF0F9FF039B00F13009049A07F8019B9C
:106CE000FB1A9A4240F3CB8000230A2202995846AD
:106CF0000FF02AFE0290E9E72A6905F10C010C3039
:106D0000023292002FF05AFF0122394658460FF006
:106D10007DFF039BA846054603F1010ADDE9032335
:106D200013440793009B03F0010309930AF1FF3317
:106D30002146029804932FF0C6FF4146069000F1C9
:106D40003009029830F0D6FA2A46214607465846BE
:106D50000FF0C8FFC268014602B358460FF0D2FDDB
:106D6000002F3ADA0122029958460FF04FFF2146D0
:106D7000029030F0BFFA002803DC29D119F0010F8E
:106D800026D0B9F1390F1DD132E02846C1E700BF46
:106D90004022040800001440000024400A90029899
:106DA00030F0A8FA0A990C9058460FF0ABFD0C9AF7
:106DB0005ABB089B53B9099B43B9B9F1390F17D096
:106DC000002F05DD069B03F1310901E0002F2ADACF
:106DD000DDF810A00AF8019B6EE5089B3B4304D147
:106DE000009B03F00103002BBCD0B9F1390F36D161
:106DF000049F392307F8013BBA46013F1AF8013CCA
:106E0000392B5AD001333B7056E5002F06DB089B27
:106E10003B4306D1009B03F0010313B9002AA1DC18
:106E2000D6E7002AE1DC079B57460AF8019C534548
:106E30002ED000230A22029958460FF085FDA8455E
:106E400002904FF000034FF00A02414658460BD122
:106E50000FF07AFD804605460AF1010A66E7DDF883
:106E600010A009F10109B5E70FF06EFD2946804633
:106E700000230A2258460FF067FD0546ECE7049B05
:106E80004FF00008002BCCBF1F460127039B1F4477
:106E90000122029958460FF0B9FE2146029030F0C7
:106EA00029FA0028A8DC02D119F0010FA4D1BA46B2
:106EB00017F8013D302BFAD0FEE4039BBB429BD177
:106EC0003123039A01361370F6E4219B002B7FF4E3
:106ED00025AA014BFFF744BACC1F040800000000AC
:106EE000002370B5404C05468AB0E36318B10088B2
:106EF000236015F0EFFB3D4837F00FFD3C4E3D4B56
:106F0000304633603C4B736032F0A0FF00213046C6
:106F100020F06CFD32A3D3E90023A062C4E906236C
:106F200032F09FFFD4E9062319431043C4E9060158
:106F3000CDE900014FF0FF334FF0FF32A06A37F088
:106F400039FD02224FF0FF31A06A37F038FD0120F1
:106F500015F042F94FF4007300222849A06A37F077
:106F60007FFDB0F5007F38D100239422CDE90733AF
:106F700009933C23CDE9033205939623A06A03A924
:106F8000069320F051FE35B3287C15F05BFD0546D5
:106F9000F0B9A06A37F042FE15F002FD15F0FEF8D8
:106FA00020B14FF48070002112F014F915F006F9A9
:106FB00020B14FF40060002112F00CF933F014F806
:106FC000012020F067FD0E4A0E49A06A32F03CFF16
:106FD00028460AB070BDFF20D7E70725F8E700BFB5
:106FE0000DD5015520000000C0110020690345ECBB
:106FF000006200205DC001081062002000600020D7
:10700000F19D0308319E03080348044B834202D0DC
:10701000034B03B1184770474C1100204C1100205E
:1070200000000000064B0749C91A891048BF01310A
:10703000491003D0044B0BB101481847704700BFFB
:107040004C1100204C1100200000000010B5064C2F
:10705000237843B9FFF7D8FF044B13B10448AFF3CB
:1070600000800123237010BDB868002000000000DC
:10707000D867040808B5054B1BB105490548AFF3AF
:107080000080BDE80840FFF7CDBF00BF0000000052
:1070900030140020D8670408A3F5803A704700BF79
:1070A000174B002B08BF134B9D46FFF7F5FF002140
:1070B0008B460F461348144A121A2FF0D9FE0E4B76
:1070C000002B00D098470D4B002B00D09847002094
:1070D000002104000D000D48002802D00C48AFF339
:1070E00000800EF0A9FB2000290001F0DBFC0EF06F
:1070F00089FB00BF00000800000000000000000045
:10710000C00A00204C110020C48B002000000000A9
:107110000000000000B585B00190019B1B6823F4BE
:107120007F4323F00703474A934260D0454A934286
:107130007CD8454A934221D0434A934276D8434A69
:10714000934226D0414A934270D8414A934203D099
:10715000404A93420DD069E03F4940482AF0ECFD97
:1071600000F0B6F900F0B8F83D493C482AF0E4FDDB
:1071700063E03C4939482AF0DFFD5EE03A49374890
:107180002AF0DAFD00F0A8F8384934482AF0D4FD96
:1071900053E0019BB3F805309AB2354B1B889A42F5
:1071A00046D134492D482AF0C7FD019B9B7A002B1C
:1071B00040D0019BDB7A8DF80F309DF80F30002B0B
:1071C00008D10121142027F035FF2B4923482AF04C
:1071D000B3FD2DE09DF80F30012B29D127491F4821
:1071E0002AF0AAFD002114202BF029F920E0019BB0
:1071F000B3F805309AB2224B1B889A421CD1019BEE
:107200001B899BB203F00103002B07D01D491348D3
:107210002AF092FD1C4B01221A700DE01B490F4809
:107220002AF08AFD184B00221A7005E000BF04E026
:1072300000BF02E000BF00E000BF00BF05B05DF886
:1072400004FB00BFA0000A03A0000601A0000A0082
:10725000A0000100A000060074FD03082C19002006
:1072600088FD0308A4FD0308BCFD0308D4FD030842
:107270005C680020F0FD03081CFE030824FE0308E0
:107280005E6800202CFE0308B968002048FE030851
:1072900000B585B00C4A6B4607CA83E807000B4B64
:1072A0001B886A460C21184618F024FA03460393FB
:1072B000039B002B03D1064906482AF03DFD00BF81
:1072C00005B05DF804FB00BF7CFE03085E6800208B
:1072D00068FE03082C19002000B585B0714B1B789F
:1072E000002B6ED0704818F0C1F803460393039B3F
:1072F000002B2AD06D4B1B686D4918462CF0EFFC13
:107300006A4B1B686B4918462CF0E9FC2BF0EDF832
:107310002BF0ECF8654B1868674B00938523674AA0
:1073200067492CF0DCFC614B1868039B654A664991
:107330002CF0D5FC039801F0B5FD5C4B1B6863494C
:1073400018462CF0CCFC00BFFDE7574B1878002303
:1073500000930023A022A02118F0A0F80346039375
:10736000039B002B2AD0514B1B68514918462CF027
:10737000B6FC4E4B1B684F4918462CF0B0FC2BF066
:10738000B4F82BF0B3F8494B18684B4B00938E239D
:107390004A4A4B492CF0A3FC444B1868039B494ACA
:1073A00049492CF09CFC039801F07CFD3F4B1B6885
:1073B000464918462CF093FC00BFFDE7394B0022EC
:1073C0001A70394B1B780221184618F089F80346C9
:1073D0000393039B002B2AD0344B1B683449184677
:1073E0002CF07DFC314B1B68324918462CF077FCA1
:1073F0002BF07BF82BF07AF82C4B18682E4B00936F
:1074000095232E4A2E492CF06AFC284B1868039BC2
:107410002C4A2D492CF063FC039801F043FD234BCB
:107420001B682A4918462CF05AFC00BFFDE71E4B8A
:107430001B780221184618F067F803460393039B54
:10744000002B2AD0194B1B68194918462CF047FC11
:10745000164B1B68174918462CF041FC2BF045F8D9
:107460002BF044F8114B1868134B00939923134ADF
:1074700013492CF034FC0D4B1868039B114A124938
:107480002CF02DFC039801F00DFD084B1B680F49F3
:1074900018462CF024FC00BFFDE700BF05B05DF8E6
:1074A00004FB00BF410F0020400F0020543D00208E
:1074B00088FE03088CFE0308C8FE030894FE030838
:1074C000BCFE0308E0FE0308E4FE0308FCFE03081C
:1074D00070B59CB09A4818F02BF803461B931B9B81
:1074E000002B2AD0974B1B68974918462CF0F7FBC6
:1074F000944B1B68954918462CF0F1FB2AF0F5FFD8
:107500002AF0F4FF8F4B1868914B0093A423914A03
:1075100091492CF0E4FB8B4B18681B9B8F4A9049D8
:107520002CF0DDFB1B9801F0BDFC864B1B688D49E0
:1075300018462CF0D4FB00BFFDE74FF4C053ADF864
:1075400068307F4B1888884B01931AAB0093022355
:107550000122002118F004F803461B931B9B002B0B
:107560002AD0784B1B68784918462CF0B8FB754B2D
:107570001B68764918462CF0B2FB2AF0B6FF2AF0B9
:10758000B5FF704B1868724B0093AE23714A724975
:107590002CF0A5FB6B4B18681B9B704A70492CF0B4
:1075A0009EFB1B9801F07EFC664B1B686D491846DC
:1075B0002CF095FB00BFFDE76C4B1B88ADF86430E9
:1075C0005F4B1888684B1988694B0693694B059384
:1075D000102304931023039301230293BDF8643016
:1075E000ADF80430002300930023022217F0E2FFDD
:1075F00003461B931B9B002B2AD0524B1B685249FE
:1076000018462CF06CFB4F4B1B68504918462CF069
:1076100066FB2AF06AFF2AF069FF4A4B18684C4B58
:107620000093BE234B4A4C492CF059FB454B18683C
:107630001B9B4A4A4A492CF052FB1B9801F032FC32
:10764000404B1B68474918462CF049FB00BFFDE73B
:107650003B4B1B88444A12881146184618F024F800
:1076600003461B931B9B002B2AD0364B1B683649C5
:1076700018462CF034FB334B1B68344918462CF069
:107680002EFB2AF032FF2AF031FF2E4B1868304BC8
:107690000093C2232F4A30492CF021FB294B186854
:1076A0001B9B2E4A2E492CF01AFB1B9801F0FAFB6B
:1076B000244B1B682B4918462CF011FB00BFFDE73B
:1076C0002D4B15AC0FCB84E80F001D4B18882B4BAE
:1076D000019315AB009310230122002117F040FF06
:1076E00003461B931B9B002B4AD0164B1B68164965
:1076F00018462CF0F4FA134B1B68144918462CF06A
:10770000EEFA2AF0F2FE2AF0F1FE0E4B1868104B4A
:107710000093CF230F4A10492CF0E1FA094B186867
:107720001B9B0E4A0E492CF0DAFA1B9801F0BAFBAB
:10773000044B1B680B4918462CF0D1FA00BFFDE73B
:1077400054680020543D002088FE03088CFE030886
:1077500010FF030894FE0308BCFE0308E0FE0308C4
:10776000E4FE0308FCFE03085668002028FF030817
:107770005868002060FD03082CFF03085A680020A9
:10778000794B11AC0FCB84E80F0000238DF8433008
:10779000764B1D88764B1E88764B09930DF143037B
:1077A000089301230793012306930123059301AC5A
:1077B00011AB0FCB84E80F000023009300230A22B3
:1077C0003146284617F030FF03461B93674B1B8852
:1077D000674A12881146184617F066FF03461B9346
:1077E0001B9B002B2AD0644B1B68644918462CF065
:1077F00076FA614B1B68624918462CF070FA2AF041
:1078000074FE2AF073FE5C4B18685E4B0093E52310
:107810005D4A5E492CF063FA574B18681B9B5C4A23
:107820005C492CF05CFA1B9801F03CFB524B1B6846
:10783000594918462CF053FA00BFFDE7574B0CACE2
:107840000FCB84E80F0000238DF82F30474B1D88A5
:10785000474B1E88524B09930DF12F0308930123C8
:107860000793012306930123059301AC0CAB0FCBC7
:1078700084E80F000023009300231222314628469B
:1078800017F0D2FE03461B93384B1B88384A1288E8
:107890001146184617F008FF03461B931B9B002B4D
:1078A0002AD0354B1B68354918462CF018FA324B54
:1078B0001B68334918462CF012FA2AF016FE2AF0FB
:1078C00015FE2D4B18682F4B0093FB232E4A2F4992
:1078D0002CF005FA284B18681B9B2D4A2D492CF0DB
:1078E000FEF91B9801F0DEFA234B1B682A49184663
:1078F0002CF0F5F900BFFDE71C4B1B88184617F06C
:10790000E7FE03461B931B9B002B2AD01A4B1B68D8
:107910001A4918462CF0E3F9174B1B68184918460A
:107920002CF0DDF92AF0E1FD2AF0E0FD124B186899
:10793000144B0093FF23144A14492CF0D0F90E4B3A
:1079400018681B9B124A13492CF0C9F91B9801F0C7
:10795000A9FA094B1B68104918462CF0C0F900BF62
:10796000FDE700BF1CB070BD3CFF03085468002059
:107970005A6800205C680020543D002088FE0308FF
:107980008CFE030810FF030894FE0308BCFE0308E6
:10799000E0FE0308E4FE0308FCFE03084CFF0308B6
:1079A0005E68002008B5044B1B78002B01D0FFF760
:1079B0006FFC00BF08BD00BFB968002000B587B0EC
:1079C000624963482AF0B8F940F2134261496248BB
:1079D00029F041FD614B604A5A6161495C482AF0D7
:1079E000ABF90023059336E05E4A059B13441B78F0
:1079F00019465A4827F0B4FE0346B3F1FF3F14BFBF
:107A000001230023DBB2002B11D0574950482AF044
:107A1000F2F8544A059B13441B780A2219464C4835
:107A20002AF009F951494A482AF086F910E05049EC
:107A300047482AF0E0F84B4A059B13441B780A227A
:107A4000194643482AF0F7F84A4941482AF074F9A0
:107A5000059B01330593059B012BC5DD46493C4839
:107A60002AF06AF945493A482AF066F90023049356
:107A700008E0434A049B4FF4806122F81310049BF2
:107A800001330493049B012BF3DD3E4B01933E4BEA
:107A900000933B4B02223349304828F0A3F84FF4BF
:107AA000FA602AF0F4FB394929482AF045F9002305
:107AB000039308E0324A039B4FF4406122F813100D
:107AC000039B01330393039B012BF3DD2D4B0193A8
:107AD0002D4B00932A4B02222249204828F082F89D
:107AE0004FF4FA602AF0D3FB294919482AF024F907
:107AF0000023029308E0224A029B4FF4006122F81F
:107B00001310029B01330293029B012BF3DD1D4BEB
:107B100001931D4B00931A4B022212490F4828F083
:107B200061F840F2DC502AF0B2FB1A4908482AF00A
:107B300003F9194906482AF0FFF8184904482AF0C1
:107B4000FBF800BF07B05DF804FB00BF5CFF030853
:107B50002C19002040420F00401A00204814002039
:107B600080FF0308C40A0020A4FF0308B4FF030831
:107B7000C4FF0308DCFF0308F0FF03081C0004082F
:107B8000D00A0020CC0A0020C80A002038000408CF
:107B9000540004087C000408A0000408D80004086D
:107BA00010B590B0724829F080FC0346002B14BF3A
:107BB00001230023DBB2002B00F0D78003AB6C491C
:107BC000184600F023FF03AB18462AF093FA00236F
:107BD0008DF83F3006AB674918462AF040F906AAEF
:107BE00003AB114618462AF042FA03461C4606AB80
:107BF00018462AF04CF9002C28D05F495C482AF03E
:107C00009BF800230E931AE05C4A0E9B32F9133066
:107C10009BB2A3F500739BB219B2584A0E9B22F88F
:107C20001310564A0E9B32F91330002B04DA534AD4
:107C30000E9B002122F813100E9B01330E930E9B16
:107C4000012BE1DD01238DF83F304AE009AB4C49BF
:107C500018462AF004F909AA03AB114618462AF07F
:107C600006FA03461C4609AB18462AF010F9002C08
:107C70002AD044493E482AF05FF800230D931CE0C7
:107C80003E4A0D9B32F913309BB203F500739BB251
:107C900019B23A4A0D9B22F81310384A0D9B32F95B
:107CA0001330B3F5805F05DB344A0D9B40F6FF715E
:107CB00022F813100D9B01330D930D9B012BDFDD7B
:107CC00001238DF83F300CE02F49294829F093FF1C
:107CD00003AB1946264829F079FF2C4924482AF09D
:107CE0002BF89DF83F30002B2AD02949204829F055
:107CF00082FF00230C9312E0204A0C9B32F91330D0
:107D00000A2219461A4829F0A9FF0C9B002B03DC14
:107D10002049174829F06FFF0C9B01330C930C9BF3
:107D2000012BE9DD1C4912482AF006F81B4B019390
:107D30001B4B0093114B02221A491B4827F052FF9C
:107D400003AB18462AF0A3F80FE006AB18462AF05A
:107D50009EF804E009AB18462AF099F8FFE703AB58
:107D600018462AF094F82EF0A1FB00BF10B010BD09
:107D70002C190020FC00040800010408D00A00208F
:107D80002C010408300104085C0104087001040897
:107D90008C010408B0010408B4010408CC0A0020D6
:107DA000C80A0020C40A00204814002008B54FF477
:107DB000E1310D4829F030FB4FF4FA602AF067FA00
:107DC000012114202AF086FA084B1B78002B01D0E1
:107DD00027F058F9064B1B78002B01D027F03CF90F
:107DE000FFF7ECFD00BF08BD2C190020BB68002088
:107DF000BA68002000B583B001900091019B012B6F
:107E00000CD1009B4FF6FF72934207D1054800F05A
:107E10005BF86A220021044828F054FA00BF03B03E
:107E20005DF804FB481400207414002082B0019017
:107E3000044B03F500531A46019B536100BF02B087
:107E4000704700BF0040065000B583B0019000911C
:107E5000019B012B07D1009B4FF6FF72934202D189
:107E6000034827F028F900BF03B05DF804FB00BF0A
:107E70009C14002082B00190064A019B1A60019B6D
:107E800001221A71019B00229A71019B184602B0CF
:107E9000704700BFC001040800B583B00190019B8A
:107EA0001846FFF7E7FF074A019B1A60019B64220F
:107EB0001A61019B00225A61019B184603B05DF8CC
:107EC00004FB00BFEC01040800B583B00190019BE6
:107ED0001846FFF7E1FF054A019B1A60019B00224B
:107EE0005A71019B184603B05DF804FB2402040894
:107EF00086B00190019B05930B4B049301238DF8F1
:107F00000F3000238DF80E30059B049A1A60059BF4
:107F10009DF80E201A71059B9DF80F205A7100BF25
:107F2000019B184606B0704700093D0000B583B0BC
:107F300001900091019B012B07D1009B4FF6FF722E
:107F4000934202D10348FFF7D3FF00BF03B05DF8AF
:107F500004FB00BFA814002082B00190044A019BDA
:107F60001A60019B00225A60019B184602B07047BC
:107F7000BC05040800B583B00190019B1846FFF7CB
:107F8000EBFF064A019B1A60019B4FF47A729A60DC
:107F9000019B184603B05DF804FB00BF54030408BE
:107FA00082B003468DF807309DF90730002B0CDBBB
:107FB0009DF8073003F01F0205499DF907305B0962
:107FC000012000FA02F241F8232000BF02B07047FE
:107FD00000E100E000B583B00190019B1846FFF777
:107FE000C9FF044A019B1A60019B184603B05DF863
:107FF00004FB00BF0403040800B585B003900291A0
:1080000011461A460B468DF8073013468DF8063098
:10801000039B1846FFF7DEFF394A039B1A60039B58
:1080200000221A74039B00225A74039B0022A3F8B7
:108030009420039B002283F89620039B0022C3F820
:108040009820039B0022C3F89C20039B0022C3F8C6
:10805000A020039B002283F8A420039B002283F826
:10806000A520039BA833184628F096FD039B002209
:10807000C3F8F420039B0022C3F8F820039B0022DE
:10808000C3F8FC20039B029AC3F85021039B9DF880
:10809000072083F85421039B9DF8062083F855217F
:1080A000039B069AC3F85821039B9DF81C2083F874
:1080B0005C21039B089AC3F86021039B099AC3F8CB
:1080C0006421039B53334022002118462EF0D0FE3A
:1080D000039B13334022002118462EF0C9FE039B58
:1080E00003F58073194601202CF000FC0246039B27
:1080F000C3F8FC20039B184605B05DF804FB00BFE5
:10810000B402040810B588B001900B468DF8033016
:10811000019B1B7C002B40F0B480019B02221A744F
:10812000019B9DF8032083F8A420574B03AC0FCB91
:1081300084E80F0000238DF80D30019B93F8550162
:10814000019BD3F8581101230B2203F0EBFC019B98
:1081500093F85C01019BD3F8601101230B2203F01B
:10816000E1FC4A4A019B93F854314F331B011344FD
:108170001B6823F4702323F00303019A92F85C2117
:108180001146019AD2F8602112040A433F4801992E
:1081900091F854111A4301F14F031B0103441A6073
:1081A0003A4A019B93F854311B01134403F2EC4308
:1081B0001B6823F4702323F00303019A92F85521DE
:1081C0001146019AD2F8582112040A432F48019906
:1081D00091F854111A430B01034403F2EC431A6063
:1081E0002A4A019B93F854311B01134403F59D6304
:1081F00003221A60019BD3F85031B3F1B64F01D17D
:108200002E230793019BD3F85031214A934201D189
:108210002F2307930121079802F052FB019BD3F80B
:10822000503103AA1146184603F0F8FC019BD3F81D
:108230005021019B93F8A4301946104628F0C3F84A
:10824000019BD3F850311349184628F0A4F8019B3C
:10825000D3F850311049184628F0A9F8019BD3F8FB
:108260005031B3F1B64F02D11B20FFF799FE019BAD
:10827000D3F85031064A934204D11C20FFF790FEF8
:1082800000E000BF08B010BD9C02040800C003500D
:1082900000800650FFFF1F006406010008B510486B
:1082A00028F072FC0346B3F1B64F0CBF0123002344
:1082B000DBB2002B02D00A4828F0B4FB094828F0B2
:1082C00063FC0346B3F1B64F0CBF01230023DBB2BE
:1082D000002B02D0034828F0A5FB00BF08BD00BF5B
:1082E000B01400201816002008B5104828F04CFCE7
:1082F00003460F4A93420CBF01230023DBB2002B3D
:1083000002D00A4828F08EFB0A4828F03DFC0346BC
:10831000074A93420CBF01230023DBB2002B02D09B
:10832000044828F07FFB00BF08BD00BFB014002048
:10833000008006501816002000B587B00590049103
:10834000059B012B23D1049B4FF6FF7293421ED154
:10835000114B1B680393042302930223019305230B
:108360000093022301220D490D48FFF745FE0D4BF6
:108370001B680393022302930123019303230093B9
:10838000012300224FF0B6410748FFF735FE00BF3A
:1083900007B05DF804FB00BFD40A0020008006503F
:1083A000B0140020D80A00201816002082B00190D6
:1083B000034A019B1A60019B184602B0704700BF38
:1083C0001804040882B00190034A019B1A60019BC3
:1083D000184602B0704700BF1804040800B585B005
:1083E0000390029101920093039B1846FFF7EAFF66
:1083F0001A4A039B1A60039B00221A71039B03F124
:10840000080000230022164928F062FC039B029A10
:108410001A61039B019A5A61039B009A9A61039B1C
:108420002033194601202CF061FA0246039BDA61E1
:10843000039B7433194601202CF058FA0246039B23
:108440001A67039B05E0039B1846FFF7AFFF2EF06A
:108450002DF8184605B05DF804FB00BFDC030408E6
:1084600040420F0082B001900B468DF803309DF81A
:108470000330032B1ED801A252F823F08D8400088C
:1084800097840008A1840008AB840008019B5B6905
:1084900000229A7613E0019B5B6901229A760EE036
:1084A000019B5B6902229A7609E0019B5B690322CA
:1084B0009A7604E0019B5B6900229A7600BF00BFB8
:1084C00002B0704700B587B003900291019200930B
:1084D00000230593039BDB6905AA114618462CF07F
:1084E00073FA059B002B03D0034B4FF080521A60A8
:1084F00000BF07B05DF804FB04ED00E000B585B0F7
:10850000039002910192019B029A03990348FFF79D
:10851000D9FF00BF05B05DF804FB00BF881700203D
:1085200000B585B0039002910192019B029A0399D4
:108530000348FFF7C7FF00BF05B05DF804FB00BFAD
:108540004C18002000B583B00190064A019B1A60C8
:10855000019B1846FFF72AFF019B184603B05DF800
:1085600004FB00BFDC03040800B583B00190009158
:10857000019B012B1FD1009B4FF6FF7293421AD132
:108580000F48FFF7B5FC0F4B19680F4B0F4A104807
:10859000FFF724FF0F4A10490D482DF015FF0F4B30
:1085A00019680F4B0F4A1048FFF718FF094A0A498C
:1085B0000D482DF009FF00BF03B05DF804FB00BFBC
:1085C00080170020680C0020FD840008DC0A0020D1
:1085D00088170020C00A002045850008640C002090
:1085E00021850008FC0A00204C18002000B583B04B
:1085F00001900023019A0021034803F0F1FD00BF20
:1086000003B05DF804FB00BF00C0055008B5134B74
:108610001B68184628F09CFD114B0022C3F8202748
:108620000F4B0022C3F838270D4B0022C3F8302728
:108630000B4B0022C3F82827094B0022C3F82C2734
:10864000002301220821002003F06CFA00230122FC
:108650000921002003F066FA00BF08BD14190020AC
:1086600000C0035000B583B00190019A0021034877
:1086700002F0F8FF00BF03B05DF804FB00000A50F1
:1086800008B5134B1B68184628F062FD114B0022F9
:10869000C3F8B4240F4B0022C3F8CC240D4B0022A6
:1086A000C3F8C4240B4B0022C3F8BC24094B00229E
:1086B000C3F8C024002301220621022003F032FA6D
:1086C000002301220721022003F02CFA00BF08BD7D
:1086D0001C19002000C0035082B001900091019B42
:1086E000012B14D1009B4FF6FF7293420FD1094B1F
:1086F0001B68094A1360094B1B68094A1360094B40
:108700001B68094A1360094B1B68094A136000BFC4
:1087100002B07047500C002010190020600C00209F
:10872000141900203C0C0020181900204C0C0020CB
:108730001C19002000B583B001900091019B012B12
:108740000CD1009B4FF6FF72934207D1054828F0E9
:108750006FFD054A054903482DF036FE00BF03B002
:108760005DF804FB20190020C00A0020CF13030885
:1087700000B583B00190019B1846FFF7FBFB044A4C
:10878000019B1A60019B184603B05DF804FB00BF13
:10879000CC04040800B585B00390029101920093C7
:1087A000039B1846FFF7E4FF1F4A039B1A60039BD5
:1087B0001033184628F04DFF039B0022C3F89C207D
:1087C000039B002283F80821039B4FF4E132C3F896
:1087D0000C21039B002283F81021039BA033194630
:1087E00001202CF083F80246039BC3F89C20039BD6
:1087F000009AC3F8F020039B069AC3F8F420039B69
:10880000079AC3F8F820039B029AC3F80021039B40
:10881000019AC3F80421039B089AC3F8FC20039B28
:10882000184605B05DF804FB9804040800B587B04D
:1088300005900491059B012B20D1049B4FF6FF72FC
:1088400093421BD10F4B19680F4B1A680F4B0293C1
:108850000F4B01930F4B00930F4B1048FFF79AFFFC
:108860000F4B19680F4B1A680F4B02930F4B019374
:108870000F4B00930F4B1048FFF78CFF00BF07B062
:108880005DF804FB10190020141900204B16030892
:108890000D86000877110308ED8500082C190020CB
:1088A000181900201C1900204F16030881860008A3
:1088B0008111030865860008401A002000B583B0C6
:1088C00001900091019B012B07D1009B4FF6FF7295
:1088D000934202D1034828F07DFF00BF03B05DF84A
:1088E00004FB00BF541B002082B00190034A019B8F
:1088F0001A60019B184602B0704700BF4C0504087F
:1089000000B583B001900B468DF80330019B1846EB
:10891000FFF7EAFF094A019B1A60019B9DF80320BB
:108920001A75019B04331022002118462EF0A0FA7C
:10893000019B184603B05DF804FB00BF78050408EE
:1089400000B583B00190084611461A4603468DF8DB
:1089500003300B468DF8023013468DF80130019B31
:108960001846FFF7C1FF114A019B1A60019B0022C4
:108970001A75019B04331022002118462EF078FA54
:10898000019B9DF803201A74019B9DF802205A74E4
:10899000019B9DF801209A74019B9DF81020DA74C8
:1089A000019B184603B05DF804FB00BF780504087E
:1089B00000B585B003900291039B012B10D1029B5F
:1089C0004FF6FF7293420BD101210748FFF798FF42
:1089D000002300930023002200210448FFF7B0FF8A
:1089E00000BF05B05DF804FBD01B0020E81B002091
:1089F00000B583B001900449019829F09FF803461F
:108A0000184603B05DF804FBA005040800B585B066
:108A1000019000911049019829F021FA009829F05D
:108A2000F4F9034603930AE0039BDBB2194601986D
:108A300029F0DAF9009829F0E8F903460393039B3B
:108A4000002BF1DA04E0019829F021FA2DF02EFD37
:108A5000019805B05DF804FBE805040800B583B093
:108A600001900091019B012B10D1009B4FF6FF72EA
:108A700093420BD1432342220649074829F08BFB3E
:108A8000452344220549064829F085FB00BF03B071
:108A90005DF804FB00400259001C002000800259D0
:108AA000281C002000B585B003F05EFB0346274A72
:108AB000136029F0CFFF28F082FB254B01221A70AA
:108AC00026F00FFB234B0293234B019301230093CA
:108AD00000234FF40062214921482CF069F9034634
:108AE000204A13601F4B1B68002B27D11E4B1B68AD
:108AF0001E4918462BF0F3F81B4B1B681C491846FF
:108B00002BF0EDF829F0F1FC29F0F0FC164B186879
:108B1000184B00933E23184A18492BF0E0F8124BEB
:108B20001B68174A174918462BF0D9F80E4B1B68DB
:108B3000154918462BF0D3F800BFFDE72BF038FCA1
:108B40000023184605B05DF804FB00BFB43C0020CC
:108B5000BC680020503C0020501C0020EC0504089C
:108B600001220308B03C0020543D0020FC0504080D
:108B7000000604086C0604080806040860060408D9
:108B80007406040890060408A806040808B50748F7
:108B900028F0F3FC054828F03FFD054828F0EDFCDF
:108BA000034828F039FD00BF08BD00BF2C19002084
:108BB000401A0020014B1B7818467047BC68002003
:108BC00010B582B003468DF807309DF80730312B81
:108BD00006D99DF80730722B02D89DF8073013E0B4
:108BE0009DF8074028F0F0FA03469C422CBF012371
:108BF0000023DBB2002B02D04FF0FF3304E09DF8DE
:108C00000730034A52F82330184602B010BD00BFA7
:108C10001C0B002000B587B00190019B00221A7246
:108C2000019B01225A72019B0022DA60019B002203
:108C30001A66019B082283F86420019BFF229A6632
:108C4000019B4FF47A721A60019B00221A71019BFA
:108C50006C330493049B0593049B3033039316E019
:108C6000059B0293029B72221A60029B114A9A6032
:108C7000029B00221A73029B00225A73029B00225D
:108C80009A73029B0022DA73059B10330593059AB1
:108C9000039B9A42E4D1019B1033194601202BF02B
:108CA00025FE0246019BDA60019B184607B05DF87D
:108CB00004FB00BF0080045000B583B00190009118
:108CC000019B012B07D1009B4FF6FF72934202D10B
:108CD0000348FFF79FFF00BF03B05DF804FB00BF30
:108CE000B83C002082B003468DF807309DF907306C
:108CF000002B13DB9DF8073003F01F0209499DF993
:108D000007305B09012000FA02F2203341F82320EA
:108D1000BFF34F8F00BFBFF36F8F00BF00BF02B024
:108D2000704700BF00E100E000B583B001900198FA
:108D300002F096FF019BB3F1B64F0ED11E4B0022FD
:108D4000C3F8E8241C4B0022C3F8EC241A4B002281
:108D5000C3F8F0241B20FFF7C5FF019B174A93427D
:108D60000ED1154B0022C3F8F824134B0022C3F890
:108D7000FC24114B0022C3F800251C20FFF7B2FF92
:108D8000002301220521022002F0CCFE0023012253
:108D90000421022002F0C6FE00230122032101204B
:108DA00002F0C0FE002301220221012002F0BAFEDF
:108DB00000BF03B05DF804FB00C003500080065004
:108DC00000B583B0034600918DF807309DF8072069
:108DD00013465B0013441B0103F11402054B1344BB
:108DE0000099184629F069FA0346184603B05DF861
:108DF00004FB00BF30C0035082B0034600918DF8E1
:108E0000073008489DF807200121009B9940134630
:108E10005B0013441B01034403F50153196000BFB9
:108E200002B0704700C0035082B0034600918DF835
:108E3000073008489DF807200121009B9940134600
:108E40005B0013441B01034403F58253196000BF08
:108E500002B0704700C00350012208B5074B1A70DA
:108E60000022074B1A700422064B1A701F22064B71
:108E70001A7005F049FE054B186008BD440F00202C
:108E8000BD680020430F0020420F0020543D002009
:108E9000024B034918682AF022BF00BF543D00204E
:108EA000C506040870B50C4C0C49064620682AF02B
:108EB00016FF05F029FE0546206805F0FBFD30464B
:108EC000FFF7E6FF284605F0F5FD20680449BDE8F8
:108ED00070402AF004BF00BF543D0020C7060408BC
:108EE000C90604082DE9F043434D89B001AC0FCD0C
:108EF0000FC495E80700012584E8070001213A2006
:108F000001F0DEFC3D4F0121292001F0D9FC3C4B52
:108F1000384601A903938DF8125003F013FA2B463B
:108F200029460422022002F0FDFD02212A460846BD
:108F3000002302F0F7FD2B4604220321022002F059
:108F4000F1FD04222B461146022002F0EBFD2D4CD0
:108F50002D4B1026C4F834374FF00213C4F83037C5
:108F6000A3F58033C4F838371C2304F50059C4F83E
:108F700020374FF4487007F037FC04F58058142070
:108F8000C9F8A06007F030FC2320C8F8A06007F003
:108F90002BFCB9213846C9F8A06029F0BAFD00239E
:108FA00029461A460220C8F8A06002F0BBFD002343
:108FB00002211A46084602F0B5FD2B460022032185
:108FC000022002F0AFFD2B4600220421022002F015
:108FD000A9FD384603F034F900212920C4F83417DC
:108FE000C4F83017C4F83817C4F8201701F068FC2B
:108FF00009B0BDE8F08300BFCC06040800C00550EE
:1090000000127A0000C0035002000300BFF34F8F2C
:109010000549064BCA6802F4E0621343CB60BFF314
:109020004F8F00BFFDE700BF00ED00E00400FA0530
:109030004FF000639B6A03F17842B2F5C04F03D250
:109040001968064A914203D0002303708360704779
:10905000012202709A689B694260F7E707B0CD5E13
:1090600073B54F4B04461A781AB102221A7002B037
:1090700070BDCDE900220028F9D001261E7029F02C
:1090800050FC484D484B186022F006F92B785BB92C
